{
	"data": {
		"bytecode": {
			"linkReferences": {},
			"object": "608060405234801561000f575f80fd5b503360025f6101000a81548173ffffffffffffffffffffffffffffffffffffffff021916908373ffffffffffffffffffffffffffffffffffffffff160217905550610eb88061005d5f395ff3fe608060405234801561000f575f80fd5b506004361061009c575f3560e01c80638da5cb5b116100645780638da5cb5b146101595780639955f67c14610177578063aa2fedde14610195578063c19d93fb146101b3578063d3f0c8bb146101d15761009c565b80632c16cd8a146100a057806336a6badd146100d3578063398933ca146100f15780634f96d8601461010d5780636cd7751f1461013d575b5f80fd5b6100ba60048036038101906100b59190610943565b6101db565b6040516100ca949392919061097d565b60405180910390f35b6100db610207565b6040516100e89190610a22565b60405180910390f35b61010b60048036038101906101069190610a95565b61025d565b005b61012760048036038101906101229190610b41565b6103c0565b6040516101349190610bb4565b60405180910390f35b61015760048036038101906101529190610bcd565b610577565b005b6101616106cd565b60405161016e9190610c07565b60405180910390f35b61017f6106f0565b60405161018c9190610c07565b60405180910390f35b61019d610715565b6040516101aa9190610c07565b60405180910390f35b6101bb61073a565b6040516101c89190610c93565b60405180910390f35b6101d961074c565b005b6003602052805f5260405f205f91509050805f0154908060010154908060020154908060030154905084565b61020f6108e8565b5f60035f600181526020019081526020015f206040518060800160405290815f8201548152602001600182015481526020016002820154815260200160038201548152505090508091505090565b60025f9054906101000a900473ffffffffffffffffffffffffffffffffffffffff1673ffffffffffffffffffffffffffffffffffffffff163373ffffffffffffffffffffffffffffffffffffffff16146102ec576040517f08c379a00000000000000000000000000000000000000000000000000000000081526004016102e390610d06565b60405180910390fd5b7f8a4335bd3facea1bfaf95771e37917d7f43ff5f64d26d19f43e8a1c931ddeb0160405160405180910390a1805f806101000a81548173ffffffffffffffffffffffffffffffffffffffff021916908373ffffffffffffffffffffffffffffffffffffffff1602179055505f60035f600181526020019081526020015f20905085815f01819055508481600101819055508381600201819055508281600301819055505f60045f6101000a81548160ff021916908360048111156103b3576103b2610c20565b5b0217905550505050505050565b5f60015f9054906101000a900473ffffffffffffffffffffffffffffffffffffffff1673ffffffffffffffffffffffffffffffffffffffff163373ffffffffffffffffffffffffffffffffffffffff1614610450576040517f08c379a000000000000000000000000000000000000000000000000000000000815260040161044790610d94565b60405180910390fd5b600180600481111561046557610464610c20565b5b60045f9054906101000a900460ff16600481111561048657610485610c20565b5b1480156104c557506004808111156104a1576104a0610c20565b5b60045f9054906101000a900460ff1660048111156104c2576104c1610c20565b5b14155b610504576040517f08c379a00000000000000000000000000000000000000000000000000000000081526004016104fb90610dfc565b60405180910390fd5b7fbbb82d89ae6cb278e0333b446560e83d91184e64026c1c4ee85d8eaba065a96c60405160405180910390a1821561053f576001915061056e565b600260045f6101000a81548160ff0219169083600481111561056457610563610c20565b5b0217905550600191505b50949350505050565b60015f9054906101000a900473ffffffffffffffffffffffffffffffffffffffff1673ffffffffffffffffffffffffffffffffffffffff163373ffffffffffffffffffffffffffffffffffffffff1614158015610621575060025f9054906101000a900473ffffffffffffffffffffffffffffffffffffffff1673ffffffffffffffffffffffffffffffffffffffff163373ffffffffffffffffffffffffffffffffffffffff1614155b610660576040517f08c379a000000000000000000000000000000000000000000000000000000000815260040161065790610e64565b60405180910390fd5b8060015f6101000a81548173ffffffffffffffffffffffffffffffffffffffff021916908373ffffffffffffffffffffffffffffffffffffffff160217905550600160045f6101000a81548160ff021916908360048111156106c5576106c4610c20565b5b021790555050565b5f8054906101000a900473ffffffffffffffffffffffffffffffffffffffff1681565b60015f9054906101000a900473ffffffffffffffffffffffffffffffffffffffff1681565b60025f9054906101000a900473ffffffffffffffffffffffffffffffffffffffff1681565b60045f9054906101000a900460ff1681565b60015f9054906101000a900473ffffffffffffffffffffffffffffffffffffffff1673ffffffffffffffffffffffffffffffffffffffff163373ffffffffffffffffffffffffffffffffffffffff16146107db576040517f08c379a00000000000000000000000000000000000000000000000000000000081526004016107d290610d94565b60405180910390fd5b60028060048111156107f0576107ef610c20565b5b60045f9054906101000a900460ff16600481111561081157610810610c20565b5b148015610850575060048081111561082c5761082b610c20565b5b60045f9054906101000a900460ff16600481111561084d5761084c610c20565b5b14155b61088f576040517f08c379a000000000000000000000000000000000000000000000000000000000815260040161088690610dfc565b60405180910390fd5b7f61e2929ac66c18729e4b0d88c57278b64a58b35bbb02d8561220164d475c5f5d60405160405180910390a1600360045f6101000a81548160ff021916908360048111156108e0576108df610c20565b5b021790555050565b60405180608001604052805f81526020015f81526020015f81526020015f81525090565b5f80fd5b5f819050919050565b61092281610910565b811461092c575f80fd5b50565b5f8135905061093d81610919565b92915050565b5f602082840312156109585761095761090c565b5b5f6109658482850161092f565b91505092915050565b61097781610910565b82525050565b5f6080820190506109905f83018761096e565b61099d602083018661096e565b6109aa604083018561096e565b6109b7606083018461096e565b95945050505050565b6109c981610910565b82525050565b608082015f8201516109e35f8501826109c0565b5060208201516109f660208501826109c0565b506040820151610a0960408501826109c0565b506060820151610a1c60608501826109c0565b50505050565b5f608082019050610a355f8301846109cf565b92915050565b5f73ffffffffffffffffffffffffffffffffffffffff82169050919050565b5f610a6482610a3b565b9050919050565b610a7481610a5a565b8114610a7e575f80fd5b50565b5f81359050610a8f81610a6b565b92915050565b5f805f805f60a08688031215610aae57610aad61090c565b5b5f610abb8882890161092f565b9550506020610acc8882890161092f565b9450506040610add8882890161092f565b9350506060610aee8882890161092f565b9250506080610aff88828901610a81565b9150509295509295909350565b5f8115159050919050565b610b2081610b0c565b8114610b2a575f80fd5b50565b5f81359050610b3b81610b17565b92915050565b5f805f8060808587031215610b5957610b5861090c565b5b5f610b668782880161092f565b9450506020610b778782880161092f565b9350506040610b8887828801610a81565b9250506060610b9987828801610b2d565b91505092959194509250565b610bae81610b0c565b82525050565b5f602082019050610bc75f830184610ba5565b92915050565b5f60208284031215610be257610be161090c565b5b5f610bef84828501610a81565b91505092915050565b610c0181610a5a565b82525050565b5f602082019050610c1a5f830184610bf8565b92915050565b7f4e487b71000000000000000000000000000000000000000000000000000000005f52602160045260245ffd5b60058110610c5e57610c5d610c20565b5b50565b5f819050610c6e82610c4d565b919050565b5f610c7d82610c61565b9050919050565b610c8d81610c73565b82525050565b5f602082019050610ca65f830184610c84565b92915050565b5f82825260208201905092915050565b7f4f6e6c7920484f53504954414c2063616e2063616c6c20746869732e000000005f82015250565b5f610cf0601c83610cac565b9150610cfb82610cbc565b602082019050919050565b5f6020820190508181035f830152610d1d81610ce4565b9050919050565b7f4f6e6c7920494e535552414e43452050524f56494445522063616e2063616c6c5f8201527f20746869732e0000000000000000000000000000000000000000000000000000602082015250565b5f610d7e602683610cac565b9150610d8982610d24565b604082019050919050565b5f6020820190508181035f830152610dab81610d72565b9050919050565b7f496e76616c6964206f72204f7574206f662053746174652e00000000000000005f82015250565b5f610de6601883610cac565b9150610df182610db2565b602082019050919050565b5f6020820190508181035f830152610e1381610dda565b9050919050565b7f4f6e6c7920504554204f574e45522063616e2063616c6c20746869732e0000005f82015250565b5f610e4e601d83610cac565b9150610e5982610e1a565b602082019050919050565b5f6020820190508181035f830152610e7b81610e42565b905091905056fea2646970667358221220582dd738a3c574afa301f05bcbc366e65c32307e2f91cfc874734298027a0a9964736f6c63430008140033",
			"opcodes": "PUSH1 0x80 PUSH1 0x40 MSTORE CALLVALUE DUP1 ISZERO PUSH2 0xF JUMPI PUSH0 DUP1 REVERT JUMPDEST POP CALLER PUSH1 0x2 PUSH0 PUSH2 0x100 EXP DUP2 SLOAD DUP2 PUSH20 0xFFFFFFFFFFFFFFFFFFFFFFFFFFFFFFFFFFFFFFFF MUL NOT AND SWAP1 DUP4 PUSH20 0xFFFFFFFFFFFFFFFFFFFFFFFFFFFFFFFFFFFFFFFF AND MUL OR SWAP1 SSTORE POP PUSH2 0xEB8 DUP1 PUSH2 0x5D PUSH0 CODECOPY PUSH0 RETURN INVALID PUSH1 0x80 PUSH1 0x40 MSTORE CALLVALUE DUP1 ISZERO PUSH2 0xF JUMPI PUSH0 DUP1 REVERT JUMPDEST POP PUSH1 0x4 CALLDATASIZE LT PUSH2 0x9C JUMPI PUSH0 CALLDATALOAD PUSH1 0xE0 SHR DUP1 PUSH4 0x8DA5CB5B GT PUSH2 0x64 JUMPI DUP1 PUSH4 0x8DA5CB5B EQ PUSH2 0x159 JUMPI DUP1 PUSH4 0x9955F67C EQ PUSH2 0x177 JUMPI DUP1 PUSH4 0xAA2FEDDE EQ PUSH2 0x195 JUMPI DUP1 PUSH4 0xC19D93FB EQ PUSH2 0x1B3 JUMPI DUP1 PUSH4 0xD3F0C8BB EQ PUSH2 0x1D1 JUMPI PUSH2 0x9C JUMP JUMPDEST DUP1 PUSH4 0x2C16CD8A EQ PUSH2 0xA0 JUMPI DUP1 PUSH4 0x36A6BADD EQ PUSH2 0xD3 JUMPI DUP1 PUSH4 0x398933CA EQ PUSH2 0xF1 JUMPI DUP1 PUSH4 0x4F96D860 EQ PUSH2 0x10D JUMPI DUP1 PUSH4 0x6CD7751F EQ PUSH2 0x13D JUMPI JUMPDEST PUSH0 DUP1 REVERT JUMPDEST PUSH2 0xBA PUSH1 0x4 DUP1 CALLDATASIZE SUB DUP2 ADD SWAP1 PUSH2 0xB5 SWAP2 SWAP1 PUSH2 0x943 JUMP JUMPDEST PUSH2 0x1DB JUMP JUMPDEST PUSH1 0x40 MLOAD PUSH2 0xCA SWAP5 SWAP4 SWAP3 SWAP2 SWAP1 PUSH2 0x97D JUMP JUMPDEST PUSH1 0x40 MLOAD DUP1 SWAP2 SUB SWAP1 RETURN JUMPDEST PUSH2 0xDB PUSH2 0x207 JUMP JUMPDEST PUSH1 0x40 MLOAD PUSH2 0xE8 SWAP2 SWAP1 PUSH2 0xA22 JUMP JUMPDEST PUSH1 0x40 MLOAD DUP1 SWAP2 SUB SWAP1 RETURN JUMPDEST PUSH2 0x10B PUSH1 0x4 DUP1 CALLDATASIZE SUB DUP2 ADD SWAP1 PUSH2 0x106 SWAP2 SWAP1 PUSH2 0xA95 JUMP JUMPDEST PUSH2 0x25D JUMP JUMPDEST STOP JUMPDEST PUSH2 0x127 PUSH1 0x4 DUP1 CALLDATASIZE SUB DUP2 ADD SWAP1 PUSH2 0x122 SWAP2 SWAP1 PUSH2 0xB41 JUMP JUMPDEST PUSH2 0x3C0 JUMP JUMPDEST PUSH1 0x40 MLOAD PUSH2 0x134 SWAP2 SWAP1 PUSH2 0xBB4 JUMP JUMPDEST PUSH1 0x40 MLOAD DUP1 SWAP2 SUB SWAP1 RETURN JUMPDEST PUSH2 0x157 PUSH1 0x4 DUP1 CALLDATASIZE SUB DUP2 ADD SWAP1 PUSH2 0x152 SWAP2 SWAP1 PUSH2 0xBCD JUMP JUMPDEST PUSH2 0x577 JUMP JUMPDEST STOP JUMPDEST PUSH2 0x161 PUSH2 0x6CD JUMP JUMPDEST PUSH1 0x40 MLOAD PUSH2 0x16E SWAP2 SWAP1 PUSH2 0xC07 JUMP JUMPDEST PUSH1 0x40 MLOAD DUP1 SWAP2 SUB SWAP1 RETURN JUMPDEST PUSH2 0x17F PUSH2 0x6F0 JUMP JUMPDEST PUSH1 0x40 MLOAD PUSH2 0x18C SWAP2 SWAP1 PUSH2 0xC07 JUMP JUMPDEST PUSH1 0x40 MLOAD DUP1 SWAP2 SUB SWAP1 RETURN JUMPDEST PUSH2 0x19D PUSH2 0x715 JUMP JUMPDEST PUSH1 0x40 MLOAD PUSH2 0x1AA SWAP2 SWAP1 PUSH2 0xC07 JUMP JUMPDEST PUSH1 0x40 MLOAD DUP1 SWAP2 SUB SWAP1 RETURN JUMPDEST PUSH2 0x1BB PUSH2 0x73A JUMP JUMPDEST PUSH1 0x40 MLOAD PUSH2 0x1C8 SWAP2 SWAP1 PUSH2 0xC93 JUMP JUMPDEST PUSH1 0x40 MLOAD DUP1 SWAP2 SUB SWAP1 RETURN JUMPDEST PUSH2 0x1D9 PUSH2 0x74C JUMP JUMPDEST STOP JUMPDEST PUSH1 0x3 PUSH1 0x20 MSTORE DUP1 PUSH0 MSTORE PUSH1 0x40 PUSH0 KECCAK256 PUSH0 SWAP2 POP SWAP1 POP DUP1 PUSH0 ADD SLOAD SWAP1 DUP1 PUSH1 0x1 ADD SLOAD SWAP1 DUP1 PUSH1 0x2 ADD SLOAD SWAP1 DUP1 PUSH1 0x3 ADD SLOAD SWAP1 POP DUP5 JUMP JUMPDEST PUSH2 0x20F PUSH2 0x8E8 JUMP JUMPDEST PUSH0 PUSH1 0x3 PUSH0 PUSH1 0x1 DUP2 MSTORE PUSH1 0x20 ADD SWAP1 DUP2 MSTORE PUSH1 0x20 ADD PUSH0 KECCAK256 PUSH1 0x40 MLOAD DUP1 PUSH1 0x80 ADD PUSH1 0x40 MSTORE SWAP1 DUP2 PUSH0 DUP3 ADD SLOAD DUP2 MSTORE PUSH1 0x20 ADD PUSH1 0x1 DUP3 ADD SLOAD DUP2 MSTORE PUSH1 0x20 ADD PUSH1 0x2 DUP3 ADD SLOAD DUP2 MSTORE PUSH1 0x20 ADD PUSH1 0x3 DUP3 ADD SLOAD DUP2 MSTORE POP POP SWAP1 POP DUP1 SWAP2 POP POP SWAP1 JUMP JUMPDEST PUSH1 0x2 PUSH0 SWAP1 SLOAD SWAP1 PUSH2 0x100 EXP SWAP1 DIV PUSH20 0xFFFFFFFFFFFFFFFFFFFFFFFFFFFFFFFFFFFFFFFF AND PUSH20 0xFFFFFFFFFFFFFFFFFFFFFFFFFFFFFFFFFFFFFFFF AND CALLER PUSH20 0xFFFFFFFFFFFFFFFFFFFFFFFFFFFFFFFFFFFFFFFF AND EQ PUSH2 0x2EC JUMPI PUSH1 0x40 MLOAD PUSH32 0x8C379A000000000000000000000000000000000000000000000000000000000 DUP2 MSTORE PUSH1 0x4 ADD PUSH2 0x2E3 SWAP1 PUSH2 0xD06 JUMP JUMPDEST PUSH1 0x40 MLOAD DUP1 SWAP2 SUB SWAP1 REVERT JUMPDEST PUSH32 0x8A4335BD3FACEA1BFAF95771E37917D7F43FF5F64D26D19F43E8A1C931DDEB01 PUSH1 0x40 MLOAD PUSH1 0x40 MLOAD DUP1 SWAP2 SUB SWAP1 LOG1 DUP1 PUSH0 DUP1 PUSH2 0x100 EXP DUP2 SLOAD DUP2 PUSH20 0xFFFFFFFFFFFFFFFFFFFFFFFFFFFFFFFFFFFFFFFF MUL NOT AND SWAP1 DUP4 PUSH20 0xFFFFFFFFFFFFFFFFFFFFFFFFFFFFFFFFFFFFFFFF AND MUL OR SWAP1 SSTORE POP PUSH0 PUSH1 0x3 PUSH0 PUSH1 0x1 DUP2 MSTORE PUSH1 0x20 ADD SWAP1 DUP2 MSTORE PUSH1 0x20 ADD PUSH0 KECCAK256 SWAP1 POP DUP6 DUP2 PUSH0 ADD DUP2 SWAP1 SSTORE POP DUP5 DUP2 PUSH1 0x1 ADD DUP2 SWAP1 SSTORE POP DUP4 DUP2 PUSH1 0x2 ADD DUP2 SWAP1 SSTORE POP DUP3 DUP2 PUSH1 0x3 ADD DUP2 SWAP1 SSTORE POP PUSH0 PUSH1 0x4 PUSH0 PUSH2 0x100 EXP DUP2 SLOAD DUP2 PUSH1 0xFF MUL NOT AND SWAP1 DUP4 PUSH1 0x4 DUP2 GT ISZERO PUSH2 0x3B3 JUMPI PUSH2 0x3B2 PUSH2 0xC20 JUMP JUMPDEST JUMPDEST MUL OR SWAP1 SSTORE POP POP POP POP POP POP POP JUMP JUMPDEST PUSH0 PUSH1 0x1 PUSH0 SWAP1 SLOAD SWAP1 PUSH2 0x100 EXP SWAP1 DIV PUSH20 0xFFFFFFFFFFFFFFFFFFFFFFFFFFFFFFFFFFFFFFFF AND PUSH20 0xFFFFFFFFFFFFFFFFFFFFFFFFFFFFFFFFFFFFFFFF AND CALLER PUSH20 0xFFFFFFFFFFFFFFFFFFFFFFFFFFFFFFFFFFFFFFFF AND EQ PUSH2 0x450 JUMPI PUSH1 0x40 MLOAD PUSH32 0x8C379A000000000000000000000000000000000000000000000000000000000 DUP2 MSTORE PUSH1 0x4 ADD PUSH2 0x447 SWAP1 PUSH2 0xD94 JUMP JUMPDEST PUSH1 0x40 MLOAD DUP1 SWAP2 SUB SWAP1 REVERT JUMPDEST PUSH1 0x1 DUP1 PUSH1 0x4 DUP2 GT ISZERO PUSH2 0x465 JUMPI PUSH2 0x464 PUSH2 0xC20 JUMP JUMPDEST JUMPDEST PUSH1 0x4 PUSH0 SWAP1 SLOAD SWAP1 PUSH2 0x100 EXP SWAP1 DIV PUSH1 0xFF AND PUSH1 0x4 DUP2 GT ISZERO PUSH2 0x486 JUMPI PUSH2 0x485 PUSH2 0xC20 JUMP JUMPDEST JUMPDEST EQ DUP1 ISZERO PUSH2 0x4C5 JUMPI POP PUSH1 0x4 DUP1 DUP2 GT ISZERO PUSH2 0x4A1 JUMPI PUSH2 0x4A0 PUSH2 0xC20 JUMP JUMPDEST JUMPDEST PUSH1 0x4 PUSH0 SWAP1 SLOAD SWAP1 PUSH2 0x100 EXP SWAP1 DIV PUSH1 0xFF AND PUSH1 0x4 DUP2 GT ISZERO PUSH2 0x4C2 JUMPI PUSH2 0x4C1 PUSH2 0xC20 JUMP JUMPDEST JUMPDEST EQ ISZERO JUMPDEST PUSH2 0x504 JUMPI PUSH1 0x40 MLOAD PUSH32 0x8C379A000000000000000000000000000000000000000000000000000000000 DUP2 MSTORE PUSH1 0x4 ADD PUSH2 0x4FB SWAP1 PUSH2 0xDFC JUMP JUMPDEST PUSH1 0x40 MLOAD DUP1 SWAP2 SUB SWAP1 REVERT JUMPDEST PUSH32 0xBBB82D89AE6CB278E0333B446560E83D91184E64026C1C4EE85D8EABA065A96C PUSH1 0x40 MLOAD PUSH1 0x40 MLOAD DUP1 SWAP2 SUB SWAP1 LOG1 DUP3 ISZERO PUSH2 0x53F JUMPI PUSH1 0x1 SWAP2 POP PUSH2 0x56E JUMP JUMPDEST PUSH1 0x2 PUSH1 0x4 PUSH0 PUSH2 0x100 EXP DUP2 SLOAD DUP2 PUSH1 0xFF MUL NOT AND SWAP1 DUP4 PUSH1 0x4 DUP2 GT ISZERO PUSH2 0x564 JUMPI PUSH2 0x563 PUSH2 0xC20 JUMP JUMPDEST JUMPDEST MUL OR SWAP1 SSTORE POP PUSH1 0x1 SWAP2 POP JUMPDEST POP SWAP5 SWAP4 POP POP POP POP JUMP JUMPDEST PUSH1 0x1 PUSH0 SWAP1 SLOAD SWAP1 PUSH2 0x100 EXP SWAP1 DIV PUSH20 0xFFFFFFFFFFFFFFFFFFFFFFFFFFFFFFFFFFFFFFFF AND PUSH20 0xFFFFFFFFFFFFFFFFFFFFFFFFFFFFFFFFFFFFFFFF AND CALLER PUSH20 0xFFFFFFFFFFFFFFFFFFFFFFFFFFFFFFFFFFFFFFFF AND EQ ISZERO DUP1 ISZERO PUSH2 0x621 JUMPI POP PUSH1 0x2 PUSH0 SWAP1 SLOAD SWAP1 PUSH2 0x100 EXP SWAP1 DIV PUSH20 0xFFFFFFFFFFFFFFFFFFFFFFFFFFFFFFFFFFFFFFFF AND PUSH20 0xFFFFFFFFFFFFFFFFFFFFFFFFFFFFFFFFFFFFFFFF AND CALLER PUSH20 0xFFFFFFFFFFFFFFFFFFFFFFFFFFFFFFFFFFFFFFFF AND EQ ISZERO JUMPDEST PUSH2 0x660 JUMPI PUSH1 0x40 MLOAD PUSH32 0x8C379A000000000000000000000000000000000000000000000000000000000 DUP2 MSTORE PUSH1 0x4 ADD PUSH2 0x657 SWAP1 PUSH2 0xE64 JUMP JUMPDEST PUSH1 0x40 MLOAD DUP1 SWAP2 SUB SWAP1 REVERT JUMPDEST DUP1 PUSH1 0x1 PUSH0 PUSH2 0x100 EXP DUP2 SLOAD DUP2 PUSH20 0xFFFFFFFFFFFFFFFFFFFFFFFFFFFFFFFFFFFFFFFF MUL NOT AND SWAP1 DUP4 PUSH20 0xFFFFFFFFFFFFFFFFFFFFFFFFFFFFFFFFFFFFFFFF AND MUL OR SWAP1 SSTORE POP PUSH1 0x1 PUSH1 0x4 PUSH0 PUSH2 0x100 EXP DUP2 SLOAD DUP2 PUSH1 0xFF MUL NOT AND SWAP1 DUP4 PUSH1 0x4 DUP2 GT ISZERO PUSH2 0x6C5 JUMPI PUSH2 0x6C4 PUSH2 0xC20 JUMP JUMPDEST JUMPDEST MUL OR SWAP1 SSTORE POP POP JUMP JUMPDEST PUSH0 DUP1 SLOAD SWAP1 PUSH2 0x100 EXP SWAP1 DIV PUSH20 0xFFFFFFFFFFFFFFFFFFFFFFFFFFFFFFFFFFFFFFFF AND DUP2 JUMP JUMPDEST PUSH1 0x1 PUSH0 SWAP1 SLOAD SWAP1 PUSH2 0x100 EXP SWAP1 DIV PUSH20 0xFFFFFFFFFFFFFFFFFFFFFFFFFFFFFFFFFFFFFFFF AND DUP2 JUMP JUMPDEST PUSH1 0x2 PUSH0 SWAP1 SLOAD SWAP1 PUSH2 0x100 EXP SWAP1 DIV PUSH20 0xFFFFFFFFFFFFFFFFFFFFFFFFFFFFFFFFFFFFFFFF AND DUP2 JUMP JUMPDEST PUSH1 0x4 PUSH0 SWAP1 SLOAD SWAP1 PUSH2 0x100 EXP SWAP1 DIV PUSH1 0xFF AND DUP2 JUMP JUMPDEST PUSH1 0x1 PUSH0 SWAP1 SLOAD SWAP1 PUSH2 0x100 EXP SWAP1 DIV PUSH20 0xFFFFFFFFFFFFFFFFFFFFFFFFFFFFFFFFFFFFFFFF AND PUSH20 0xFFFFFFFFFFFFFFFFFFFFFFFFFFFFFFFFFFFFFFFF AND CALLER PUSH20 0xFFFFFFFFFFFFFFFFFFFFFFFFFFFFFFFFFFFFFFFF AND EQ PUSH2 0x7DB JUMPI PUSH1 0x40 MLOAD PUSH32 0x8C379A000000000000000000000000000000000000000000000000000000000 DUP2 MSTORE PUSH1 0x4 ADD PUSH2 0x7D2 SWAP1 PUSH2 0xD94 JUMP JUMPDEST PUSH1 0x40 MLOAD DUP1 SWAP2 SUB SWAP1 REVERT JUMPDEST PUSH1 0x2 DUP1 PUSH1 0x4 DUP2 GT ISZERO PUSH2 0x7F0 JUMPI PUSH2 0x7EF PUSH2 0xC20 JUMP JUMPDEST JUMPDEST PUSH1 0x4 PUSH0 SWAP1 SLOAD SWAP1 PUSH2 0x100 EXP SWAP1 DIV PUSH1 0xFF AND PUSH1 0x4 DUP2 GT ISZERO PUSH2 0x811 JUMPI PUSH2 0x810 PUSH2 0xC20 JUMP JUMPDEST JUMPDEST EQ DUP1 ISZERO PUSH2 0x850 JUMPI POP PUSH1 0x4 DUP1 DUP2 GT ISZERO PUSH2 0x82C JUMPI PUSH2 0x82B PUSH2 0xC20 JUMP JUMPDEST JUMPDEST PUSH1 0x4 PUSH0 SWAP1 SLOAD SWAP1 PUSH2 0x100 EXP SWAP1 DIV PUSH1 0xFF AND PUSH1 0x4 DUP2 GT ISZERO PUSH2 0x84D JUMPI PUSH2 0x84C PUSH2 0xC20 JUMP JUMPDEST JUMPDEST EQ ISZERO JUMPDEST PUSH2 0x88F JUMPI PUSH1 0x40 MLOAD PUSH32 0x8C379A000000000000000000000000000000000000000000000000000000000 DUP2 MSTORE PUSH1 0x4 ADD PUSH2 0x886 SWAP1 PUSH2 0xDFC JUMP JUMPDEST PUSH1 0x40 MLOAD DUP1 SWAP2 SUB SWAP1 REVERT JUMPDEST PUSH32 0x61E2929AC66C18729E4B0D88C57278B64A58B35BBB02D8561220164D475C5F5D PUSH1 0x40 MLOAD PUSH1 0x40 MLOAD DUP1 SWAP2 SUB SWAP1 LOG1 PUSH1 0x3 PUSH1 0x4 PUSH0 PUSH2 0x100 EXP DUP2 SLOAD DUP2 PUSH1 0xFF MUL NOT AND SWAP1 DUP4 PUSH1 0x4 DUP2 GT ISZERO PUSH2 0x8E0 JUMPI PUSH2 0x8DF PUSH2 0xC20 JUMP JUMPDEST JUMPDEST MUL OR SWAP1 SSTORE POP POP JUMP JUMPDEST PUSH1 0x40 MLOAD DUP1 PUSH1 0x80 ADD PUSH1 0x40 MSTORE DUP1 PUSH0 DUP2 MSTORE PUSH1 0x20 ADD PUSH0 DUP2 MSTORE PUSH1 0x20 ADD PUSH0 DUP2 MSTORE PUSH1 0x20 ADD PUSH0 DUP2 MSTORE POP SWAP1 JUMP JUMPDEST PUSH0 DUP1 REVERT JUMPDEST PUSH0 DUP2 SWAP1 POP SWAP2 SWAP1 POP JUMP JUMPDEST PUSH2 0x922 DUP2 PUSH2 0x910 JUMP JUMPDEST DUP2 EQ PUSH2 0x92C JUMPI PUSH0 DUP1 REVERT JUMPDEST POP JUMP JUMPDEST PUSH0 DUP2 CALLDATALOAD SWAP1 POP PUSH2 0x93D DUP2 PUSH2 0x919 JUMP JUMPDEST SWAP3 SWAP2 POP POP JUMP JUMPDEST PUSH0 PUSH1 0x20 DUP3 DUP5 SUB SLT ISZERO PUSH2 0x958 JUMPI PUSH2 0x957 PUSH2 0x90C JUMP JUMPDEST JUMPDEST PUSH0 PUSH2 0x965 DUP5 DUP3 DUP6 ADD PUSH2 0x92F JUMP JUMPDEST SWAP2 POP POP SWAP3 SWAP2 POP POP JUMP JUMPDEST PUSH2 0x977 DUP2 PUSH2 0x910 JUMP JUMPDEST DUP3 MSTORE POP POP JUMP JUMPDEST PUSH0 PUSH1 0x80 DUP3 ADD SWAP1 POP PUSH2 0x990 PUSH0 DUP4 ADD DUP8 PUSH2 0x96E JUMP JUMPDEST PUSH2 0x99D PUSH1 0x20 DUP4 ADD DUP7 PUSH2 0x96E JUMP JUMPDEST PUSH2 0x9AA PUSH1 0x40 DUP4 ADD DUP6 PUSH2 0x96E JUMP JUMPDEST PUSH2 0x9B7 PUSH1 0x60 DUP4 ADD DUP5 PUSH2 0x96E JUMP JUMPDEST SWAP6 SWAP5 POP POP POP POP POP JUMP JUMPDEST PUSH2 0x9C9 DUP2 PUSH2 0x910 JUMP JUMPDEST DUP3 MSTORE POP POP JUMP JUMPDEST PUSH1 0x80 DUP3 ADD PUSH0 DUP3 ADD MLOAD PUSH2 0x9E3 PUSH0 DUP6 ADD DUP3 PUSH2 0x9C0 JUMP JUMPDEST POP PUSH1 0x20 DUP3 ADD MLOAD PUSH2 0x9F6 PUSH1 0x20 DUP6 ADD DUP3 PUSH2 0x9C0 JUMP JUMPDEST POP PUSH1 0x40 DUP3 ADD MLOAD PUSH2 0xA09 PUSH1 0x40 DUP6 ADD DUP3 PUSH2 0x9C0 JUMP JUMPDEST POP PUSH1 0x60 DUP3 ADD MLOAD PUSH2 0xA1C PUSH1 0x60 DUP6 ADD DUP3 PUSH2 0x9C0 JUMP JUMPDEST POP POP POP POP JUMP JUMPDEST PUSH0 PUSH1 0x80 DUP3 ADD SWAP1 POP PUSH2 0xA35 PUSH0 DUP4 ADD DUP5 PUSH2 0x9CF JUMP JUMPDEST SWAP3 SWAP2 POP POP JUMP JUMPDEST PUSH0 PUSH20 0xFFFFFFFFFFFFFFFFFFFFFFFFFFFFFFFFFFFFFFFF DUP3 AND SWAP1 POP SWAP2 SWAP1 POP JUMP JUMPDEST PUSH0 PUSH2 0xA64 DUP3 PUSH2 0xA3B JUMP JUMPDEST SWAP1 POP SWAP2 SWAP1 POP JUMP JUMPDEST PUSH2 0xA74 DUP2 PUSH2 0xA5A JUMP JUMPDEST DUP2 EQ PUSH2 0xA7E JUMPI PUSH0 DUP1 REVERT JUMPDEST POP JUMP JUMPDEST PUSH0 DUP2 CALLDATALOAD SWAP1 POP PUSH2 0xA8F DUP2 PUSH2 0xA6B JUMP JUMPDEST SWAP3 SWAP2 POP POP JUMP JUMPDEST PUSH0 DUP1 PUSH0 DUP1 PUSH0 PUSH1 0xA0 DUP7 DUP9 SUB SLT ISZERO PUSH2 0xAAE JUMPI PUSH2 0xAAD PUSH2 0x90C JUMP JUMPDEST JUMPDEST PUSH0 PUSH2 0xABB DUP9 DUP3 DUP10 ADD PUSH2 0x92F JUMP JUMPDEST SWAP6 POP POP PUSH1 0x20 PUSH2 0xACC DUP9 DUP3 DUP10 ADD PUSH2 0x92F JUMP JUMPDEST SWAP5 POP POP PUSH1 0x40 PUSH2 0xADD DUP9 DUP3 DUP10 ADD PUSH2 0x92F JUMP JUMPDEST SWAP4 POP POP PUSH1 0x60 PUSH2 0xAEE DUP9 DUP3 DUP10 ADD PUSH2 0x92F JUMP JUMPDEST SWAP3 POP POP PUSH1 0x80 PUSH2 0xAFF DUP9 DUP3 DUP10 ADD PUSH2 0xA81 JUMP JUMPDEST SWAP2 POP POP SWAP3 SWAP6 POP SWAP3 SWAP6 SWAP1 SWAP4 POP JUMP JUMPDEST PUSH0 DUP2 ISZERO ISZERO SWAP1 POP SWAP2 SWAP1 POP JUMP JUMPDEST PUSH2 0xB20 DUP2 PUSH2 0xB0C JUMP JUMPDEST DUP2 EQ PUSH2 0xB2A JUMPI PUSH0 DUP1 REVERT JUMPDEST POP JUMP JUMPDEST PUSH0 DUP2 CALLDATALOAD SWAP1 POP PUSH2 0xB3B DUP2 PUSH2 0xB17 JUMP JUMPDEST SWAP3 SWAP2 POP POP JUMP JUMPDEST PUSH0 DUP1 PUSH0 DUP1 PUSH1 0x80 DUP6 DUP8 SUB SLT ISZERO PUSH2 0xB59 JUMPI PUSH2 0xB58 PUSH2 0x90C JUMP JUMPDEST JUMPDEST PUSH0 PUSH2 0xB66 DUP8 DUP3 DUP9 ADD PUSH2 0x92F JUMP JUMPDEST SWAP5 POP POP PUSH1 0x20 PUSH2 0xB77 DUP8 DUP3 DUP9 ADD PUSH2 0x92F JUMP JUMPDEST SWAP4 POP POP PUSH1 0x40 PUSH2 0xB88 DUP8 DUP3 DUP9 ADD PUSH2 0xA81 JUMP JUMPDEST SWAP3 POP POP PUSH1 0x60 PUSH2 0xB99 DUP8 DUP3 DUP9 ADD PUSH2 0xB2D JUMP JUMPDEST SWAP2 POP POP SWAP3 SWAP6 SWAP2 SWAP5 POP SWAP3 POP JUMP JUMPDEST PUSH2 0xBAE DUP2 PUSH2 0xB0C JUMP JUMPDEST DUP3 MSTORE POP POP JUMP JUMPDEST PUSH0 PUSH1 0x20 DUP3 ADD SWAP1 POP PUSH2 0xBC7 PUSH0 DUP4 ADD DUP5 PUSH2 0xBA5 JUMP JUMPDEST SWAP3 SWAP2 POP POP JUMP JUMPDEST PUSH0 PUSH1 0x20 DUP3 DUP5 SUB SLT ISZERO PUSH2 0xBE2 JUMPI PUSH2 0xBE1 PUSH2 0x90C JUMP JUMPDEST JUMPDEST PUSH0 PUSH2 0xBEF DUP5 DUP3 DUP6 ADD PUSH2 0xA81 JUMP JUMPDEST SWAP2 POP POP SWAP3 SWAP2 POP POP JUMP JUMPDEST PUSH2 0xC01 DUP2 PUSH2 0xA5A JUMP JUMPDEST DUP3 MSTORE POP POP JUMP JUMPDEST PUSH0 PUSH1 0x20 DUP3 ADD SWAP1 POP PUSH2 0xC1A PUSH0 DUP4 ADD DUP5 PUSH2 0xBF8 JUMP JUMPDEST SWAP3 SWAP2 POP POP JUMP JUMPDEST PUSH32 0x4E487B7100000000000000000000000000000000000000000000000000000000 PUSH0 MSTORE PUSH1 0x21 PUSH1 0x4 MSTORE PUSH1 0x24 PUSH0 REVERT JUMPDEST PUSH1 0x5 DUP2 LT PUSH2 0xC5E JUMPI PUSH2 0xC5D PUSH2 0xC20 JUMP JUMPDEST JUMPDEST POP JUMP JUMPDEST PUSH0 DUP2 SWAP1 POP PUSH2 0xC6E DUP3 PUSH2 0xC4D JUMP JUMPDEST SWAP2 SWAP1 POP JUMP JUMPDEST PUSH0 PUSH2 0xC7D DUP3 PUSH2 0xC61 JUMP JUMPDEST SWAP1 POP SWAP2 SWAP1 POP JUMP JUMPDEST PUSH2 0xC8D DUP2 PUSH2 0xC73 JUMP JUMPDEST DUP3 MSTORE POP POP JUMP JUMPDEST PUSH0 PUSH1 0x20 DUP3 ADD SWAP1 POP PUSH2 0xCA6 PUSH0 DUP4 ADD DUP5 PUSH2 0xC84 JUMP JUMPDEST SWAP3 SWAP2 POP POP JUMP JUMPDEST PUSH0 DUP3 DUP3 MSTORE PUSH1 0x20 DUP3 ADD SWAP1 POP SWAP3 SWAP2 POP POP JUMP JUMPDEST PUSH32 0x4F6E6C7920484F53504954414C2063616E2063616C6C20746869732E00000000 PUSH0 DUP3 ADD MSTORE POP JUMP JUMPDEST PUSH0 PUSH2 0xCF0 PUSH1 0x1C DUP4 PUSH2 0xCAC JUMP JUMPDEST SWAP2 POP PUSH2 0xCFB DUP3 PUSH2 0xCBC JUMP JUMPDEST PUSH1 0x20 DUP3 ADD SWAP1 POP SWAP2 SWAP1 POP JUMP JUMPDEST PUSH0 PUSH1 0x20 DUP3 ADD SWAP1 POP DUP2 DUP2 SUB PUSH0 DUP4 ADD MSTORE PUSH2 0xD1D DUP2 PUSH2 0xCE4 JUMP JUMPDEST SWAP1 POP SWAP2 SWAP1 POP JUMP JUMPDEST PUSH32 0x4F6E6C7920494E535552414E43452050524F56494445522063616E2063616C6C PUSH0 DUP3 ADD MSTORE PUSH32 0x20746869732E0000000000000000000000000000000000000000000000000000 PUSH1 0x20 DUP3 ADD MSTORE POP JUMP JUMPDEST PUSH0 PUSH2 0xD7E PUSH1 0x26 DUP4 PUSH2 0xCAC JUMP JUMPDEST SWAP2 POP PUSH2 0xD89 DUP3 PUSH2 0xD24 JUMP JUMPDEST PUSH1 0x40 DUP3 ADD SWAP1 POP SWAP2 SWAP1 POP JUMP JUMPDEST PUSH0 PUSH1 0x20 DUP3 ADD SWAP1 POP DUP2 DUP2 SUB PUSH0 DUP4 ADD MSTORE PUSH2 0xDAB DUP2 PUSH2 0xD72 JUMP JUMPDEST SWAP1 POP SWAP2 SWAP1 POP JUMP JUMPDEST PUSH32 0x496E76616C6964206F72204F7574206F662053746174652E0000000000000000 PUSH0 DUP3 ADD MSTORE POP JUMP JUMPDEST PUSH0 PUSH2 0xDE6 PUSH1 0x18 DUP4 PUSH2 0xCAC JUMP JUMPDEST SWAP2 POP PUSH2 0xDF1 DUP3 PUSH2 0xDB2 JUMP JUMPDEST PUSH1 0x20 DUP3 ADD SWAP1 POP SWAP2 SWAP1 POP JUMP JUMPDEST PUSH0 PUSH1 0x20 DUP3 ADD SWAP1 POP DUP2 DUP2 SUB PUSH0 DUP4 ADD MSTORE PUSH2 0xE13 DUP2 PUSH2 0xDDA JUMP JUMPDEST SWAP1 POP SWAP2 SWAP1 POP JUMP JUMPDEST PUSH32 0x4F6E6C7920504554204F574E45522063616E2063616C6C20746869732E000000 PUSH0 DUP3 ADD MSTORE POP JUMP JUMPDEST PUSH0 PUSH2 0xE4E PUSH1 0x1D DUP4 PUSH2 0xCAC JUMP JUMPDEST SWAP2 POP PUSH2 0xE59 DUP3 PUSH2 0xE1A JUMP JUMPDEST PUSH1 0x20 DUP3 ADD SWAP1 POP SWAP2 SWAP1 POP JUMP JUMPDEST PUSH0 PUSH1 0x20 DUP3 ADD SWAP1 POP DUP2 DUP2 SUB PUSH0 DUP4 ADD MSTORE PUSH2 0xE7B DUP2 PUSH2 0xE42 JUMP JUMPDEST SWAP1 POP SWAP2 SWAP1 POP JUMP INVALID LOG2 PUSH5 0x6970667358 0x22 SLT KECCAK256 PC 0x2D 0xD7 CODESIZE LOG3 0xC5 PUSH21 0xAFA301F05BCBC366E65C32307E2F91CFC874734298 MUL PUSH27 0xA9964736F6C634300081400330000000000000000000000000000 "
		},
		"gasEstimates": {
			"creation": {
				"codeDepositCost": "753600",
				"executionCost": "25049",
				"totalCost": "778649"
			},
			"external": {
				"getMedicalRecord()": "infinite",
				"hospital()": "2552",
				"insuranceProvider()": "2530",
				"newMedicalRecord(uint256,uint256,uint256,uint256,address)": "infinite",
				"owner()": "2505",
				"record(uint256)": "infinite",
				"reimbursement()": "31899",
				"setInsurance(address)": "53442",
				"state()": "2620",
				"verify(uint256,uint256,address,bool)": "infinite"
			}
		},
		"methodIdentifiers": {
			"getMedicalRecord()": "36a6badd",
			"hospital()": "aa2fedde",
			"insuranceProvider()": "9955f67c",
			"newMedicalRecord(uint256,uint256,uint256,uint256,address)": "398933ca",
			"owner()": "8da5cb5b",
			"record(uint256)": "2c16cd8a",
			"reimbursement()": "d3f0c8bb",
			"setInsurance(address)": "6cd7751f",
			"state()": "c19d93fb",
			"verify(uint256,uint256,address,bool)": "4f96d860"
		}
	},
	"abi": [
		{
			"inputs": [],
			"stateMutability": "nonpayable",
			"type": "constructor"
		},
		{
			"anonymous": false,
			"inputs": [],
			"name": "reimbursed",
			"type": "event"
		},
		{
			"anonymous": false,
			"inputs": [],
			"name": "sent",
			"type": "event"
		},
		{
			"anonymous": false,
			"inputs": [],
			"name": "verified",
			"type": "event"
		},
		{
			"anonymous": false,
			"inputs": [],
			"name": "visited",
			"type": "event"
		},
		{
			"inputs": [],
			"name": "getMedicalRecord",
			"outputs": [
				{
					"components": [
						{
							"internalType": "uint256",
							"name": "ownerId",
							"type": "uint256"
						},
						{
							"internalType": "uint256",
							"name": "petId",
							"type": "uint256"
						},
						{
							"internalType": "uint256",
							"name": "billAmount",
							"type": "uint256"
						},
						{
							"internalType": "uint256",
							"name": "recordId",
							"type": "uint256"
						}
					],
					"internalType": "struct PawPrints.MedicalRecord",
					"name": "",
					"type": "tuple"
				}
			],
			"stateMutability": "view",
			"type": "function"
		},
		{
			"inputs": [],
			"name": "hospital",
			"outputs": [
				{
					"internalType": "address",
					"name": "",
					"type": "address"
				}
			],
			"stateMutability": "view",
			"type": "function"
		},
		{
			"inputs": [],
			"name": "insuranceProvider",
			"outputs": [
				{
					"internalType": "address",
					"name": "",
					"type": "address"
				}
			],
			"stateMutability": "view",
			"type": "function"
		},
		{
			"inputs": [
				{
					"internalType": "uint256",
					"name": "_ownerId",
					"type": "uint256"
				},
				{
					"internalType": "uint256",
					"name": "_petId",
					"type": "uint256"
				},
				{
					"internalType": "uint256",
					"name": "_billAmount",
					"type": "uint256"
				},
				{
					"internalType": "uint256",
					"name": "_recordId",
					"type": "uint256"
				},
				{
					"internalType": "address",
					"name": "ownerAddress",
					"type": "address"
				}
			],
			"name": "newMedicalRecord",
			"outputs": [],
			"stateMutability": "nonpayable",
			"type": "function"
		},
		{
			"inputs": [],
			"name": "owner",
			"outputs": [
				{
					"internalType": "address",
					"name": "",
					"type": "address"
				}
			],
			"stateMutability": "view",
			"type": "function"
		},
		{
			"inputs": [
				{
					"internalType": "uint256",
					"name": "",
					"type": "uint256"
				}
			],
			"name": "record",
			"outputs": [
				{
					"internalType": "uint256",
					"name": "ownerId",
					"type": "uint256"
				},
				{
					"internalType": "uint256",
					"name": "petId",
					"type": "uint256"
				},
				{
					"internalType": "uint256",
					"name": "billAmount",
					"type": "uint256"
				},
				{
					"internalType": "uint256",
					"name": "recordId",
					"type": "uint256"
				}
			],
			"stateMutability": "view",
			"type": "function"
		},
		{
			"inputs": [],
			"name": "reimbursement",
			"outputs": [],
			"stateMutability": "nonpayable",
			"type": "function"
		},
		{
			"inputs": [
				{
					"internalType": "address",
					"name": "insuranceAddress",
					"type": "address"
				}
			],
			"name": "setInsurance",
			"outputs": [],
			"stateMutability": "nonpayable",
			"type": "function"
		},
		{
			"inputs": [],
			"name": "state",
			"outputs": [
				{
					"internalType": "enum PawPrints.State",
					"name": "",
					"type": "uint8"
				}
			],
			"stateMutability": "view",
			"type": "function"
		},
		{
			"inputs": [
				{
					"internalType": "uint256",
					"name": "_ownerId",
					"type": "uint256"
				},
				{
					"internalType": "uint256",
					"name": "_petId",
					"type": "uint256"
				},
				{
					"internalType": "address",
					"name": "insuranceAddress",
					"type": "address"
				},
				{
					"internalType": "bool",
					"name": "overR",
					"type": "bool"
				}
			],
			"name": "verify",
			"outputs": [
				{
					"internalType": "bool",
					"name": "",
					"type": "bool"
				}
			],
			"stateMutability": "nonpayable",
			"type": "function"
		}
	]
}