{
  "contractName": "insurance",
  "abi": [
    {
      "inputs": [],
      "stateMutability": "nonpayable",
      "type": "constructor"
    },
    {
      "inputs": [],
      "name": "provider",
      "outputs": [
        {
          "internalType": "address",
          "name": "",
          "type": "address"
        }
      ],
      "stateMutability": "view",
      "type": "function"
    },
    {
      "inputs": [
        {
          "internalType": "uint256",
          "name": "_duration",
          "type": "uint256"
        }
      ],
      "name": "updateStatus",
      "outputs": [
        {
          "internalType": "address",
          "name": "",
          "type": "address"
        }
      ],
      "stateMutability": "nonpayable",
      "type": "function"
    },
    {
      "inputs": [],
      "name": "checkExpired",
      "outputs": [
        {
          "internalType": "bool",
          "name": "",
          "type": "bool"
        }
      ],
      "stateMutability": "nonpayable",
      "type": "function"
    }
  ],
  "bytecode": "0x608060405234801561001057600080fd5b5033600160006101000a81548173ffffffffffffffffffffffffffffffffffffffff021916908373ffffffffffffffffffffffffffffffffffffffff16021790555061053b806100616000396000f3fe608060405234801561001057600080fd5b50600436106100415760003560e01c8063085d48831461004657806325ace2a714610064578063d61e720114610082575b600080fd5b61004e6100b2565b60405161005b91906102da565b60405180910390f35b61006c6100d8565b6040516100799190610310565b60405180910390f35b61009c60048036038101906100979190610366565b6101b4565b6040516100a991906102da565b60405180910390f35b600160009054906101000a900473ffffffffffffffffffffffffffffffffffffffff1681565b60008054600260003073ffffffffffffffffffffffffffffffffffffffff1673ffffffffffffffffffffffffffffffffffffffff1681526020019081526020016000205461012691906103c2565b421015610168576040517f08c379a000000000000000000000000000000000000000000000000000000000815260040161015f90610479565b60405180910390fd5b6000600260003073ffffffffffffffffffffffffffffffffffffffff1673ffffffffffffffffffffffffffffffffffffffff168152602001908152602001600020819055506001905090565b6000600160009054906101000a900473ffffffffffffffffffffffffffffffffffffffff1673ffffffffffffffffffffffffffffffffffffffff163373ffffffffffffffffffffffffffffffffffffffff1614610246576040517f08c379a000000000000000000000000000000000000000000000000000000000815260040161023d906104e5565b60405180910390fd5b8160008190555042600260003073ffffffffffffffffffffffffffffffffffffffff1673ffffffffffffffffffffffffffffffffffffffff16815260200190815260200160002081905550309050919050565b600073ffffffffffffffffffffffffffffffffffffffff82169050919050565b60006102c482610299565b9050919050565b6102d4816102b9565b82525050565b60006020820190506102ef60008301846102cb565b92915050565b60008115159050919050565b61030a816102f5565b82525050565b60006020820190506103256000830184610301565b92915050565b600080fd5b6000819050919050565b61034381610330565b811461034e57600080fd5b50565b6000813590506103608161033a565b92915050565b60006020828403121561037c5761037b61032b565b5b600061038a84828501610351565b91505092915050565b7f4e487b7100000000000000000000000000000000000000000000000000000000600052601160045260246000fd5b60006103cd82610330565b91506103d883610330565b92508282019050808211156103f0576103ef610393565b5b92915050565b600082825260208201905092915050565b7f436865636b207061737365642c20696e737572616e6365204e4f54206578706960008201527f7265640000000000000000000000000000000000000000000000000000000000602082015250565b60006104636023836103f6565b915061046e82610407565b604082019050919050565b6000602082019050818103600083015261049281610456565b9050919050565b7f6f6e6c792053454c4c45522063616e2063616c6c20746869732e000000000000600082015250565b60006104cf601a836103f6565b91506104da82610499565b602082019050919050565b600060208201905081810360008301526104fe816104c2565b905091905056fea26469706673582212208d12a9920e14ee8ba2e32a9b274878e6e874357a571b4e141d941717a87f41cb64736f6c63430008130033",
  "immutableReferences": {},
  "source": "// SPDX-License-Identifier: GPL-3.0-or-later\r\npragma solidity ^0.8.0;\r\n\r\ncontract insurance {\r\n    uint duration;\r\n\r\n    address public provider;\r\n    \r\n    constructor (){\r\n        provider = msg.sender; \r\n    }\r\n\r\n    modifier onlyProvider(){\r\n        require(\r\n            msg.sender == provider,\r\n            \"only SELLER can call this.\"\r\n        );\r\n        _;\r\n    }\r\n\r\n    mapping(address => uint) insuranceRecord;\r\n\r\n    function updateStatus (uint _duration) \r\n    public onlyProvider returns (address){\r\n        duration = _duration;\r\n        insuranceRecord[address(this)] = block.timestamp;\r\n        return address(this);\r\n    }\r\n\r\n\r\n    // If not expired, using require to return without spending gas\r\n    // If expired, it will set the duration to 0\r\n    function checkExpired() external returns(bool) {\r\n        require(block.timestamp >= (insuranceRecord[address(this)] + duration), \"Check passed, insurance NOT expired\");\r\n\r\n        // If expired\r\n        insuranceRecord[address(this)] = 0;\r\n        return true;\r\n    }\r\n}",
  "sourcePath": "C:\\Users\\Aaron\\Desktop\\truffleC\\contracts\\insurance.sol",
  "compiler": {
    "name": "solc",
    "version": "0.8.19+commit.7dd6d404.Emscripten.clang"
  },
  "schemaVersion": "3.4.13",
  "updatedAt": "2023-05-30T07:26:50.549Z",
  "devdoc": {
    "kind": "dev",
    "methods": {},
    "version": 1
  },
  "userdoc": {
    "kind": "user",
    "methods": {},
    "version": 1
  }
}