{
  "contractName": "PawPrints",
  "abi": [
    {
      "inputs": [],
      "stateMutability": "nonpayable",
      "type": "constructor"
    },
    {
      "anonymous": false,
      "inputs": [],
      "name": "reimbursed",
      "type": "event"
    },
    {
      "anonymous": false,
      "inputs": [],
      "name": "sent",
      "type": "event"
    },
    {
      "anonymous": false,
      "inputs": [],
      "name": "verified",
      "type": "event"
    },
    {
      "anonymous": false,
      "inputs": [],
      "name": "visited",
      "type": "event"
    },
    {
      "inputs": [],
      "name": "hospital",
      "outputs": [
        {
          "internalType": "address",
          "name": "",
          "type": "address"
        }
      ],
      "stateMutability": "view",
      "type": "function"
    },
    {
      "inputs": [],
      "name": "insuranceProvider",
      "outputs": [
        {
          "internalType": "address",
          "name": "",
          "type": "address"
        }
      ],
      "stateMutability": "view",
      "type": "function"
    },
    {
      "inputs": [],
      "name": "owner",
      "outputs": [
        {
          "internalType": "address",
          "name": "",
          "type": "address"
        }
      ],
      "stateMutability": "view",
      "type": "function"
    },
    {
      "inputs": [
        {
          "internalType": "uint256",
          "name": "",
          "type": "uint256"
        }
      ],
      "name": "record",
      "outputs": [
        {
          "internalType": "uint256",
          "name": "ownerId",
          "type": "uint256"
        },
        {
          "internalType": "uint256",
          "name": "petId",
          "type": "uint256"
        },
        {
          "internalType": "uint256",
          "name": "billAmount",
          "type": "uint256"
        },
        {
          "internalType": "uint256",
          "name": "recordId",
          "type": "uint256"
        }
      ],
      "stateMutability": "view",
      "type": "function"
    },
    {
      "inputs": [],
      "name": "state",
      "outputs": [
        {
          "internalType": "enum PawPrints.State",
          "name": "",
          "type": "uint8"
        }
      ],
      "stateMutability": "view",
      "type": "function"
    },
    {
      "inputs": [
        {
          "internalType": "uint256",
          "name": "_ownerId",
          "type": "uint256"
        },
        {
          "internalType": "uint256",
          "name": "_petId",
          "type": "uint256"
        },
        {
          "internalType": "uint256",
          "name": "_billAmount",
          "type": "uint256"
        },
        {
          "internalType": "uint256",
          "name": "_recordId",
          "type": "uint256"
        },
        {
          "internalType": "address",
          "name": "ownerAddress",
          "type": "address"
        }
      ],
      "name": "newMedicalRecord",
      "outputs": [],
      "stateMutability": "nonpayable",
      "type": "function"
    },
    {
      "inputs": [
        {
          "internalType": "address",
          "name": "insuranceAddress",
          "type": "address"
        }
      ],
      "name": "setInsurance",
      "outputs": [],
      "stateMutability": "nonpayable",
      "type": "function"
    },
    {
      "inputs": [
        {
          "internalType": "address",
          "name": "insuranceAddress",
          "type": "address"
        },
        {
          "internalType": "bool",
          "name": "validHospital",
          "type": "bool"
        },
        {
          "internalType": "bool",
          "name": "overR",
          "type": "bool"
        }
      ],
      "name": "verify",
      "outputs": [
        {
          "internalType": "bool",
          "name": "",
          "type": "bool"
        }
      ],
      "stateMutability": "nonpayable",
      "type": "function"
    },
    {
      "inputs": [],
      "name": "getState",
      "outputs": [
        {
          "internalType": "enum PawPrints.State",
          "name": "",
          "type": "uint8"
        }
      ],
      "stateMutability": "view",
      "type": "function"
    },
    {
      "inputs": [],
      "name": "getMedicalRecord",
      "outputs": [
        {
          "components": [
            {
              "internalType": "uint256",
              "name": "ownerId",
              "type": "uint256"
            },
            {
              "internalType": "uint256",
              "name": "petId",
              "type": "uint256"
            },
            {
              "internalType": "uint256",
              "name": "billAmount",
              "type": "uint256"
            },
            {
              "internalType": "uint256",
              "name": "recordId",
              "type": "uint256"
            }
          ],
          "internalType": "struct PawPrints.MedicalRecord",
          "name": "",
          "type": "tuple"
        }
      ],
      "stateMutability": "view",
      "type": "function"
    },
    {
      "inputs": [],
      "name": "reimbursement",
      "outputs": [],
      "stateMutability": "nonpayable",
      "type": "function"
    }
  ],
  "bytecode": "0x608060405234801561001057600080fd5b5033600260006101000a81548173ffffffffffffffffffffffffffffffffffffffff021916908373ffffffffffffffffffffffffffffffffffffffff16021790555061103e806100616000396000f3fe608060405234801561001057600080fd5b50600436106100a95760003560e01c80638c8b4112116100715780638c8b4112146101555780638da5cb5b146101855780639955f67c146101a3578063aa2fedde146101c1578063c19d93fb146101df578063d3f0c8bb146101fd576100a9565b80631865c57d146100ae5780632c16cd8a146100cc57806336a6badd146100ff578063398933ca1461011d5780636cd7751f14610139575b600080fd5b6100b6610207565b6040516100c39190610aa4565b60405180910390f35b6100e660048036038101906100e19190610afa565b61021e565b6040516100f69493929190610b36565b60405180910390f35b61010761024e565b6040516101149190610bdf565b60405180910390f35b61013760048036038101906101329190610c58565b6102a8565b005b610153600480360381019061014e9190610cd3565b610413565b005b61016f600480360381019061016a9190610d38565b61056d565b60405161017c9190610d9a565b60405180910390f35b61018d6107e2565b60405161019a9190610dc4565b60405180910390f35b6101ab610806565b6040516101b89190610dc4565b60405180910390f35b6101c961082c565b6040516101d69190610dc4565b60405180910390f35b6101e7610852565b6040516101f49190610aa4565b60405180910390f35b610205610865565b005b6000600460009054906101000a900460ff16905090565b60036020528060005260406000206000915090508060000154908060010154908060020154908060030154905084565b610256610a05565b6000600360006001815260200190815260200160002060405180608001604052908160008201548152602001600182015481526020016002820154815260200160038201548152505090508091505090565b600260009054906101000a900473ffffffffffffffffffffffffffffffffffffffff1673ffffffffffffffffffffffffffffffffffffffff163373ffffffffffffffffffffffffffffffffffffffff1614610338576040517f08c379a000000000000000000000000000000000000000000000000000000000815260040161032f90610e3c565b60405180910390fd5b7f8a4335bd3facea1bfaf95771e37917d7f43ff5f64d26d19f43e8a1c931ddeb0160405160405180910390a1806000806101000a81548173ffffffffffffffffffffffffffffffffffffffff021916908373ffffffffffffffffffffffffffffffffffffffff1602179055506000600360006001815260200190815260200160002090508581600001819055508481600101819055508381600201819055508281600301819055506000600460006101000a81548160ff0219169083600481111561040657610405610a2d565b5b0217905550505050505050565b600160009054906101000a900473ffffffffffffffffffffffffffffffffffffffff1673ffffffffffffffffffffffffffffffffffffffff163373ffffffffffffffffffffffffffffffffffffffff16141580156104bf5750600260009054906101000a900473ffffffffffffffffffffffffffffffffffffffff1673ffffffffffffffffffffffffffffffffffffffff163373ffffffffffffffffffffffffffffffffffffffff1614155b6104fe576040517f08c379a00000000000000000000000000000000000000000000000000000000081526004016104f590610ea8565b60405180910390fd5b80600160006101000a81548173ffffffffffffffffffffffffffffffffffffffff021916908373ffffffffffffffffffffffffffffffffffffffff1602179055506001600460006101000a81548160ff0219169083600481111561056557610564610a2d565b5b021790555050565b6000600160009054906101000a900473ffffffffffffffffffffffffffffffffffffffff1673ffffffffffffffffffffffffffffffffffffffff163373ffffffffffffffffffffffffffffffffffffffff16146105ff576040517f08c379a00000000000000000000000000000000000000000000000000000000081526004016105f690610f3a565b60405180910390fd5b600180600481111561061457610613610a2d565b5b600460009054906101000a900460ff16600481111561063657610635610a2d565b5b148015610676575060048081111561065157610650610a2d565b5b600460009054906101000a900460ff16600481111561067357610672610a2d565b5b14155b6106b5576040517f08c379a00000000000000000000000000000000000000000000000000000000081526004016106ac90610fa6565b60405180910390fd5b7fbbb82d89ae6cb278e0333b446560e83d91184e64026c1c4ee85d8eaba065a96c60405160405180910390a1821561071b576002600460006101000a81548160ff0219169083600481111561070d5761070c610a2d565b5b0217905550600191506107da565b60008573ffffffffffffffffffffffffffffffffffffffff166325ace2a76040518163ffffffff1660e01b81526004016020604051808303816000875af115801561076a573d6000803e3d6000fd5b505050506040513d601f19601f8201168201806040525081019061078e9190610fdb565b905080801561079a5750845b156107d4576002600460006101000a81548160ff021916908360048111156107c5576107c4610a2d565b5b021790555060019250506107da565b60009250505b509392505050565b60008054906101000a900473ffffffffffffffffffffffffffffffffffffffff1681565b600160009054906101000a900473ffffffffffffffffffffffffffffffffffffffff1681565b600260009054906101000a900473ffffffffffffffffffffffffffffffffffffffff1681565b600460009054906101000a900460ff1681565b600160009054906101000a900473ffffffffffffffffffffffffffffffffffffffff1673ffffffffffffffffffffffffffffffffffffffff163373ffffffffffffffffffffffffffffffffffffffff16146108f5576040517f08c379a00000000000000000000000000000000000000000000000000000000081526004016108ec90610f3a565b60405180910390fd5b600280600481111561090a57610909610a2d565b5b600460009054906101000a900460ff16600481111561092c5761092b610a2d565b5b14801561096c575060048081111561094757610946610a2d565b5b600460009054906101000a900460ff16600481111561096957610968610a2d565b5b14155b6109ab576040517f08c379a00000000000000000000000000000000000000000000000000000000081526004016109a290610fa6565b60405180910390fd5b7f61e2929ac66c18729e4b0d88c57278b64a58b35bbb02d8561220164d475c5f5d60405160405180910390a16003600460006101000a81548160ff021916908360048111156109fd576109fc610a2d565b5b021790555050565b6040518060800160405280600081526020016000815260200160008152602001600081525090565b7f4e487b7100000000000000000000000000000000000000000000000000000000600052602160045260246000fd5b60058110610a6d57610a6c610a2d565b5b50565b6000819050610a7e82610a5c565b919050565b6000610a8e82610a70565b9050919050565b610a9e81610a83565b82525050565b6000602082019050610ab96000830184610a95565b92915050565b600080fd5b6000819050919050565b610ad781610ac4565b8114610ae257600080fd5b50565b600081359050610af481610ace565b92915050565b600060208284031215610b1057610b0f610abf565b5b6000610b1e84828501610ae5565b91505092915050565b610b3081610ac4565b82525050565b6000608082019050610b4b6000830187610b27565b610b586020830186610b27565b610b656040830185610b27565b610b726060830184610b27565b95945050505050565b610b8481610ac4565b82525050565b608082016000820151610ba06000850182610b7b565b506020820151610bb36020850182610b7b565b506040820151610bc66040850182610b7b565b506060820151610bd96060850182610b7b565b50505050565b6000608082019050610bf46000830184610b8a565b92915050565b600073ffffffffffffffffffffffffffffffffffffffff82169050919050565b6000610c2582610bfa565b9050919050565b610c3581610c1a565b8114610c4057600080fd5b50565b600081359050610c5281610c2c565b92915050565b600080600080600060a08688031215610c7457610c73610abf565b5b6000610c8288828901610ae5565b9550506020610c9388828901610ae5565b9450506040610ca488828901610ae5565b9350506060610cb588828901610ae5565b9250506080610cc688828901610c43565b9150509295509295909350565b600060208284031215610ce957610ce8610abf565b5b6000610cf784828501610c43565b91505092915050565b60008115159050919050565b610d1581610d00565b8114610d2057600080fd5b50565b600081359050610d3281610d0c565b92915050565b600080600060608486031215610d5157610d50610abf565b5b6000610d5f86828701610c43565b9350506020610d7086828701610d23565b9250506040610d8186828701610d23565b9150509250925092565b610d9481610d00565b82525050565b6000602082019050610daf6000830184610d8b565b92915050565b610dbe81610c1a565b82525050565b6000602082019050610dd96000830184610db5565b92915050565b600082825260208201905092915050565b7f4f6e6c7920484f53504954414c2063616e2063616c6c20746869732e00000000600082015250565b6000610e26601c83610ddf565b9150610e3182610df0565b602082019050919050565b60006020820190508181036000830152610e5581610e19565b9050919050565b7f4f6e6c7920504554204f574e45522063616e2063616c6c20746869732e000000600082015250565b6000610e92601d83610ddf565b9150610e9d82610e5c565b602082019050919050565b60006020820190508181036000830152610ec181610e85565b9050919050565b7f4f6e6c7920494e535552414e43452050524f56494445522063616e2063616c6c60008201527f20746869732e0000000000000000000000000000000000000000000000000000602082015250565b6000610f24602683610ddf565b9150610f2f82610ec8565b604082019050919050565b60006020820190508181036000830152610f5381610f17565b9050919050565b7f496e76616c6964206f72204f7574206f662053746174652e0000000000000000600082015250565b6000610f90601883610ddf565b9150610f9b82610f5a565b602082019050919050565b60006020820190508181036000830152610fbf81610f83565b9050919050565b600081519050610fd581610d0c565b92915050565b600060208284031215610ff157610ff0610abf565b5b6000610fff84828501610fc6565b9150509291505056fea2646970667358221220af30d840721107331cc3021bc0fc05a01c4656ab9555e6d4fbf3a5439ee3338a64736f6c63430008130033",
  "immutableReferences": {},
  "source": "// SPDX-License-Identifier: GPL-3.0-or-later\r\npragma solidity ^0.8.0;\r\nimport \"./insurance.sol\";\r\n\r\ncontract PawPrints {\r\n    \r\n    address public owner;\r\n    address public insuranceProvider;\r\n    address public hospital; //\r\n\r\n    struct MedicalRecord {\r\n        uint ownerId;\r\n        uint petId;\r\n        uint billAmount;\r\n        uint recordId;\r\n    }\r\n\r\n    mapping(uint256 => MedicalRecord) public record;\r\n\r\n    event visited();\r\n    event verified();\r\n    event sent();\r\n    event reimbursed();\r\n\r\n    enum State {visitedHospital, insuranceProvided, insuranceVerified, reimbursed, invalid}\r\n    State public state;\r\n\r\n\r\n    constructor() {\r\n        hospital = msg.sender;\r\n    }\r\n\r\n    modifier inState(State _state) {\r\n        require(\r\n            state == _state && state!= State.invalid,\r\n            \"Invalid or Out of State.\"\r\n        );\r\n        _;\r\n    }\r\n\r\n    modifier onlyOwner(){\r\n        require(\r\n            msg.sender != insuranceProvider && msg.sender != hospital,\r\n            \"Only PET OWNER can call this.\"\r\n        );\r\n        _;\r\n    }\r\n    \r\n    modifier onlyHospital(){\r\n        require(\r\n            msg.sender == hospital,\r\n            \"Only HOSPITAL can call this.\"\r\n        ); \r\n        _;\r\n    }\r\n    \r\n    modifier onlyInsuranceProvider(){\r\n        require(\r\n            msg.sender == insuranceProvider,\r\n            \"Only INSURANCE PROVIDER can call this.\"\r\n        );\r\n        _;\r\n    }\r\n    \r\n    // Hospital creates new medical record\r\n    // \r\n    function newMedicalRecord (uint _ownerId, uint _petId, uint _billAmount, uint _recordId, address ownerAddress) \r\n        public onlyHospital\r\n    {\r\n        emit visited();\r\n        \r\n        owner = ownerAddress;\r\n\r\n        MedicalRecord storage newRecord = record[1];\r\n        newRecord.ownerId = _ownerId;\r\n        newRecord.petId = _petId;\r\n        newRecord.billAmount = _billAmount;\r\n        newRecord.recordId = _recordId;\r\n\r\n        state = State.visitedHospital;\r\n    }\r\n\r\n    function setInsurance (address insuranceAddress) \r\n    public onlyOwner \r\n    {\r\n        insuranceProvider = insuranceAddress;\r\n\r\n        state = State.insuranceProvided;\r\n    }\r\n\r\n\r\n    // Insurance Provider verifies Pet's insurance and whether owner really go to hospital\r\n    function verify (address insuranceAddress, bool validHospital, bool overR)\r\n        external onlyInsuranceProvider inState(State.insuranceProvided) returns(bool)\r\n    {\r\n        emit verified();\r\n        // hospital  insurance \r\n        if (overR){\r\n            state = State.insuranceVerified;\r\n            return true;\r\n        }    \r\n        \r\n        bool manualCheckPass = insurance(insuranceAddress).checkExpired();\r\n        if(manualCheckPass && validHospital){\r\n            state = State.insuranceVerified;\r\n            return true;\r\n        }\r\n        return false;\r\n    }\r\n\r\n    function getState() public view returns (State) {\r\n        return state;\r\n    } \r\n\r\n    function getMedicalRecord() public view returns (MedicalRecord memory) {\r\n        MedicalRecord memory user = record[1];\r\n        return user;\r\n    }\r\n\r\n    // Insurance company return money back to pet owner\r\n    function reimbursement () \r\n        public \r\n        onlyInsuranceProvider\r\n        inState(State.insuranceVerified)\r\n\r\n    {\r\n        emit reimbursed();\r\n\r\n        state = State.reimbursed;\r\n    }\r\n}",
  "sourcePath": "C:\\Users\\Aaron\\Desktop\\truffleC\\contracts\\PawPrints.sol",
  "compiler": {
    "name": "solc",
    "version": "0.8.19+commit.7dd6d404.Emscripten.clang"
  },
  "schemaVersion": "3.4.13",
  "updatedAt": "2023-05-28T23:08:58.424Z",
  "devdoc": {
    "kind": "dev",
    "methods": {},
    "version": 1
  },
  "userdoc": {
    "kind": "user",
    "methods": {},
    "version": 1
  }
}