{
  "contractName": "PawPrints",
  "abi": [
    {
      "inputs": [],
      "stateMutability": "nonpayable",
      "type": "constructor"
    },
    {
      "inputs": [],
      "name": "hospital",
      "outputs": [
        {
          "internalType": "address",
          "name": "",
          "type": "address"
        }
      ],
      "stateMutability": "view",
      "type": "function"
    },
    {
      "inputs": [],
      "name": "insuranceProvider",
      "outputs": [
        {
          "internalType": "address",
          "name": "",
          "type": "address"
        }
      ],
      "stateMutability": "view",
      "type": "function"
    },
    {
      "inputs": [],
      "name": "owner",
      "outputs": [
        {
          "internalType": "address",
          "name": "",
          "type": "address"
        }
      ],
      "stateMutability": "view",
      "type": "function"
    },
    {
      "inputs": [
        {
          "internalType": "uint256",
          "name": "",
          "type": "uint256"
        }
      ],
      "name": "record",
      "outputs": [
        {
          "internalType": "uint256",
          "name": "ownerId",
          "type": "uint256"
        },
        {
          "internalType": "uint256",
          "name": "petId",
          "type": "uint256"
        },
        {
          "internalType": "uint256",
          "name": "billAmount",
          "type": "uint256"
        },
        {
          "internalType": "uint256",
          "name": "recordId",
          "type": "uint256"
        },
        {
          "internalType": "uint256",
          "name": "hashRecord",
          "type": "uint256"
        }
      ],
      "stateMutability": "view",
      "type": "function"
    },
    {
      "inputs": [],
      "name": "state",
      "outputs": [
        {
          "internalType": "enum PawPrints.State",
          "name": "",
          "type": "uint8"
        }
      ],
      "stateMutability": "view",
      "type": "function"
    },
    {
      "inputs": [
        {
          "internalType": "uint256",
          "name": "_ownerId",
          "type": "uint256"
        },
        {
          "internalType": "uint256",
          "name": "_petId",
          "type": "uint256"
        },
        {
          "internalType": "uint256",
          "name": "_billAmount",
          "type": "uint256"
        },
        {
          "internalType": "uint256",
          "name": "_recordId",
          "type": "uint256"
        },
        {
          "internalType": "address",
          "name": "ownerAddress",
          "type": "address"
        },
        {
          "internalType": "uint256",
          "name": "_hashRecord",
          "type": "uint256"
        }
      ],
      "name": "newMedicalRecord",
      "outputs": [],
      "stateMutability": "nonpayable",
      "type": "function"
    },
    {
      "inputs": [
        {
          "internalType": "address",
          "name": "insuranceAddress",
          "type": "address"
        }
      ],
      "name": "setInsurance",
      "outputs": [],
      "stateMutability": "nonpayable",
      "type": "function"
    },
    {
      "inputs": [
        {
          "internalType": "address",
          "name": "insuranceAddress",
          "type": "address"
        },
        {
          "internalType": "bool",
          "name": "overR",
          "type": "bool"
        }
      ],
      "name": "verify",
      "outputs": [
        {
          "internalType": "bool",
          "name": "",
          "type": "bool"
        }
      ],
      "stateMutability": "nonpayable",
      "type": "function"
    },
    {
      "inputs": [],
      "name": "getState",
      "outputs": [
        {
          "internalType": "enum PawPrints.State",
          "name": "",
          "type": "uint8"
        }
      ],
      "stateMutability": "view",
      "type": "function"
    },
    {
      "inputs": [],
      "name": "getMedicalRecord",
      "outputs": [
        {
          "components": [
            {
              "internalType": "uint256",
              "name": "ownerId",
              "type": "uint256"
            },
            {
              "internalType": "uint256",
              "name": "petId",
              "type": "uint256"
            },
            {
              "internalType": "uint256",
              "name": "billAmount",
              "type": "uint256"
            },
            {
              "internalType": "uint256",
              "name": "recordId",
              "type": "uint256"
            },
            {
              "internalType": "uint256",
              "name": "hashRecord",
              "type": "uint256"
            }
          ],
          "internalType": "struct PawPrints.MedicalRecord",
          "name": "",
          "type": "tuple"
        }
      ],
      "stateMutability": "view",
      "type": "function"
    },
    {
      "inputs": [],
      "name": "reimbursement",
      "outputs": [],
      "stateMutability": "nonpayable",
      "type": "function"
    }
  ],
  "bytecode": "0x608060405234801561001057600080fd5b5033600260006101000a81548173ffffffffffffffffffffffffffffffffffffffff021916908373ffffffffffffffffffffffffffffffffffffffff1602179055506110a8806100616000396000f3fe608060405234801561001057600080fd5b50600436106100a95760003560e01c80638d14f0fc116100715780638d14f0fc146101565780638da5cb5b146101865780639955f67c146101a4578063aa2fedde146101c2578063c19d93fb146101e0578063d3f0c8bb146101fe576100a9565b80631865c57d146100ae5780632c16cd8a146100cc57806336a6badd146101005780636cd7751f1461011e5780638bd2a9851461013a575b600080fd5b6100b6610208565b6040516100c39190610aee565b60405180910390f35b6100e660048036038101906100e19190610b44565b61021f565b6040516100f7959493929190610b80565b60405180910390f35b610108610255565b6040516101159190610c4a565b60405180910390f35b61013860048036038101906101339190610cc3565b6102b9565b005b610154600480360381019061014f9190610cf0565b610413565b005b610170600480360381019061016b9190610db5565b610613565b60405161017d9190610e04565b60405180910390f35b61018e610852565b60405161019b9190610e2e565b60405180910390f35b6101ac610876565b6040516101b99190610e2e565b60405180910390f35b6101ca61089c565b6040516101d79190610e2e565b60405180910390f35b6101e86108c2565b6040516101f59190610aee565b60405180910390f35b6102066108d5565b005b6000600460009054906101000a900460ff16905090565b60036020528060005260406000206000915090508060000154908060010154908060020154908060030154908060040154905085565b61025d610a48565b600060036000600181526020019081526020016000206040518060a00160405290816000820154815260200160018201548152602001600282015481526020016003820154815260200160048201548152505090508091505090565b600160009054906101000a900473ffffffffffffffffffffffffffffffffffffffff1673ffffffffffffffffffffffffffffffffffffffff163373ffffffffffffffffffffffffffffffffffffffff16141580156103655750600260009054906101000a900473ffffffffffffffffffffffffffffffffffffffff1673ffffffffffffffffffffffffffffffffffffffff163373ffffffffffffffffffffffffffffffffffffffff1614155b6103a4576040517f08c379a000000000000000000000000000000000000000000000000000000000815260040161039b90610ea6565b60405180910390fd5b80600160006101000a81548173ffffffffffffffffffffffffffffffffffffffff021916908373ffffffffffffffffffffffffffffffffffffffff1602179055506002600460006101000a81548160ff0219169083600581111561040b5761040a610a77565b5b021790555050565b600260009054906101000a900473ffffffffffffffffffffffffffffffffffffffff1673ffffffffffffffffffffffffffffffffffffffff163373ffffffffffffffffffffffffffffffffffffffff16146104a3576040517f08c379a000000000000000000000000000000000000000000000000000000000815260040161049a90610f12565b60405180910390fd5b60008060058111156104b8576104b7610a77565b5b600460009054906101000a900460ff1660058111156104da576104d9610a77565b5b14801561051a57506005808111156104f5576104f4610a77565b5b600460009054906101000a900460ff16600581111561051757610516610a77565b5b14155b610559576040517f08c379a000000000000000000000000000000000000000000000000000000000815260040161055090610f7e565b60405180910390fd5b826000806101000a81548173ffffffffffffffffffffffffffffffffffffffff021916908373ffffffffffffffffffffffffffffffffffffffff1602179055506000600360006001815260200190815260200160002090508781600001819055508681600101819055508581600201819055508481600301819055508281600401819055506001600460006101000a81548160ff0219169083600581111561060457610603610a77565b5b02179055505050505050505050565b6000600160009054906101000a900473ffffffffffffffffffffffffffffffffffffffff1673ffffffffffffffffffffffffffffffffffffffff163373ffffffffffffffffffffffffffffffffffffffff16146106a5576040517f08c379a000000000000000000000000000000000000000000000000000000000815260040161069c90611010565b60405180910390fd5b60028060058111156106ba576106b9610a77565b5b600460009054906101000a900460ff1660058111156106dc576106db610a77565b5b14801561071c57506005808111156106f7576106f6610a77565b5b600460009054906101000a900460ff16600581111561071957610718610a77565b5b14155b61075b576040517f08c379a000000000000000000000000000000000000000000000000000000000815260040161075290610f7e565b60405180910390fd5b8215610795576003600460006101000a81548160ff0219169083600581111561078757610786610a77565b5b02179055506001915061084b565b60008473ffffffffffffffffffffffffffffffffffffffff166325ace2a76040518163ffffffff1660e01b81526004016020604051808303816000875af11580156107e4573d6000803e3d6000fd5b505050506040513d601f19601f820116820180604052508101906108089190611045565b90508015610845576003600460006101000a81548160ff0219169083600581111561083657610835610a77565b5b0217905550600192505061084b565b60009250505b5092915050565b60008054906101000a900473ffffffffffffffffffffffffffffffffffffffff1681565b600160009054906101000a900473ffffffffffffffffffffffffffffffffffffffff1681565b600260009054906101000a900473ffffffffffffffffffffffffffffffffffffffff1681565b600460009054906101000a900460ff1681565b600160009054906101000a900473ffffffffffffffffffffffffffffffffffffffff1673ffffffffffffffffffffffffffffffffffffffff163373ffffffffffffffffffffffffffffffffffffffff1614610965576040517f08c379a000000000000000000000000000000000000000000000000000000000815260040161095c90611010565b60405180910390fd5b600380600581111561097a57610979610a77565b5b600460009054906101000a900460ff16600581111561099c5761099b610a77565b5b1480156109dc57506005808111156109b7576109b6610a77565b5b600460009054906101000a900460ff1660058111156109d9576109d8610a77565b5b14155b610a1b576040517f08c379a0000000000000000000000000000000000000000000000000000000008152600401610a1290610f7e565b60405180910390fd5b60048060006101000a81548160ff02191690836005811115610a4057610a3f610a77565b5b021790555050565b6040518060a0016040528060008152602001600081526020016000815260200160008152602001600081525090565b7f4e487b7100000000000000000000000000000000000000000000000000000000600052602160045260246000fd5b60068110610ab757610ab6610a77565b5b50565b6000819050610ac882610aa6565b919050565b6000610ad882610aba565b9050919050565b610ae881610acd565b82525050565b6000602082019050610b036000830184610adf565b92915050565b600080fd5b6000819050919050565b610b2181610b0e565b8114610b2c57600080fd5b50565b600081359050610b3e81610b18565b92915050565b600060208284031215610b5a57610b59610b09565b5b6000610b6884828501610b2f565b91505092915050565b610b7a81610b0e565b82525050565b600060a082019050610b956000830188610b71565b610ba26020830187610b71565b610baf6040830186610b71565b610bbc6060830185610b71565b610bc96080830184610b71565b9695505050505050565b610bdc81610b0e565b82525050565b60a082016000820151610bf86000850182610bd3565b506020820151610c0b6020850182610bd3565b506040820151610c1e6040850182610bd3565b506060820151610c316060850182610bd3565b506080820151610c446080850182610bd3565b50505050565b600060a082019050610c5f6000830184610be2565b92915050565b600073ffffffffffffffffffffffffffffffffffffffff82169050919050565b6000610c9082610c65565b9050919050565b610ca081610c85565b8114610cab57600080fd5b50565b600081359050610cbd81610c97565b92915050565b600060208284031215610cd957610cd8610b09565b5b6000610ce784828501610cae565b91505092915050565b60008060008060008060c08789031215610d0d57610d0c610b09565b5b6000610d1b89828a01610b2f565b9650506020610d2c89828a01610b2f565b9550506040610d3d89828a01610b2f565b9450506060610d4e89828a01610b2f565b9350506080610d5f89828a01610cae565b92505060a0610d7089828a01610b2f565b9150509295509295509295565b60008115159050919050565b610d9281610d7d565b8114610d9d57600080fd5b50565b600081359050610daf81610d89565b92915050565b60008060408385031215610dcc57610dcb610b09565b5b6000610dda85828601610cae565b9250506020610deb85828601610da0565b9150509250929050565b610dfe81610d7d565b82525050565b6000602082019050610e196000830184610df5565b92915050565b610e2881610c85565b82525050565b6000602082019050610e436000830184610e1f565b92915050565b600082825260208201905092915050565b7f4f6e6c7920504554204f574e45522063616e2063616c6c20746869732e000000600082015250565b6000610e90601d83610e49565b9150610e9b82610e5a565b602082019050919050565b60006020820190508181036000830152610ebf81610e83565b9050919050565b7f4f6e6c7920484f53504954414c2063616e2063616c6c20746869732e00000000600082015250565b6000610efc601c83610e49565b9150610f0782610ec6565b602082019050919050565b60006020820190508181036000830152610f2b81610eef565b9050919050565b7f496e76616c6964206f72204f7574206f662053746174652e0000000000000000600082015250565b6000610f68601883610e49565b9150610f7382610f32565b602082019050919050565b60006020820190508181036000830152610f9781610f5b565b9050919050565b7f4f6e6c7920494e535552414e43452050524f56494445522063616e2063616c6c60008201527f20746869732e0000000000000000000000000000000000000000000000000000602082015250565b6000610ffa602683610e49565b915061100582610f9e565b604082019050919050565b6000602082019050818103600083015261102981610fed565b9050919050565b60008151905061103f81610d89565b92915050565b60006020828403121561105b5761105a610b09565b5b600061106984828501611030565b9150509291505056fea2646970667358221220484c29b7675e63f697a225e47647bded9086dc4842723a4dffeabba4a7a02ce164736f6c63430008130033",
  "immutableReferences": {},
  "source": "// SPDX-License-Identifier: GPL-3.0-or-later\npragma solidity ^0.8.0;\nimport \"./insurance.sol\";\n\ncontract PawPrints {\n    \n    address public owner;\n    address public insuranceProvider;\n    address public hospital; \n\n    struct MedicalRecord {\n        uint ownerId;\n        uint petId;\n        uint billAmount;\n        uint recordId;\n        uint hashRecord;\n    }\n\n     mapping(uint256 => MedicalRecord) public record;\n    \n    enum State {deployed, \n                visitedHospital, \n                insuranceProvided, \n                insuranceVerified, \n                reimbursed, \n                invalid}\n    State public state;\n\n    // Hospital will be the one deploying the contract\n    constructor() {\n        hospital = msg.sender;\n    }\n\n    modifier inState(State _state) {\n        require(\n            state == _state && state!= State.invalid,\n            \"Invalid or Out of State.\"\n        );\n        _;\n    }\n\n    modifier onlyOwner(){\n        require(\n            msg.sender != insuranceProvider && msg.sender != hospital,\n            \"Only PET OWNER can call this.\"\n        );\n        _;\n    }\n    \n    modifier onlyHospital(){\n        require(\n            msg.sender == hospital,\n            \"Only HOSPITAL can call this.\"\n        ); \n        _;\n    }\n    \n    modifier onlyInsuranceProvider(){\n        require(\n            msg.sender == insuranceProvider,\n            \"Only INSURANCE PROVIDER can call this.\"\n        );\n        _;\n    }\n    \n    // Hospital creates new medical record\n    function   newMedicalRecord  (uint _ownerId, \n                                uint _petId, \n                                uint _billAmount, \n                                uint _recordId, \n                                address ownerAddress, \n                                uint _hashRecord) \n        public onlyHospital inState(State.deployed)\n    {\n        \n        // Hospital set the address of owner\n        owner = ownerAddress;\n\n        // Store record on chain\n        MedicalRecord storage newRecord = record[1];\n        newRecord.ownerId = _ownerId;\n        newRecord.petId = _petId;\n        newRecord.billAmount = _billAmount;\n        newRecord.recordId = _recordId;\n        newRecord.hashRecord = _hashRecord;\n\n        state = State.visitedHospital;\n    }\n\n    function setInsurance (address insuranceAddress) \n    public onlyOwner \n    {\n        insuranceProvider = insuranceAddress;\n\n        state = State.insuranceProvided;\n    }\n\n\n    // Insurance Provider verifies Pet's insurance and whether owner really go to hospital\n    function verify (address insuranceAddress, bool overR)\n        external onlyInsuranceProvider inState(State.insuranceProvided) returns(bool)\n    {\n        // Verification result from 3rd party insurance company\n        if (overR){\n            state = State.insuranceVerified;\n            return true;\n        }    \n        \n        // Auto verifiation using side-contract insurance.sol\n        bool manualCheckPass = insurance(insuranceAddress).checkExpired();\n        if(manualCheckPass){\n            state = State.insuranceVerified;\n            return true;\n        }\n        return false;\n    }\n\n    function getState() public view returns (State) {\n        return state;\n    } \n\n    function getMedicalRecord() public view returns (MedicalRecord memory) {\n        MedicalRecord memory user = record[1];\n        return user;\n    }\n\n    // Insurance company return money back to pet owner\n    function reimbursement () \n        public onlyInsuranceProvider inState(State.insuranceVerified)\n    {\n        state = State.reimbursed;\n    }\n}",
  "sourcePath": "C:\\Users\\Aaron\\Desktop\\truffleC\\contracts\\PawPrints.sol",
  "compiler": {
    "name": "solc",
    "version": "0.8.19+commit.7dd6d404.Emscripten.clang"
  },
  "schemaVersion": "3.4.13",
  "updatedAt": "2023-05-30T03:45:31.535Z",
  "devdoc": {
    "kind": "dev",
    "methods": {},
    "version": 1
  },
  "userdoc": {
    "kind": "user",
    "methods": {},
    "version": 1
  }
}