{
  "contractName": "PawPrints",
  "abi": [
    {
      "inputs": [],
      "stateMutability": "nonpayable",
      "type": "constructor"
    },
    {
      "inputs": [],
      "name": "hospital",
      "outputs": [
        {
          "internalType": "address",
          "name": "",
          "type": "address"
        }
      ],
      "stateMutability": "view",
      "type": "function"
    },
    {
      "inputs": [],
      "name": "insuranceProvider",
      "outputs": [
        {
          "internalType": "address",
          "name": "",
          "type": "address"
        }
      ],
      "stateMutability": "view",
      "type": "function"
    },
    {
      "inputs": [],
      "name": "owner",
      "outputs": [
        {
          "internalType": "address",
          "name": "",
          "type": "address"
        }
      ],
      "stateMutability": "view",
      "type": "function"
    },
    {
      "inputs": [
        {
          "internalType": "uint256",
          "name": "",
          "type": "uint256"
        }
      ],
      "name": "record",
      "outputs": [
        {
          "internalType": "uint256",
          "name": "ownerId",
          "type": "uint256"
        },
        {
          "internalType": "uint256",
          "name": "petId",
          "type": "uint256"
        },
        {
          "internalType": "uint256",
          "name": "billAmount",
          "type": "uint256"
        },
        {
          "internalType": "uint256",
          "name": "recordId",
          "type": "uint256"
        },
        {
          "internalType": "bytes32",
          "name": "hashRecord",
          "type": "bytes32"
        }
      ],
      "stateMutability": "view",
      "type": "function"
    },
    {
      "inputs": [],
      "name": "state",
      "outputs": [
        {
          "internalType": "enum PawPrints.State",
          "name": "",
          "type": "uint8"
        }
      ],
      "stateMutability": "view",
      "type": "function"
    },
    {
      "inputs": [
        {
          "internalType": "uint256",
          "name": "_ownerId",
          "type": "uint256"
        },
        {
          "internalType": "uint256",
          "name": "_petId",
          "type": "uint256"
        },
        {
          "internalType": "uint256",
          "name": "_billAmount",
          "type": "uint256"
        },
        {
          "internalType": "uint256",
          "name": "_recordId",
          "type": "uint256"
        },
        {
          "internalType": "address",
          "name": "ownerAddress",
          "type": "address"
        },
        {
          "internalType": "bytes32",
          "name": "_hashRecord",
          "type": "bytes32"
        }
      ],
      "name": "newMedicalRecord",
      "outputs": [],
      "stateMutability": "nonpayable",
      "type": "function"
    },
    {
      "inputs": [
        {
          "internalType": "address",
          "name": "insuranceAddress",
          "type": "address"
        }
      ],
      "name": "setInsurance",
      "outputs": [],
      "stateMutability": "nonpayable",
      "type": "function"
    },
    {
      "inputs": [
        {
          "internalType": "address",
          "name": "insuranceAddress",
          "type": "address"
        },
        {
          "internalType": "bool",
          "name": "overR",
          "type": "bool"
        }
      ],
      "name": "verify",
      "outputs": [
        {
          "internalType": "bool",
          "name": "",
          "type": "bool"
        }
      ],
      "stateMutability": "nonpayable",
      "type": "function"
    },
    {
      "inputs": [],
      "name": "getState",
      "outputs": [
        {
          "internalType": "enum PawPrints.State",
          "name": "",
          "type": "uint8"
        }
      ],
      "stateMutability": "view",
      "type": "function"
    },
    {
      "inputs": [],
      "name": "getMedicalRecord",
      "outputs": [
        {
          "components": [
            {
              "internalType": "uint256",
              "name": "ownerId",
              "type": "uint256"
            },
            {
              "internalType": "uint256",
              "name": "petId",
              "type": "uint256"
            },
            {
              "internalType": "uint256",
              "name": "billAmount",
              "type": "uint256"
            },
            {
              "internalType": "uint256",
              "name": "recordId",
              "type": "uint256"
            },
            {
              "internalType": "bytes32",
              "name": "hashRecord",
              "type": "bytes32"
            }
          ],
          "internalType": "struct PawPrints.MedicalRecord",
          "name": "",
          "type": "tuple"
        }
      ],
      "stateMutability": "view",
      "type": "function"
    },
    {
      "inputs": [],
      "name": "reimbursement",
      "outputs": [],
      "stateMutability": "nonpayable",
      "type": "function"
    }
  ],
  "bytecode": "0x608060405234801561001057600080fd5b5033600260006101000a81548173ffffffffffffffffffffffffffffffffffffffff021916908373ffffffffffffffffffffffffffffffffffffffff1602179055506110ff806100616000396000f3fe608060405234801561001057600080fd5b50600436106100a95760003560e01c80638d14f0fc116100715780638d14f0fc146101565780638da5cb5b146101865780639955f67c146101a4578063aa2fedde146101c2578063c19d93fb146101e0578063d3f0c8bb146101fe576100a9565b80631865c57d146100ae5780632c16cd8a146100cc57806336a6badd14610100578063640788ad1461011e5780636cd7751f1461013a575b600080fd5b6100b6610208565b6040516100c39190610af1565b60405180910390f35b6100e660048036038101906100e19190610b47565b61021f565b6040516100f7959493929190610b9c565b60405180910390f35b610108610255565b6040516101159190610c75565b60405180910390f35b61013860048036038101906101339190610d1a565b6102b9565b005b610154600480360381019061014f9190610da7565b6104b9565b005b610170600480360381019061016b9190610e0c565b610613565b60405161017d9190610e5b565b60405180910390f35b61018e610852565b60405161019b9190610e85565b60405180910390f35b6101ac610876565b6040516101b99190610e85565b60405180910390f35b6101ca61089c565b6040516101d79190610e85565b60405180910390f35b6101e86108c2565b6040516101f59190610af1565b60405180910390f35b6102066108d5565b005b6000600460009054906101000a900460ff16905090565b60036020528060005260406000206000915090508060000154908060010154908060020154908060030154908060040154905085565b61025d610a48565b600060036000600181526020019081526020016000206040518060a00160405290816000820154815260200160018201548152602001600282015481526020016003820154815260200160048201548152505090508091505090565b600260009054906101000a900473ffffffffffffffffffffffffffffffffffffffff1673ffffffffffffffffffffffffffffffffffffffff163373ffffffffffffffffffffffffffffffffffffffff1614610349576040517f08c379a000000000000000000000000000000000000000000000000000000000815260040161034090610efd565b60405180910390fd5b600080600581111561035e5761035d610a7a565b5b600460009054906101000a900460ff1660058111156103805761037f610a7a565b5b1480156103c0575060058081111561039b5761039a610a7a565b5b600460009054906101000a900460ff1660058111156103bd576103bc610a7a565b5b14155b6103ff576040517f08c379a00000000000000000000000000000000000000000000000000000000081526004016103f690610f69565b60405180910390fd5b826000806101000a81548173ffffffffffffffffffffffffffffffffffffffff021916908373ffffffffffffffffffffffffffffffffffffffff1602179055506000600360006001815260200190815260200160002090508781600001819055508681600101819055508581600201819055508481600301819055508281600401819055506001600460006101000a81548160ff021916908360058111156104aa576104a9610a7a565b5b02179055505050505050505050565b600160009054906101000a900473ffffffffffffffffffffffffffffffffffffffff1673ffffffffffffffffffffffffffffffffffffffff163373ffffffffffffffffffffffffffffffffffffffff16141580156105655750600260009054906101000a900473ffffffffffffffffffffffffffffffffffffffff1673ffffffffffffffffffffffffffffffffffffffff163373ffffffffffffffffffffffffffffffffffffffff1614155b6105a4576040517f08c379a000000000000000000000000000000000000000000000000000000000815260040161059b90610fd5565b60405180910390fd5b80600160006101000a81548173ffffffffffffffffffffffffffffffffffffffff021916908373ffffffffffffffffffffffffffffffffffffffff1602179055506002600460006101000a81548160ff0219169083600581111561060b5761060a610a7a565b5b021790555050565b6000600160009054906101000a900473ffffffffffffffffffffffffffffffffffffffff1673ffffffffffffffffffffffffffffffffffffffff163373ffffffffffffffffffffffffffffffffffffffff16146106a5576040517f08c379a000000000000000000000000000000000000000000000000000000000815260040161069c90611067565b60405180910390fd5b60028060058111156106ba576106b9610a7a565b5b600460009054906101000a900460ff1660058111156106dc576106db610a7a565b5b14801561071c57506005808111156106f7576106f6610a7a565b5b600460009054906101000a900460ff16600581111561071957610718610a7a565b5b14155b61075b576040517f08c379a000000000000000000000000000000000000000000000000000000000815260040161075290610f69565b60405180910390fd5b8215610795576003600460006101000a81548160ff0219169083600581111561078757610786610a7a565b5b02179055506001915061084b565b60008473ffffffffffffffffffffffffffffffffffffffff166325ace2a76040518163ffffffff1660e01b81526004016020604051808303816000875af11580156107e4573d6000803e3d6000fd5b505050506040513d601f19601f82011682018060405250810190610808919061109c565b90508015610845576003600460006101000a81548160ff0219169083600581111561083657610835610a7a565b5b0217905550600192505061084b565b60009250505b5092915050565b60008054906101000a900473ffffffffffffffffffffffffffffffffffffffff1681565b600160009054906101000a900473ffffffffffffffffffffffffffffffffffffffff1681565b600260009054906101000a900473ffffffffffffffffffffffffffffffffffffffff1681565b600460009054906101000a900460ff1681565b600160009054906101000a900473ffffffffffffffffffffffffffffffffffffffff1673ffffffffffffffffffffffffffffffffffffffff163373ffffffffffffffffffffffffffffffffffffffff1614610965576040517f08c379a000000000000000000000000000000000000000000000000000000000815260040161095c90611067565b60405180910390fd5b600380600581111561097a57610979610a7a565b5b600460009054906101000a900460ff16600581111561099c5761099b610a7a565b5b1480156109dc57506005808111156109b7576109b6610a7a565b5b600460009054906101000a900460ff1660058111156109d9576109d8610a7a565b5b14155b610a1b576040517f08c379a0000000000000000000000000000000000000000000000000000000008152600401610a1290610f69565b60405180910390fd5b60048060006101000a81548160ff02191690836005811115610a4057610a3f610a7a565b5b021790555050565b6040518060a0016040528060008152602001600081526020016000815260200160008152602001600080191681525090565b7f4e487b7100000000000000000000000000000000000000000000000000000000600052602160045260246000fd5b60068110610aba57610ab9610a7a565b5b50565b6000819050610acb82610aa9565b919050565b6000610adb82610abd565b9050919050565b610aeb81610ad0565b82525050565b6000602082019050610b066000830184610ae2565b92915050565b600080fd5b6000819050919050565b610b2481610b11565b8114610b2f57600080fd5b50565b600081359050610b4181610b1b565b92915050565b600060208284031215610b5d57610b5c610b0c565b5b6000610b6b84828501610b32565b91505092915050565b610b7d81610b11565b82525050565b6000819050919050565b610b9681610b83565b82525050565b600060a082019050610bb16000830188610b74565b610bbe6020830187610b74565b610bcb6040830186610b74565b610bd86060830185610b74565b610be56080830184610b8d565b9695505050505050565b610bf881610b11565b82525050565b610c0781610b83565b82525050565b60a082016000820151610c236000850182610bef565b506020820151610c366020850182610bef565b506040820151610c496040850182610bef565b506060820151610c5c6060850182610bef565b506080820151610c6f6080850182610bfe565b50505050565b600060a082019050610c8a6000830184610c0d565b92915050565b600073ffffffffffffffffffffffffffffffffffffffff82169050919050565b6000610cbb82610c90565b9050919050565b610ccb81610cb0565b8114610cd657600080fd5b50565b600081359050610ce881610cc2565b92915050565b610cf781610b83565b8114610d0257600080fd5b50565b600081359050610d1481610cee565b92915050565b60008060008060008060c08789031215610d3757610d36610b0c565b5b6000610d4589828a01610b32565b9650506020610d5689828a01610b32565b9550506040610d6789828a01610b32565b9450506060610d7889828a01610b32565b9350506080610d8989828a01610cd9565b92505060a0610d9a89828a01610d05565b9150509295509295509295565b600060208284031215610dbd57610dbc610b0c565b5b6000610dcb84828501610cd9565b91505092915050565b60008115159050919050565b610de981610dd4565b8114610df457600080fd5b50565b600081359050610e0681610de0565b92915050565b60008060408385031215610e2357610e22610b0c565b5b6000610e3185828601610cd9565b9250506020610e4285828601610df7565b9150509250929050565b610e5581610dd4565b82525050565b6000602082019050610e706000830184610e4c565b92915050565b610e7f81610cb0565b82525050565b6000602082019050610e9a6000830184610e76565b92915050565b600082825260208201905092915050565b7f4f6e6c7920484f53504954414c2063616e2063616c6c20746869732e00000000600082015250565b6000610ee7601c83610ea0565b9150610ef282610eb1565b602082019050919050565b60006020820190508181036000830152610f1681610eda565b9050919050565b7f496e76616c6964206f72204f7574206f662053746174652e0000000000000000600082015250565b6000610f53601883610ea0565b9150610f5e82610f1d565b602082019050919050565b60006020820190508181036000830152610f8281610f46565b9050919050565b7f4f6e6c7920504554204f574e45522063616e2063616c6c20746869732e000000600082015250565b6000610fbf601d83610ea0565b9150610fca82610f89565b602082019050919050565b60006020820190508181036000830152610fee81610fb2565b9050919050565b7f4f6e6c7920494e535552414e43452050524f56494445522063616e2063616c6c60008201527f20746869732e0000000000000000000000000000000000000000000000000000602082015250565b6000611051602683610ea0565b915061105c82610ff5565b604082019050919050565b6000602082019050818103600083015261108081611044565b9050919050565b60008151905061109681610de0565b92915050565b6000602082840312156110b2576110b1610b0c565b5b60006110c084828501611087565b9150509291505056fea2646970667358221220e56e375b566fcc85a772e642a684febea1b40c0b1a287a4659e2b6bc2c0bd21064736f6c63430008130033",
  "immutableReferences": {},
  "source": "// SPDX-License-Identifier: GPL-3.0-or-later\npragma solidity ^0.8.0;\nimport \"./insurance.sol\";\n\ncontract PawPrints {\n    \n    address public owner;\n    address public insuranceProvider;\n    address public hospital; \n\n    struct MedicalRecord {\n        uint ownerId;\n        uint petId;\n        uint billAmount;\n        uint recordId;\n        bytes32 hashRecord;\n    }\n\n     mapping(uint256 => MedicalRecord) public record;\n    \n    enum State {deployed, \n                visitedHospital, \n                insuranceProvided, \n                insuranceVerified, \n                reimbursed, \n                invalid}\n    State public state;\n\n    // Hospital will be the one deploying the contract\n    constructor() {\n        hospital = msg.sender;\n    }\n\n    modifier inState(State _state) {\n        require(\n            state == _state && state!= State.invalid,\n            \"Invalid or Out of State.\"\n        );\n        _;\n    }\n\n    modifier onlyOwner(){\n        require(\n            msg.sender != insuranceProvider && msg.sender != hospital,\n            \"Only PET OWNER can call this.\"\n        );\n        _;\n    }\n    \n    modifier onlyHospital(){\n        require(\n            msg.sender == hospital,\n            \"Only HOSPITAL can call this.\"\n        ); \n        _;\n    }\n    \n    modifier onlyInsuranceProvider(){\n        require(\n            msg.sender == insuranceProvider,\n            \"Only INSURANCE PROVIDER can call this.\"\n        );\n        _;\n    }\n    \n    // Hospital creates new medical record\n    function   newMedicalRecord  (uint _ownerId, \n                                uint _petId, \n                                uint _billAmount, \n                                uint _recordId, \n                                address ownerAddress, \n                                bytes32 _hashRecord) \n        public onlyHospital inState(State.deployed)\n    {\n        \n        // Hospital set the address of owner\n        owner = ownerAddress;\n\n        // Store record on chain\n        MedicalRecord storage newRecord = record[1];\n        newRecord.ownerId = _ownerId;\n        newRecord.petId = _petId;\n        newRecord.billAmount = _billAmount;\n        newRecord.recordId = _recordId;\n        newRecord.hashRecord = _hashRecord;\n\n        state = State.visitedHospital;\n    }\n\n    function setInsurance (address insuranceAddress) \n    public onlyOwner \n    {\n        insuranceProvider = insuranceAddress;\n\n        state = State.insuranceProvided;\n    }\n\n\n    // Insurance Provider verifies Pet's insurance and whether owner really go to hospital\n    function verify (address insuranceAddress, bool overR)\n        external onlyInsuranceProvider inState(State.insuranceProvided) returns(bool)\n    {\n        // Verification result from 3rd party insurance company\n        if (overR){\n            state = State.insuranceVerified;\n            return true;\n        }    \n        \n        // Auto verifiation using side-contract insurance.sol\n        bool manualCheckPass = insurance(insuranceAddress).checkExpired();\n        if(manualCheckPass){\n            state = State.insuranceVerified;\n            return true;\n        }\n        return false;\n    }\n\n    function getState() public view returns (State) {\n        return state;\n    } \n\n    function getMedicalRecord() public view returns (MedicalRecord memory) {\n        MedicalRecord memory user = record[1];\n        return user;\n    }\n\n    // Insurance company return money back to pet owner\n    function reimbursement () \n        public onlyInsuranceProvider inState(State.insuranceVerified)\n    {\n        state = State.reimbursed;\n    }\n}",
  "sourcePath": "C:\\Users\\Aaron\\Desktop\\truffleC\\contracts\\PawPrints.sol",
  "compiler": {
    "name": "solc",
    "version": "0.8.19+commit.7dd6d404.Emscripten.clang"
  },
  "schemaVersion": "3.4.13",
  "updatedAt": "2023-05-30T07:26:50.542Z",
  "devdoc": {
    "kind": "dev",
    "methods": {},
    "version": 1
  },
  "userdoc": {
    "kind": "user",
    "methods": {},
    "version": 1
  }
}