{
  "contractName": "PawPrints",
  "abi": [
    {
      "inputs": [],
      "stateMutability": "nonpayable",
      "type": "constructor"
    },
    {
      "anonymous": false,
      "inputs": [
        {
          "indexed": false,
          "internalType": "string",
          "name": "message",
          "type": "string"
        },
        {
          "indexed": false,
          "internalType": "uint256",
          "name": "ownerId",
          "type": "uint256"
        },
        {
          "indexed": false,
          "internalType": "uint256",
          "name": "petId",
          "type": "uint256"
        },
        {
          "indexed": false,
          "internalType": "uint256",
          "name": "billAmount",
          "type": "uint256"
        },
        {
          "indexed": false,
          "internalType": "uint256",
          "name": "recordId",
          "type": "uint256"
        },
        {
          "indexed": false,
          "internalType": "bytes32",
          "name": "hashRecord",
          "type": "bytes32"
        }
      ],
      "name": "recordCreated",
      "type": "event"
    },
    {
      "inputs": [],
      "name": "hospital",
      "outputs": [
        {
          "internalType": "address",
          "name": "",
          "type": "address"
        }
      ],
      "stateMutability": "view",
      "type": "function"
    },
    {
      "inputs": [],
      "name": "insuranceProvider",
      "outputs": [
        {
          "internalType": "address",
          "name": "",
          "type": "address"
        }
      ],
      "stateMutability": "view",
      "type": "function"
    },
    {
      "inputs": [],
      "name": "owner",
      "outputs": [
        {
          "internalType": "address",
          "name": "",
          "type": "address"
        }
      ],
      "stateMutability": "view",
      "type": "function"
    },
    {
      "inputs": [
        {
          "internalType": "uint256",
          "name": "",
          "type": "uint256"
        }
      ],
      "name": "record",
      "outputs": [
        {
          "internalType": "uint256",
          "name": "ownerId",
          "type": "uint256"
        },
        {
          "internalType": "uint256",
          "name": "petId",
          "type": "uint256"
        },
        {
          "internalType": "uint256",
          "name": "billAmount",
          "type": "uint256"
        },
        {
          "internalType": "uint256",
          "name": "recordId",
          "type": "uint256"
        },
        {
          "internalType": "bytes32",
          "name": "hashRecord",
          "type": "bytes32"
        }
      ],
      "stateMutability": "view",
      "type": "function"
    },
    {
      "inputs": [],
      "name": "state",
      "outputs": [
        {
          "internalType": "enum PawPrints.State",
          "name": "",
          "type": "uint8"
        }
      ],
      "stateMutability": "view",
      "type": "function"
    },
    {
      "inputs": [
        {
          "internalType": "uint256",
          "name": "_ownerId",
          "type": "uint256"
        },
        {
          "internalType": "uint256",
          "name": "_petId",
          "type": "uint256"
        },
        {
          "internalType": "uint256",
          "name": "_billAmount",
          "type": "uint256"
        },
        {
          "internalType": "uint256",
          "name": "_recordId",
          "type": "uint256"
        },
        {
          "internalType": "address",
          "name": "ownerAddress",
          "type": "address"
        },
        {
          "internalType": "bytes32",
          "name": "_hashRecord",
          "type": "bytes32"
        }
      ],
      "name": "newMedicalRecord",
      "outputs": [],
      "stateMutability": "nonpayable",
      "type": "function"
    },
    {
      "inputs": [
        {
          "internalType": "address",
          "name": "insuranceAddress",
          "type": "address"
        }
      ],
      "name": "setInsurance",
      "outputs": [],
      "stateMutability": "nonpayable",
      "type": "function"
    },
    {
      "inputs": [
        {
          "internalType": "address",
          "name": "insuranceAddress",
          "type": "address"
        },
        {
          "internalType": "bool",
          "name": "overR",
          "type": "bool"
        }
      ],
      "name": "verify",
      "outputs": [
        {
          "internalType": "bool",
          "name": "",
          "type": "bool"
        }
      ],
      "stateMutability": "nonpayable",
      "type": "function"
    },
    {
      "inputs": [],
      "name": "getState",
      "outputs": [
        {
          "internalType": "enum PawPrints.State",
          "name": "",
          "type": "uint8"
        }
      ],
      "stateMutability": "view",
      "type": "function"
    },
    {
      "inputs": [],
      "name": "getMedicalRecord",
      "outputs": [
        {
          "components": [
            {
              "internalType": "uint256",
              "name": "ownerId",
              "type": "uint256"
            },
            {
              "internalType": "uint256",
              "name": "petId",
              "type": "uint256"
            },
            {
              "internalType": "uint256",
              "name": "billAmount",
              "type": "uint256"
            },
            {
              "internalType": "uint256",
              "name": "recordId",
              "type": "uint256"
            },
            {
              "internalType": "bytes32",
              "name": "hashRecord",
              "type": "bytes32"
            }
          ],
          "internalType": "struct PawPrints.MedicalRecord",
          "name": "",
          "type": "tuple"
        }
      ],
      "stateMutability": "view",
      "type": "function"
    },
    {
      "inputs": [],
      "name": "reimbursement",
      "outputs": [],
      "stateMutability": "nonpayable",
      "type": "function"
    }
  ],
  "bytecode": "0x608060405234801561001057600080fd5b5033600260006101000a81548173ffffffffffffffffffffffffffffffffffffffff021916908373ffffffffffffffffffffffffffffffffffffffff1602179055506111f0806100616000396000f3fe608060405234801561001057600080fd5b50600436106100a95760003560e01c80638d14f0fc116100715780638d14f0fc146101565780638da5cb5b146101865780639955f67c146101a4578063aa2fedde146101c2578063c19d93fb146101e0578063d3f0c8bb146101fe576100a9565b80631865c57d146100ae5780632c16cd8a146100cc57806336a6badd14610100578063640788ad1461011e5780636cd7751f1461013a575b600080fd5b6100b6610208565b6040516100c39190610b30565b60405180910390f35b6100e660048036038101906100e19190610b86565b61021f565b6040516100f7959493929190610bdb565b60405180910390f35b610108610255565b6040516101159190610cb4565b60405180910390f35b61013860048036038101906101339190610d59565b6102b9565b005b610154600480360381019061014f9190610de6565b6104f8565b005b610170600480360381019061016b9190610e4b565b610652565b60405161017d9190610e9a565b60405180910390f35b61018e610891565b60405161019b9190610ec4565b60405180910390f35b6101ac6108b5565b6040516101b99190610ec4565b60405180910390f35b6101ca6108db565b6040516101d79190610ec4565b60405180910390f35b6101e8610901565b6040516101f59190610b30565b60405180910390f35b610206610914565b005b6000600460009054906101000a900460ff16905090565b60036020528060005260406000206000915090508060000154908060010154908060020154908060030154908060040154905085565b61025d610a87565b600060036000600181526020019081526020016000206040518060a00160405290816000820154815260200160018201548152602001600282015481526020016003820154815260200160048201548152505090508091505090565b600260009054906101000a900473ffffffffffffffffffffffffffffffffffffffff1673ffffffffffffffffffffffffffffffffffffffff163373ffffffffffffffffffffffffffffffffffffffff1614610349576040517f08c379a000000000000000000000000000000000000000000000000000000000815260040161034090610f3c565b60405180910390fd5b600080600581111561035e5761035d610ab9565b5b600460009054906101000a900460ff1660058111156103805761037f610ab9565b5b1480156103c0575060058081111561039b5761039a610ab9565b5b600460009054906101000a900460ff1660058111156103bd576103bc610ab9565b5b14155b6103ff576040517f08c379a00000000000000000000000000000000000000000000000000000000081526004016103f690610fa8565b60405180910390fd5b826000806101000a81548173ffffffffffffffffffffffffffffffffffffffff021916908373ffffffffffffffffffffffffffffffffffffffff1602179055506000600360006001815260200190815260200160002090508781600001819055508681600101819055508581600201819055508481600301819055508281600401819055506001600460006101000a81548160ff021916908360058111156104aa576104a9610ab9565b5b02179055507f18b5234af85299c0c18b7294aa27ee5a070179b074271cc1dc929116dee2e8ce88888888876040516104e6959493929190611014565b60405180910390a15050505050505050565b600160009054906101000a900473ffffffffffffffffffffffffffffffffffffffff1673ffffffffffffffffffffffffffffffffffffffff163373ffffffffffffffffffffffffffffffffffffffff16141580156105a45750600260009054906101000a900473ffffffffffffffffffffffffffffffffffffffff1673ffffffffffffffffffffffffffffffffffffffff163373ffffffffffffffffffffffffffffffffffffffff1614155b6105e3576040517f08c379a00000000000000000000000000000000000000000000000000000000081526004016105da906110c6565b60405180910390fd5b80600160006101000a81548173ffffffffffffffffffffffffffffffffffffffff021916908373ffffffffffffffffffffffffffffffffffffffff1602179055506002600460006101000a81548160ff0219169083600581111561064a57610649610ab9565b5b021790555050565b6000600160009054906101000a900473ffffffffffffffffffffffffffffffffffffffff1673ffffffffffffffffffffffffffffffffffffffff163373ffffffffffffffffffffffffffffffffffffffff16146106e4576040517f08c379a00000000000000000000000000000000000000000000000000000000081526004016106db90611158565b60405180910390fd5b60028060058111156106f9576106f8610ab9565b5b600460009054906101000a900460ff16600581111561071b5761071a610ab9565b5b14801561075b575060058081111561073657610735610ab9565b5b600460009054906101000a900460ff16600581111561075857610757610ab9565b5b14155b61079a576040517f08c379a000000000000000000000000000000000000000000000000000000000815260040161079190610fa8565b60405180910390fd5b82156107d4576003600460006101000a81548160ff021916908360058111156107c6576107c5610ab9565b5b02179055506001915061088a565b60008473ffffffffffffffffffffffffffffffffffffffff166325ace2a76040518163ffffffff1660e01b81526004016020604051808303816000875af1158015610823573d6000803e3d6000fd5b505050506040513d601f19601f82011682018060405250810190610847919061118d565b90508015610884576003600460006101000a81548160ff0219169083600581111561087557610874610ab9565b5b0217905550600192505061088a565b60009250505b5092915050565b60008054906101000a900473ffffffffffffffffffffffffffffffffffffffff1681565b600160009054906101000a900473ffffffffffffffffffffffffffffffffffffffff1681565b600260009054906101000a900473ffffffffffffffffffffffffffffffffffffffff1681565b600460009054906101000a900460ff1681565b600160009054906101000a900473ffffffffffffffffffffffffffffffffffffffff1673ffffffffffffffffffffffffffffffffffffffff163373ffffffffffffffffffffffffffffffffffffffff16146109a4576040517f08c379a000000000000000000000000000000000000000000000000000000000815260040161099b90611158565b60405180910390fd5b60038060058111156109b9576109b8610ab9565b5b600460009054906101000a900460ff1660058111156109db576109da610ab9565b5b148015610a1b57506005808111156109f6576109f5610ab9565b5b600460009054906101000a900460ff166005811115610a1857610a17610ab9565b5b14155b610a5a576040517f08c379a0000000000000000000000000000000000000000000000000000000008152600401610a5190610fa8565b60405180910390fd5b60048060006101000a81548160ff02191690836005811115610a7f57610a7e610ab9565b5b021790555050565b6040518060a0016040528060008152602001600081526020016000815260200160008152602001600080191681525090565b7f4e487b7100000000000000000000000000000000000000000000000000000000600052602160045260246000fd5b60068110610af957610af8610ab9565b5b50565b6000819050610b0a82610ae8565b919050565b6000610b1a82610afc565b9050919050565b610b2a81610b0f565b82525050565b6000602082019050610b456000830184610b21565b92915050565b600080fd5b6000819050919050565b610b6381610b50565b8114610b6e57600080fd5b50565b600081359050610b8081610b5a565b92915050565b600060208284031215610b9c57610b9b610b4b565b5b6000610baa84828501610b71565b91505092915050565b610bbc81610b50565b82525050565b6000819050919050565b610bd581610bc2565b82525050565b600060a082019050610bf06000830188610bb3565b610bfd6020830187610bb3565b610c0a6040830186610bb3565b610c176060830185610bb3565b610c246080830184610bcc565b9695505050505050565b610c3781610b50565b82525050565b610c4681610bc2565b82525050565b60a082016000820151610c626000850182610c2e565b506020820151610c756020850182610c2e565b506040820151610c886040850182610c2e565b506060820151610c9b6060850182610c2e565b506080820151610cae6080850182610c3d565b50505050565b600060a082019050610cc96000830184610c4c565b92915050565b600073ffffffffffffffffffffffffffffffffffffffff82169050919050565b6000610cfa82610ccf565b9050919050565b610d0a81610cef565b8114610d1557600080fd5b50565b600081359050610d2781610d01565b92915050565b610d3681610bc2565b8114610d4157600080fd5b50565b600081359050610d5381610d2d565b92915050565b60008060008060008060c08789031215610d7657610d75610b4b565b5b6000610d8489828a01610b71565b9650506020610d9589828a01610b71565b9550506040610da689828a01610b71565b9450506060610db789828a01610b71565b9350506080610dc889828a01610d18565b92505060a0610dd989828a01610d44565b9150509295509295509295565b600060208284031215610dfc57610dfb610b4b565b5b6000610e0a84828501610d18565b91505092915050565b60008115159050919050565b610e2881610e13565b8114610e3357600080fd5b50565b600081359050610e4581610e1f565b92915050565b60008060408385031215610e6257610e61610b4b565b5b6000610e7085828601610d18565b9250506020610e8185828601610e36565b9150509250929050565b610e9481610e13565b82525050565b6000602082019050610eaf6000830184610e8b565b92915050565b610ebe81610cef565b82525050565b6000602082019050610ed96000830184610eb5565b92915050565b600082825260208201905092915050565b7f4f6e6c7920484f53504954414c2063616e2063616c6c20746869732e00000000600082015250565b6000610f26601c83610edf565b9150610f3182610ef0565b602082019050919050565b60006020820190508181036000830152610f5581610f19565b9050919050565b7f496e76616c6964206f72204f7574206f662053746174652e0000000000000000600082015250565b6000610f92601883610edf565b9150610f9d82610f5c565b602082019050919050565b60006020820190508181036000830152610fc181610f85565b9050919050565b7f5265636f72642043726561746564000000000000000000000000000000000000600082015250565b6000610ffe600e83610edf565b915061100982610fc8565b602082019050919050565b600060c082019050818103600083015261102d81610ff1565b905061103c6020830188610bb3565b6110496040830187610bb3565b6110566060830186610bb3565b6110636080830185610bb3565b61107060a0830184610bcc565b9695505050505050565b7f4f6e6c7920504554204f574e45522063616e2063616c6c20746869732e000000600082015250565b60006110b0601d83610edf565b91506110bb8261107a565b602082019050919050565b600060208201905081810360008301526110df816110a3565b9050919050565b7f4f6e6c7920494e535552414e43452050524f56494445522063616e2063616c6c60008201527f20746869732e0000000000000000000000000000000000000000000000000000602082015250565b6000611142602683610edf565b915061114d826110e6565b604082019050919050565b6000602082019050818103600083015261117181611135565b9050919050565b60008151905061118781610e1f565b92915050565b6000602082840312156111a3576111a2610b4b565b5b60006111b184828501611178565b9150509291505056fea26469706673582212200f7a7366a82671c0fe71175b463d467b24d55fd30ec2cf85c3888514d96918dd64736f6c63430008130033",
  "immutableReferences": {},
  "source": "// SPDX-License-Identifier: GPL-3.0-or-later\npragma solidity ^0.8.0;\nimport \"./insurance.sol\";\n\ncontract PawPrints {\n    \n    address public owner;\n    address public insuranceProvider;\n    address public hospital; \n\n    struct MedicalRecord {\n        uint ownerId;\n        uint petId;\n        uint billAmount;\n        uint recordId;\n        bytes32 hashRecord;\n    }\n\n     mapping(uint256 => MedicalRecord) public record;\n    \n    enum State {deployed, \n                visitedHospital, \n                insuranceProvided, \n                insuranceVerified, \n                reimbursed, \n                invalid}\n    State public state;\n\n    event recordCreated(string message, \n                        uint ownerId,\n                        uint petId,\n                        uint billAmount,\n                        uint recordId,\n                        bytes32 hashRecord);\n\n    // Hospital will be the one deploying the contract\n    constructor() {\n        hospital = msg.sender;\n    }\n\n    modifier inState(State _state) {\n        require(\n            state == _state && state!= State.invalid,\n            \"Invalid or Out of State.\"\n        );\n        _;\n    }\n\n    modifier onlyOwner(){\n        require(\n            msg.sender != insuranceProvider && msg.sender != hospital,\n            \"Only PET OWNER can call this.\"\n        );\n        _;\n    }\n    \n    modifier onlyHospital(){\n        require(\n            msg.sender == hospital,\n            \"Only HOSPITAL can call this.\"\n        ); \n        _;\n    }\n    \n    modifier onlyInsuranceProvider(){\n        require(\n            msg.sender == insuranceProvider,\n            \"Only INSURANCE PROVIDER can call this.\"\n        );\n        _;\n    }\n    \n    // Hospital creates new medical record\n    function   newMedicalRecord  (uint _ownerId, \n                                uint _petId, \n                                uint _billAmount, \n                                uint _recordId, \n                                address ownerAddress, \n                                bytes32 _hashRecord) \n        public onlyHospital inState(State.deployed)\n    {\n        \n        // Hospital set the address of owner\n        owner = ownerAddress;\n\n        // Store record on chain\n        MedicalRecord storage newRecord = record[1];\n        newRecord.ownerId = _ownerId;\n        newRecord.petId = _petId;\n        newRecord.billAmount = _billAmount;\n        newRecord.recordId = _recordId;\n        newRecord.hashRecord = _hashRecord;\n\n        state = State.visitedHospital;\n\n        emit recordCreated(\"Record Created\",\n                            _ownerId,\n                            _petId,\n                            _billAmount,\n                            _recordId,\n                            _hashRecord);\n    }\n\n    function setInsurance (address insuranceAddress) \n    public onlyOwner \n    {\n        insuranceProvider = insuranceAddress;\n\n        state = State.insuranceProvided;\n    }\n\n\n    // Insurance Provider verifies Pet's insurance and whether owner really go to hospital\n    function verify (address insuranceAddress, bool overR)\n        external onlyInsuranceProvider inState(State.insuranceProvided) returns(bool)\n    {\n        // Verification result from 3rd party insurance company\n        if (overR){\n            state = State.insuranceVerified;\n            return true;\n        }    \n        \n        // Auto verifiation using side-contract insurance.sol\n        bool manualCheckPass = insurance(insuranceAddress).checkExpired();\n        if(manualCheckPass){\n            state = State.insuranceVerified;\n            return true;\n        }\n        return false;\n    }\n\n    function getState() public view returns (State) {\n        return state;\n    } \n\n    function getMedicalRecord() public view returns (MedicalRecord memory) {\n        MedicalRecord memory user = record[1];\n        return user;\n    }\n\n    // Insurance company return money back to pet owner\n    function reimbursement () \n        public onlyInsuranceProvider inState(State.insuranceVerified)\n    {\n        state = State.reimbursed;\n    }\n}",
  "sourcePath": "C:\\Users\\Aaron\\Desktop\\truffleC\\contracts\\PawPrints.sol",
  "compiler": {
    "name": "solc",
    "version": "0.8.19+commit.7dd6d404.Emscripten.clang"
  },
  "schemaVersion": "3.4.13",
  "updatedAt": "2023-05-30T23:32:59.617Z",
  "devdoc": {
    "kind": "dev",
    "methods": {},
    "version": 1
  },
  "userdoc": {
    "kind": "user",
    "methods": {},
    "version": 1
  }
}