{
	"backend/contracts/PawPrints.sol": {
		"PawPrints": {
			"abi": [
				{
					"inputs": [],
					"stateMutability": "nonpayable",
					"type": "constructor"
				},
				{
					"anonymous": false,
					"inputs": [],
					"name": "reimbursed",
					"type": "event"
				},
				{
					"anonymous": false,
					"inputs": [],
					"name": "sent",
					"type": "event"
				},
				{
					"anonymous": false,
					"inputs": [],
					"name": "verified",
					"type": "event"
				},
				{
					"anonymous": false,
					"inputs": [],
					"name": "visited",
					"type": "event"
				},
				{
					"inputs": [],
					"name": "getMedicalRecord",
					"outputs": [
						{
							"components": [
								{
									"internalType": "uint256",
									"name": "ownerId",
									"type": "uint256"
								},
								{
									"internalType": "uint256",
									"name": "petId",
									"type": "uint256"
								},
								{
									"internalType": "uint256",
									"name": "billAmount",
									"type": "uint256"
								},
								{
									"internalType": "uint256",
									"name": "recordId",
									"type": "uint256"
								}
							],
							"internalType": "struct PawPrints.MedicalRecord",
							"name": "",
							"type": "tuple"
						}
					],
					"stateMutability": "view",
					"type": "function"
				},
				{
					"inputs": [],
					"name": "hospital",
					"outputs": [
						{
							"internalType": "address",
							"name": "",
							"type": "address"
						}
					],
					"stateMutability": "view",
					"type": "function"
				},
				{
					"inputs": [],
					"name": "insuranceProvider",
					"outputs": [
						{
							"internalType": "address",
							"name": "",
							"type": "address"
						}
					],
					"stateMutability": "view",
					"type": "function"
				},
				{
					"inputs": [
						{
							"internalType": "uint256",
							"name": "_ownerId",
							"type": "uint256"
						},
						{
							"internalType": "uint256",
							"name": "_petId",
							"type": "uint256"
						},
						{
							"internalType": "uint256",
							"name": "_billAmount",
							"type": "uint256"
						},
						{
							"internalType": "uint256",
							"name": "_recordId",
							"type": "uint256"
						},
						{
							"internalType": "address",
							"name": "ownerAddress",
							"type": "address"
						}
					],
					"name": "newMedicalRecord",
					"outputs": [],
					"stateMutability": "nonpayable",
					"type": "function"
				},
				{
					"inputs": [],
					"name": "owner",
					"outputs": [
						{
							"internalType": "address",
							"name": "",
							"type": "address"
						}
					],
					"stateMutability": "view",
					"type": "function"
				},
				{
					"inputs": [
						{
							"internalType": "uint256",
							"name": "",
							"type": "uint256"
						}
					],
					"name": "record",
					"outputs": [
						{
							"internalType": "uint256",
							"name": "ownerId",
							"type": "uint256"
						},
						{
							"internalType": "uint256",
							"name": "petId",
							"type": "uint256"
						},
						{
							"internalType": "uint256",
							"name": "billAmount",
							"type": "uint256"
						},
						{
							"internalType": "uint256",
							"name": "recordId",
							"type": "uint256"
						}
					],
					"stateMutability": "view",
					"type": "function"
				},
				{
					"inputs": [],
					"name": "reimbursement",
					"outputs": [],
					"stateMutability": "nonpayable",
					"type": "function"
				},
				{
					"inputs": [
						{
							"internalType": "address",
							"name": "insuranceAddress",
							"type": "address"
						}
					],
					"name": "setInsurance",
					"outputs": [],
					"stateMutability": "nonpayable",
					"type": "function"
				},
				{
					"inputs": [],
					"name": "state",
					"outputs": [
						{
							"internalType": "enum PawPrints.State",
							"name": "",
							"type": "uint8"
						}
					],
					"stateMutability": "view",
					"type": "function"
				},
				{
					"inputs": [
						{
							"internalType": "uint256",
							"name": "_ownerId",
							"type": "uint256"
						},
						{
							"internalType": "uint256",
							"name": "_petId",
							"type": "uint256"
						},
						{
							"internalType": "address",
							"name": "insuranceAddress",
							"type": "address"
						},
						{
							"internalType": "bool",
							"name": "overR",
							"type": "bool"
						}
					],
					"name": "verify",
					"outputs": [
						{
							"internalType": "bool",
							"name": "",
							"type": "bool"
						}
					],
					"stateMutability": "nonpayable",
					"type": "function"
				}
			],
			"devdoc": {
				"kind": "dev",
				"methods": {},
				"version": 1
			},
			"evm": {
				"assembly": "    /* \"backend/contracts/PawPrints.sol\":96:3240  contract PawPrints {... */\n  mstore(0x40, 0x80)\n    /* \"backend/contracts/PawPrints.sol\":632:684  constructor() {... */\n  callvalue\n  dup1\n  iszero\n  tag_1\n  jumpi\n  0x00\n  dup1\n  revert\ntag_1:\n  pop\n    /* \"backend/contracts/PawPrints.sol\":667:677  msg.sender */\n  caller\n    /* \"backend/contracts/PawPrints.sol\":656:664  hospital */\n  0x02\n  0x00\n    /* \"backend/contracts/PawPrints.sol\":656:677  hospital = msg.sender */\n  0x0100\n  exp\n  dup2\n  sload\n  dup2\n  0xffffffffffffffffffffffffffffffffffffffff\n  mul\n  not\n  and\n  swap1\n  dup4\n  0xffffffffffffffffffffffffffffffffffffffff\n  and\n  mul\n  or\n  swap1\n  sstore\n  pop\n    /* \"backend/contracts/PawPrints.sol\":96:3240  contract PawPrints {... */\n  dataSize(sub_0)\n  dup1\n  dataOffset(sub_0)\n  0x00\n  codecopy\n  0x00\n  return\nstop\n\nsub_0: assembly {\n        /* \"backend/contracts/PawPrints.sol\":96:3240  contract PawPrints {... */\n      mstore(0x40, 0x80)\n      callvalue\n      dup1\n      iszero\n      tag_1\n      jumpi\n      0x00\n      dup1\n      revert\n    tag_1:\n      pop\n      jumpi(tag_2, lt(calldatasize, 0x04))\n      shr(0xe0, calldataload(0x00))\n      dup1\n      0x8da5cb5b\n      gt\n      tag_13\n      jumpi\n      dup1\n      0x8da5cb5b\n      eq\n      tag_8\n      jumpi\n      dup1\n      0x9955f67c\n      eq\n      tag_9\n      jumpi\n      dup1\n      0xaa2fedde\n      eq\n      tag_10\n      jumpi\n      dup1\n      0xc19d93fb\n      eq\n      tag_11\n      jumpi\n      dup1\n      0xd3f0c8bb\n      eq\n      tag_12\n      jumpi\n      jump(tag_2)\n    tag_13:\n      dup1\n      0x2c16cd8a\n      eq\n      tag_3\n      jumpi\n      dup1\n      0x36a6badd\n      eq\n      tag_4\n      jumpi\n      dup1\n      0x398933ca\n      eq\n      tag_5\n      jumpi\n      dup1\n      0x4f96d860\n      eq\n      tag_6\n      jumpi\n      dup1\n      0x6cd7751f\n      eq\n      tag_7\n      jumpi\n    tag_2:\n      0x00\n      dup1\n      revert\n        /* \"backend/contracts/PawPrints.sol\":374:421  mapping(uint256 => MedicalRecord) public record */\n    tag_3:\n      tag_14\n      0x04\n      dup1\n      calldatasize\n      sub\n      dup2\n      add\n      swap1\n      tag_15\n      swap2\n      swap1\n      tag_16\n      jump\t// in\n    tag_15:\n      tag_17\n      jump\t// in\n    tag_14:\n      mload(0x40)\n      tag_18\n      swap5\n      swap4\n      swap3\n      swap2\n      swap1\n      tag_19\n      jump\t// in\n    tag_18:\n      mload(0x40)\n      dup1\n      swap2\n      sub\n      swap1\n      return\n        /* \"backend/contracts/PawPrints.sol\":2842:2988  function getMedicalRecord() public view returns (MedicalRecord memory) {... */\n    tag_4:\n      tag_20\n      tag_21\n      jump\t// in\n    tag_20:\n      mload(0x40)\n      tag_22\n      swap2\n      swap1\n      tag_23\n      jump\t// in\n    tag_22:\n      mload(0x40)\n      dup1\n      swap2\n      sub\n      swap1\n      return\n        /* \"backend/contracts/PawPrints.sol\":1474:1938  function newMedicalRecord (uint _ownerId, uint _petId, uint _billAmount, uint _recordId, address ownerAddress) ... */\n    tag_5:\n      tag_24\n      0x04\n      dup1\n      calldatasize\n      sub\n      dup2\n      add\n      swap1\n      tag_25\n      swap2\n      swap1\n      tag_26\n      jump\t// in\n    tag_25:\n      tag_27\n      jump\t// in\n    tag_24:\n      stop\n        /* \"backend/contracts/PawPrints.sol\":2213:2836  function verify (uint _ownerId, uint _petId, address insuranceAddress, bool overR)... */\n    tag_6:\n      tag_28\n      0x04\n      dup1\n      calldatasize\n      sub\n      dup2\n      add\n      swap1\n      tag_29\n      swap2\n      swap1\n      tag_30\n      jump\t// in\n    tag_29:\n      tag_31\n      jump\t// in\n    tag_28:\n      mload(0x40)\n      tag_32\n      swap2\n      swap1\n      tag_33\n      jump\t// in\n    tag_32:\n      mload(0x40)\n      dup1\n      swap2\n      sub\n      swap1\n      return\n        /* \"backend/contracts/PawPrints.sol\":1944:2115  function setInsurance (address insuranceAddress) ... */\n    tag_7:\n      tag_34\n      0x04\n      dup1\n      calldatasize\n      sub\n      dup2\n      add\n      swap1\n      tag_35\n      swap2\n      swap1\n      tag_36\n      jump\t// in\n    tag_35:\n      tag_37\n      jump\t// in\n    tag_34:\n      stop\n        /* \"backend/contracts/PawPrints.sol\":126:146  address public owner */\n    tag_8:\n      tag_38\n      tag_39\n      jump\t// in\n    tag_38:\n      mload(0x40)\n      tag_40\n      swap2\n      swap1\n      tag_41\n      jump\t// in\n    tag_40:\n      mload(0x40)\n      dup1\n      swap2\n      sub\n      swap1\n      return\n        /* \"backend/contracts/PawPrints.sol\":152:184  address public insuranceProvider */\n    tag_9:\n      tag_42\n      tag_43\n      jump\t// in\n    tag_42:\n      mload(0x40)\n      tag_44\n      swap2\n      swap1\n      tag_41\n      jump\t// in\n    tag_44:\n      mload(0x40)\n      dup1\n      swap2\n      sub\n      swap1\n      return\n        /* \"backend/contracts/PawPrints.sol\":190:213  address public hospital */\n    tag_10:\n      tag_45\n      tag_46\n      jump\t// in\n    tag_45:\n      mload(0x40)\n      tag_47\n      swap2\n      swap1\n      tag_41\n      jump\t// in\n    tag_47:\n      mload(0x40)\n      dup1\n      swap2\n      sub\n      swap1\n      return\n        /* \"backend/contracts/PawPrints.sol\":606:624  State public state */\n    tag_11:\n      tag_48\n      tag_49\n      jump\t// in\n    tag_48:\n      mload(0x40)\n      tag_50\n      swap2\n      swap1\n      tag_51\n      jump\t// in\n    tag_50:\n      mload(0x40)\n      dup1\n      swap2\n      sub\n      swap1\n      return\n        /* \"backend/contracts/PawPrints.sol\":3050:3238  function reimbursement () ... */\n    tag_12:\n      tag_52\n      tag_53\n      jump\t// in\n    tag_52:\n      stop\n        /* \"backend/contracts/PawPrints.sol\":374:421  mapping(uint256 => MedicalRecord) public record */\n    tag_17:\n      mstore(0x20, 0x03)\n      dup1\n      0x00\n      mstore\n      keccak256(0x00, 0x40)\n      0x00\n      swap2\n      pop\n      swap1\n      pop\n      dup1\n      0x00\n      add\n      sload\n      swap1\n      dup1\n      0x01\n      add\n      sload\n      swap1\n      dup1\n      0x02\n      add\n      sload\n      swap1\n      dup1\n      0x03\n      add\n      sload\n      swap1\n      pop\n      dup5\n      jump\t// out\n        /* \"backend/contracts/PawPrints.sol\":2842:2988  function getMedicalRecord() public view returns (MedicalRecord memory) {... */\n    tag_21:\n        /* \"backend/contracts/PawPrints.sol\":2891:2911  MedicalRecord memory */\n      tag_54\n      tag_55\n      jump\t// in\n    tag_54:\n        /* \"backend/contracts/PawPrints.sol\":2923:2948  MedicalRecord memory user */\n      0x00\n        /* \"backend/contracts/PawPrints.sol\":2951:2957  record */\n      0x03\n        /* \"backend/contracts/PawPrints.sol\":2951:2960  record[1] */\n      0x00\n        /* \"backend/contracts/PawPrints.sol\":2958:2959  1 */\n      0x01\n        /* \"backend/contracts/PawPrints.sol\":2951:2960  record[1] */\n      dup2\n      mstore\n      0x20\n      add\n      swap1\n      dup2\n      mstore\n      0x20\n      add\n      0x00\n      keccak256\n        /* \"backend/contracts/PawPrints.sol\":2923:2960  MedicalRecord memory user = record[1] */\n      mload(0x40)\n      dup1\n      0x80\n      add\n      0x40\n      mstore\n      swap1\n      dup2\n      0x00\n      dup3\n      add\n      sload\n      dup2\n      mstore\n      0x20\n      add\n      0x01\n      dup3\n      add\n      sload\n      dup2\n      mstore\n      0x20\n      add\n      0x02\n      dup3\n      add\n      sload\n      dup2\n      mstore\n      0x20\n      add\n      0x03\n      dup3\n      add\n      sload\n      dup2\n      mstore\n      pop\n      pop\n      swap1\n      pop\n        /* \"backend/contracts/PawPrints.sol\":2977:2981  user */\n      dup1\n        /* \"backend/contracts/PawPrints.sol\":2970:2981  return user */\n      swap2\n      pop\n      pop\n        /* \"backend/contracts/PawPrints.sol\":2842:2988  function getMedicalRecord() public view returns (MedicalRecord memory) {... */\n      swap1\n      jump\t// out\n        /* \"backend/contracts/PawPrints.sol\":1474:1938  function newMedicalRecord (uint _ownerId, uint _petId, uint _billAmount, uint _recordId, address ownerAddress) ... */\n    tag_27:\n        /* \"backend/contracts/PawPrints.sol\":1125:1133  hospital */\n      0x02\n      0x00\n      swap1\n      sload\n      swap1\n      0x0100\n      exp\n      swap1\n      div\n      0xffffffffffffffffffffffffffffffffffffffff\n      and\n        /* \"backend/contracts/PawPrints.sol\":1111:1133  msg.sender == hospital */\n      0xffffffffffffffffffffffffffffffffffffffff\n      and\n        /* \"backend/contracts/PawPrints.sol\":1111:1121  msg.sender */\n      caller\n        /* \"backend/contracts/PawPrints.sol\":1111:1133  msg.sender == hospital */\n      0xffffffffffffffffffffffffffffffffffffffff\n      and\n      eq\n        /* \"backend/contracts/PawPrints.sol\":1090:1187  require(... */\n      tag_58\n      jumpi\n      mload(0x40)\n      0x08c379a000000000000000000000000000000000000000000000000000000000\n      dup2\n      mstore\n      0x04\n      add\n      tag_59\n      swap1\n      tag_60\n      jump\t// in\n    tag_59:\n      mload(0x40)\n      dup1\n      swap2\n      sub\n      swap1\n      revert\n    tag_58:\n        /* \"backend/contracts/PawPrints.sol\":1633:1642  visited() */\n      0x8a4335bd3facea1bfaf95771e37917d7f43ff5f64d26d19f43e8a1c931ddeb01\n      mload(0x40)\n      mload(0x40)\n      dup1\n      swap2\n      sub\n      swap1\n      log1\n        /* \"backend/contracts/PawPrints.sol\":1669:1681  ownerAddress */\n      dup1\n        /* \"backend/contracts/PawPrints.sol\":1661:1666  owner */\n      0x00\n      dup1\n        /* \"backend/contracts/PawPrints.sol\":1661:1681  owner = ownerAddress */\n      0x0100\n      exp\n      dup2\n      sload\n      dup2\n      0xffffffffffffffffffffffffffffffffffffffff\n      mul\n      not\n      and\n      swap1\n      dup4\n      0xffffffffffffffffffffffffffffffffffffffff\n      and\n      mul\n      or\n      swap1\n      sstore\n      pop\n        /* \"backend/contracts/PawPrints.sol\":1692:1723  MedicalRecord storage newRecord */\n      0x00\n        /* \"backend/contracts/PawPrints.sol\":1726:1732  record */\n      0x03\n        /* \"backend/contracts/PawPrints.sol\":1726:1735  record[1] */\n      0x00\n        /* \"backend/contracts/PawPrints.sol\":1733:1734  1 */\n      0x01\n        /* \"backend/contracts/PawPrints.sol\":1726:1735  record[1] */\n      dup2\n      mstore\n      0x20\n      add\n      swap1\n      dup2\n      mstore\n      0x20\n      add\n      0x00\n      keccak256\n        /* \"backend/contracts/PawPrints.sol\":1692:1735  MedicalRecord storage newRecord = record[1] */\n      swap1\n      pop\n        /* \"backend/contracts/PawPrints.sol\":1765:1773  _ownerId */\n      dup6\n        /* \"backend/contracts/PawPrints.sol\":1745:1754  newRecord */\n      dup2\n        /* \"backend/contracts/PawPrints.sol\":1745:1762  newRecord.ownerId */\n      0x00\n      add\n        /* \"backend/contracts/PawPrints.sol\":1745:1773  newRecord.ownerId = _ownerId */\n      dup2\n      swap1\n      sstore\n      pop\n        /* \"backend/contracts/PawPrints.sol\":1801:1807  _petId */\n      dup5\n        /* \"backend/contracts/PawPrints.sol\":1783:1792  newRecord */\n      dup2\n        /* \"backend/contracts/PawPrints.sol\":1783:1798  newRecord.petId */\n      0x01\n      add\n        /* \"backend/contracts/PawPrints.sol\":1783:1807  newRecord.petId = _petId */\n      dup2\n      swap1\n      sstore\n      pop\n        /* \"backend/contracts/PawPrints.sol\":1840:1851  _billAmount */\n      dup4\n        /* \"backend/contracts/PawPrints.sol\":1817:1826  newRecord */\n      dup2\n        /* \"backend/contracts/PawPrints.sol\":1817:1837  newRecord.billAmount */\n      0x02\n      add\n        /* \"backend/contracts/PawPrints.sol\":1817:1851  newRecord.billAmount = _billAmount */\n      dup2\n      swap1\n      sstore\n      pop\n        /* \"backend/contracts/PawPrints.sol\":1882:1891  _recordId */\n      dup3\n        /* \"backend/contracts/PawPrints.sol\":1861:1870  newRecord */\n      dup2\n        /* \"backend/contracts/PawPrints.sol\":1861:1879  newRecord.recordId */\n      0x03\n      add\n        /* \"backend/contracts/PawPrints.sol\":1861:1891  newRecord.recordId = _recordId */\n      dup2\n      swap1\n      sstore\n      pop\n        /* \"backend/contracts/PawPrints.sol\":1910:1931  State.visitedHospital */\n      0x00\n        /* \"backend/contracts/PawPrints.sol\":1902:1907  state */\n      0x04\n      0x00\n        /* \"backend/contracts/PawPrints.sol\":1902:1931  state = State.visitedHospital */\n      0x0100\n      exp\n      dup2\n      sload\n      dup2\n      0xff\n      mul\n      not\n      and\n      swap1\n      dup4\n      0x04\n      dup2\n      gt\n      iszero\n      tag_62\n      jumpi\n      tag_63\n      tag_64\n      jump\t// in\n    tag_63:\n    tag_62:\n      mul\n      or\n      swap1\n      sstore\n      pop\n        /* \"backend/contracts/PawPrints.sol\":1618:1938  {... */\n      pop\n        /* \"backend/contracts/PawPrints.sol\":1474:1938  function newMedicalRecord (uint _ownerId, uint _petId, uint _billAmount, uint _recordId, address ownerAddress) ... */\n      pop\n      pop\n      pop\n      pop\n      pop\n      jump\t// out\n        /* \"backend/contracts/PawPrints.sol\":2213:2836  function verify (uint _ownerId, uint _petId, address insuranceAddress, bool overR)... */\n    tag_31:\n        /* \"backend/contracts/PawPrints.sol\":2376:2380  bool */\n      0x00\n        /* \"backend/contracts/PawPrints.sol\":1293:1310  insuranceProvider */\n      0x01\n      0x00\n      swap1\n      sload\n      swap1\n      0x0100\n      exp\n      swap1\n      div\n      0xffffffffffffffffffffffffffffffffffffffff\n      and\n        /* \"backend/contracts/PawPrints.sol\":1279:1310  msg.sender == insuranceProvider */\n      0xffffffffffffffffffffffffffffffffffffffff\n      and\n        /* \"backend/contracts/PawPrints.sol\":1279:1289  msg.sender */\n      caller\n        /* \"backend/contracts/PawPrints.sol\":1279:1310  msg.sender == insuranceProvider */\n      0xffffffffffffffffffffffffffffffffffffffff\n      and\n      eq\n        /* \"backend/contracts/PawPrints.sol\":1258:1374  require(... */\n      tag_66\n      jumpi\n      mload(0x40)\n      0x08c379a000000000000000000000000000000000000000000000000000000000\n      dup2\n      mstore\n      0x04\n      add\n      tag_67\n      swap1\n      tag_68\n      jump\t// in\n    tag_67:\n      mload(0x40)\n      dup1\n      swap2\n      sub\n      swap1\n      revert\n    tag_66:\n        /* \"backend/contracts/PawPrints.sol\":2343:2366  State.insuranceProvided */\n      0x01\n        /* \"backend/contracts/PawPrints.sol\":761:767  _state */\n      dup1\n        /* \"backend/contracts/PawPrints.sol\":752:767  state == _state */\n      0x04\n      dup2\n      gt\n      iszero\n      tag_70\n      jumpi\n      tag_71\n      tag_64\n      jump\t// in\n    tag_71:\n    tag_70:\n        /* \"backend/contracts/PawPrints.sol\":752:757  state */\n      0x04\n      0x00\n      swap1\n      sload\n      swap1\n      0x0100\n      exp\n      swap1\n      div\n      0xff\n      and\n        /* \"backend/contracts/PawPrints.sol\":752:767  state == _state */\n      0x04\n      dup2\n      gt\n      iszero\n      tag_72\n      jumpi\n      tag_73\n      tag_64\n      jump\t// in\n    tag_73:\n    tag_72:\n      eq\n        /* \"backend/contracts/PawPrints.sol\":752:792  state == _state && state!= State.invalid */\n      dup1\n      iszero\n      tag_74\n      jumpi\n      pop\n        /* \"backend/contracts/PawPrints.sol\":779:792  State.invalid */\n      0x04\n        /* \"backend/contracts/PawPrints.sol\":771:792  state!= State.invalid */\n      dup1\n      dup2\n      gt\n      iszero\n      tag_75\n      jumpi\n      tag_76\n      tag_64\n      jump\t// in\n    tag_76:\n    tag_75:\n        /* \"backend/contracts/PawPrints.sol\":771:776  state */\n      0x04\n      0x00\n      swap1\n      sload\n      swap1\n      0x0100\n      exp\n      swap1\n      div\n      0xff\n      and\n        /* \"backend/contracts/PawPrints.sol\":771:792  state!= State.invalid */\n      0x04\n      dup2\n      gt\n      iszero\n      tag_77\n      jumpi\n      tag_78\n      tag_64\n      jump\t// in\n    tag_78:\n    tag_77:\n      eq\n      iszero\n        /* \"backend/contracts/PawPrints.sol\":752:792  state == _state && state!= State.invalid */\n    tag_74:\n        /* \"backend/contracts/PawPrints.sol\":731:842  require(... */\n      tag_79\n      jumpi\n      mload(0x40)\n      0x08c379a000000000000000000000000000000000000000000000000000000000\n      dup2\n      mstore\n      0x04\n      add\n      tag_80\n      swap1\n      tag_81\n      jump\t// in\n    tag_80:\n      mload(0x40)\n      dup1\n      swap2\n      sub\n      swap1\n      revert\n    tag_79:\n        /* \"backend/contracts/PawPrints.sol\":2401:2411  verified() */\n      0xbbb82d89ae6cb278e0333b446560e83d91184e64026c1c4ee85d8eaba065a96c\n      mload(0x40)\n      mload(0x40)\n      dup1\n      swap2\n      sub\n      swap1\n      log1\n        /* \"backend/contracts/PawPrints.sol\":2426:2431  overR */\n      dup3\n        /* \"backend/contracts/PawPrints.sol\":2422:2468  if (overR){... */\n      iszero\n      tag_83\n      jumpi\n        /* \"backend/contracts/PawPrints.sol\":2453:2457  true */\n      0x01\n        /* \"backend/contracts/PawPrints.sol\":2446:2457  return true */\n      swap2\n      pop\n      jump(tag_82)\n        /* \"backend/contracts/PawPrints.sol\":2422:2468  if (overR){... */\n    tag_83:\n        /* \"backend/contracts/PawPrints.sol\":2633:2653  bool manualCheckPass */\n      0x00\n        /* \"backend/contracts/PawPrints.sol\":2666:2682  insuranceAddress */\n      dup5\n        /* \"backend/contracts/PawPrints.sol\":2656:2696  insurance(insuranceAddress).checkExpired */\n      0xffffffffffffffffffffffffffffffffffffffff\n      and\n      0x25ace2a7\n        /* \"backend/contracts/PawPrints.sol\":2656:2698  insurance(insuranceAddress).checkExpired() */\n      mload(0x40)\n      dup2\n      0xffffffff\n      and\n      0xe0\n      shl\n      dup2\n      mstore\n      0x04\n      add\n      0x20\n      mload(0x40)\n      dup1\n      dup4\n      sub\n      dup2\n      0x00\n      dup8\n      gas\n      call\n      iszero\n      dup1\n      iszero\n      tag_85\n      jumpi\n      returndatasize\n      0x00\n      dup1\n      returndatacopy\n      revert(0x00, returndatasize)\n    tag_85:\n      pop\n      pop\n      pop\n      pop\n      mload(0x40)\n      returndatasize\n      not(0x1f)\n      0x1f\n      dup3\n      add\n      and\n      dup3\n      add\n      dup1\n      0x40\n      mstore\n      pop\n      dup2\n      add\n      swap1\n      tag_86\n      swap2\n      swap1\n      tag_87\n      jump\t// in\n    tag_86:\n        /* \"backend/contracts/PawPrints.sol\":2633:2698  bool manualCheckPass = insurance(insuranceAddress).checkExpired() */\n      swap1\n      pop\n        /* \"backend/contracts/PawPrints.sol\":2711:2726  manualCheckPass */\n      dup1\n        /* \"backend/contracts/PawPrints.sol\":2708:2808  if(manualCheckPass){... */\n      iszero\n      tag_88\n      jumpi\n        /* \"backend/contracts/PawPrints.sol\":2749:2772  State.insuranceVerified */\n      0x02\n        /* \"backend/contracts/PawPrints.sol\":2741:2746  state */\n      0x04\n      0x00\n        /* \"backend/contracts/PawPrints.sol\":2741:2772  state = State.insuranceVerified */\n      0x0100\n      exp\n      dup2\n      sload\n      dup2\n      0xff\n      mul\n      not\n      and\n      swap1\n      dup4\n      0x04\n      dup2\n      gt\n      iszero\n      tag_89\n      jumpi\n      tag_90\n      tag_64\n      jump\t// in\n    tag_90:\n    tag_89:\n      mul\n      or\n      swap1\n      sstore\n      pop\n        /* \"backend/contracts/PawPrints.sol\":2793:2797  true */\n      0x01\n        /* \"backend/contracts/PawPrints.sol\":2786:2797  return true */\n      swap3\n      pop\n      pop\n      jump(tag_82)\n        /* \"backend/contracts/PawPrints.sol\":2708:2808  if(manualCheckPass){... */\n    tag_88:\n        /* \"backend/contracts/PawPrints.sol\":2824:2829  false */\n      0x00\n        /* \"backend/contracts/PawPrints.sol\":2817:2829  return false */\n      swap3\n      pop\n      pop\n        /* \"backend/contracts/PawPrints.sol\":852:853  _ */\n    tag_82:\n        /* \"backend/contracts/PawPrints.sol\":1384:1385  _ */\n      pop\n        /* \"backend/contracts/PawPrints.sol\":2213:2836  function verify (uint _ownerId, uint _petId, address insuranceAddress, bool overR)... */\n      swap5\n      swap4\n      pop\n      pop\n      pop\n      pop\n      jump\t// out\n        /* \"backend/contracts/PawPrints.sol\":1944:2115  function setInsurance (address insuranceAddress) ... */\n    tag_37:\n        /* \"backend/contracts/PawPrints.sol\":931:948  insuranceProvider */\n      0x01\n      0x00\n      swap1\n      sload\n      swap1\n      0x0100\n      exp\n      swap1\n      div\n      0xffffffffffffffffffffffffffffffffffffffff\n      and\n        /* \"backend/contracts/PawPrints.sol\":917:948  msg.sender != insuranceProvider */\n      0xffffffffffffffffffffffffffffffffffffffff\n      and\n        /* \"backend/contracts/PawPrints.sol\":917:927  msg.sender */\n      caller\n        /* \"backend/contracts/PawPrints.sol\":917:948  msg.sender != insuranceProvider */\n      0xffffffffffffffffffffffffffffffffffffffff\n      and\n      eq\n      iszero\n        /* \"backend/contracts/PawPrints.sol\":917:974  msg.sender != insuranceProvider && msg.sender != hospital */\n      dup1\n      iszero\n      tag_92\n      jumpi\n      pop\n        /* \"backend/contracts/PawPrints.sol\":966:974  hospital */\n      0x02\n      0x00\n      swap1\n      sload\n      swap1\n      0x0100\n      exp\n      swap1\n      div\n      0xffffffffffffffffffffffffffffffffffffffff\n      and\n        /* \"backend/contracts/PawPrints.sol\":952:974  msg.sender != hospital */\n      0xffffffffffffffffffffffffffffffffffffffff\n      and\n        /* \"backend/contracts/PawPrints.sol\":952:962  msg.sender */\n      caller\n        /* \"backend/contracts/PawPrints.sol\":952:974  msg.sender != hospital */\n      0xffffffffffffffffffffffffffffffffffffffff\n      and\n      eq\n      iszero\n        /* \"backend/contracts/PawPrints.sol\":917:974  msg.sender != insuranceProvider && msg.sender != hospital */\n    tag_92:\n        /* \"backend/contracts/PawPrints.sol\":896:1029  require(... */\n      tag_93\n      jumpi\n      mload(0x40)\n      0x08c379a000000000000000000000000000000000000000000000000000000000\n      dup2\n      mstore\n      0x04\n      add\n      tag_94\n      swap1\n      tag_95\n      jump\t// in\n    tag_94:\n      mload(0x40)\n      dup1\n      swap2\n      sub\n      swap1\n      revert\n    tag_93:\n        /* \"backend/contracts/PawPrints.sol\":2050:2066  insuranceAddress */\n      dup1\n        /* \"backend/contracts/PawPrints.sol\":2030:2047  insuranceProvider */\n      0x01\n      0x00\n        /* \"backend/contracts/PawPrints.sol\":2030:2066  insuranceProvider = insuranceAddress */\n      0x0100\n      exp\n      dup2\n      sload\n      dup2\n      0xffffffffffffffffffffffffffffffffffffffff\n      mul\n      not\n      and\n      swap1\n      dup4\n      0xffffffffffffffffffffffffffffffffffffffff\n      and\n      mul\n      or\n      swap1\n      sstore\n      pop\n        /* \"backend/contracts/PawPrints.sol\":2085:2108  State.insuranceProvided */\n      0x01\n        /* \"backend/contracts/PawPrints.sol\":2077:2082  state */\n      0x04\n      0x00\n        /* \"backend/contracts/PawPrints.sol\":2077:2108  state = State.insuranceProvided */\n      0x0100\n      exp\n      dup2\n      sload\n      dup2\n      0xff\n      mul\n      not\n      and\n      swap1\n      dup4\n      0x04\n      dup2\n      gt\n      iszero\n      tag_97\n      jumpi\n      tag_98\n      tag_64\n      jump\t// in\n    tag_98:\n    tag_97:\n      mul\n      or\n      swap1\n      sstore\n      pop\n        /* \"backend/contracts/PawPrints.sol\":1944:2115  function setInsurance (address insuranceAddress) ... */\n      pop\n      jump\t// out\n        /* \"backend/contracts/PawPrints.sol\":126:146  address public owner */\n    tag_39:\n      0x00\n      dup1\n      sload\n      swap1\n      0x0100\n      exp\n      swap1\n      div\n      0xffffffffffffffffffffffffffffffffffffffff\n      and\n      dup2\n      jump\t// out\n        /* \"backend/contracts/PawPrints.sol\":152:184  address public insuranceProvider */\n    tag_43:\n      0x01\n      0x00\n      swap1\n      sload\n      swap1\n      0x0100\n      exp\n      swap1\n      div\n      0xffffffffffffffffffffffffffffffffffffffff\n      and\n      dup2\n      jump\t// out\n        /* \"backend/contracts/PawPrints.sol\":190:213  address public hospital */\n    tag_46:\n      0x02\n      0x00\n      swap1\n      sload\n      swap1\n      0x0100\n      exp\n      swap1\n      div\n      0xffffffffffffffffffffffffffffffffffffffff\n      and\n      dup2\n      jump\t// out\n        /* \"backend/contracts/PawPrints.sol\":606:624  State public state */\n    tag_49:\n      0x04\n      0x00\n      swap1\n      sload\n      swap1\n      0x0100\n      exp\n      swap1\n      div\n      0xff\n      and\n      dup2\n      jump\t// out\n        /* \"backend/contracts/PawPrints.sol\":3050:3238  function reimbursement () ... */\n    tag_53:\n        /* \"backend/contracts/PawPrints.sol\":1293:1310  insuranceProvider */\n      0x01\n      0x00\n      swap1\n      sload\n      swap1\n      0x0100\n      exp\n      swap1\n      div\n      0xffffffffffffffffffffffffffffffffffffffff\n      and\n        /* \"backend/contracts/PawPrints.sol\":1279:1310  msg.sender == insuranceProvider */\n      0xffffffffffffffffffffffffffffffffffffffff\n      and\n        /* \"backend/contracts/PawPrints.sol\":1279:1289  msg.sender */\n      caller\n        /* \"backend/contracts/PawPrints.sol\":1279:1310  msg.sender == insuranceProvider */\n      0xffffffffffffffffffffffffffffffffffffffff\n      and\n      eq\n        /* \"backend/contracts/PawPrints.sol\":1258:1374  require(... */\n      tag_100\n      jumpi\n      mload(0x40)\n      0x08c379a000000000000000000000000000000000000000000000000000000000\n      dup2\n      mstore\n      0x04\n      add\n      tag_101\n      swap1\n      tag_68\n      jump\t// in\n    tag_101:\n      mload(0x40)\n      dup1\n      swap2\n      sub\n      swap1\n      revert\n    tag_100:\n        /* \"backend/contracts/PawPrints.sol\":3139:3162  State.insuranceVerified */\n      0x02\n        /* \"backend/contracts/PawPrints.sol\":761:767  _state */\n      dup1\n        /* \"backend/contracts/PawPrints.sol\":752:767  state == _state */\n      0x04\n      dup2\n      gt\n      iszero\n      tag_103\n      jumpi\n      tag_104\n      tag_64\n      jump\t// in\n    tag_104:\n    tag_103:\n        /* \"backend/contracts/PawPrints.sol\":752:757  state */\n      0x04\n      0x00\n      swap1\n      sload\n      swap1\n      0x0100\n      exp\n      swap1\n      div\n      0xff\n      and\n        /* \"backend/contracts/PawPrints.sol\":752:767  state == _state */\n      0x04\n      dup2\n      gt\n      iszero\n      tag_105\n      jumpi\n      tag_106\n      tag_64\n      jump\t// in\n    tag_106:\n    tag_105:\n      eq\n        /* \"backend/contracts/PawPrints.sol\":752:792  state == _state && state!= State.invalid */\n      dup1\n      iszero\n      tag_107\n      jumpi\n      pop\n        /* \"backend/contracts/PawPrints.sol\":779:792  State.invalid */\n      0x04\n        /* \"backend/contracts/PawPrints.sol\":771:792  state!= State.invalid */\n      dup1\n      dup2\n      gt\n      iszero\n      tag_108\n      jumpi\n      tag_109\n      tag_64\n      jump\t// in\n    tag_109:\n    tag_108:\n        /* \"backend/contracts/PawPrints.sol\":771:776  state */\n      0x04\n      0x00\n      swap1\n      sload\n      swap1\n      0x0100\n      exp\n      swap1\n      div\n      0xff\n      and\n        /* \"backend/contracts/PawPrints.sol\":771:792  state!= State.invalid */\n      0x04\n      dup2\n      gt\n      iszero\n      tag_110\n      jumpi\n      tag_111\n      tag_64\n      jump\t// in\n    tag_111:\n    tag_110:\n      eq\n      iszero\n        /* \"backend/contracts/PawPrints.sol\":752:792  state == _state && state!= State.invalid */\n    tag_107:\n        /* \"backend/contracts/PawPrints.sol\":731:842  require(... */\n      tag_112\n      jumpi\n      mload(0x40)\n      0x08c379a000000000000000000000000000000000000000000000000000000000\n      dup2\n      mstore\n      0x04\n      add\n      tag_113\n      swap1\n      tag_81\n      jump\t// in\n    tag_113:\n      mload(0x40)\n      dup1\n      swap2\n      sub\n      swap1\n      revert\n    tag_112:\n        /* \"backend/contracts/PawPrints.sol\":3184:3196  reimbursed() */\n      0x61e2929ac66c18729e4b0d88c57278b64a58b35bbb02d8561220164d475c5f5d\n      mload(0x40)\n      mload(0x40)\n      dup1\n      swap2\n      sub\n      swap1\n      log1\n        /* \"backend/contracts/PawPrints.sol\":3215:3231  State.reimbursed */\n      0x03\n        /* \"backend/contracts/PawPrints.sol\":3207:3212  state */\n      0x04\n      0x00\n        /* \"backend/contracts/PawPrints.sol\":3207:3231  state = State.reimbursed */\n      0x0100\n      exp\n      dup2\n      sload\n      dup2\n      0xff\n      mul\n      not\n      and\n      swap1\n      dup4\n      0x04\n      dup2\n      gt\n      iszero\n      tag_115\n      jumpi\n      tag_116\n      tag_64\n      jump\t// in\n    tag_116:\n    tag_115:\n      mul\n      or\n      swap1\n      sstore\n      pop\n        /* \"backend/contracts/PawPrints.sol\":1384:1385  _ */\n      pop\n        /* \"backend/contracts/PawPrints.sol\":3050:3238  function reimbursement () ... */\n      jump\t// out\n    tag_55:\n      mload(0x40)\n      dup1\n      0x80\n      add\n      0x40\n      mstore\n      dup1\n      0x00\n      dup2\n      mstore\n      0x20\n      add\n      0x00\n      dup2\n      mstore\n      0x20\n      add\n      0x00\n      dup2\n      mstore\n      0x20\n      add\n      0x00\n      dup2\n      mstore\n      pop\n      swap1\n      jump\t// out\n        /* \"#utility.yul\":88:205   */\n    tag_118:\n        /* \"#utility.yul\":197:198   */\n      0x00\n        /* \"#utility.yul\":194:195   */\n      dup1\n        /* \"#utility.yul\":187:199   */\n      revert\n        /* \"#utility.yul\":334:411   */\n    tag_120:\n        /* \"#utility.yul\":371:378   */\n      0x00\n        /* \"#utility.yul\":400:405   */\n      dup2\n        /* \"#utility.yul\":389:405   */\n      swap1\n      pop\n        /* \"#utility.yul\":334:411   */\n      swap2\n      swap1\n      pop\n      jump\t// out\n        /* \"#utility.yul\":417:539   */\n    tag_121:\n        /* \"#utility.yul\":490:514   */\n      tag_155\n        /* \"#utility.yul\":508:513   */\n      dup2\n        /* \"#utility.yul\":490:514   */\n      tag_120\n      jump\t// in\n    tag_155:\n        /* \"#utility.yul\":483:488   */\n      dup2\n        /* \"#utility.yul\":480:515   */\n      eq\n        /* \"#utility.yul\":470:533   */\n      tag_156\n      jumpi\n        /* \"#utility.yul\":529:530   */\n      0x00\n        /* \"#utility.yul\":526:527   */\n      dup1\n        /* \"#utility.yul\":519:531   */\n      revert\n        /* \"#utility.yul\":470:533   */\n    tag_156:\n        /* \"#utility.yul\":417:539   */\n      pop\n      jump\t// out\n        /* \"#utility.yul\":545:684   */\n    tag_122:\n        /* \"#utility.yul\":591:596   */\n      0x00\n        /* \"#utility.yul\":629:635   */\n      dup2\n        /* \"#utility.yul\":616:636   */\n      calldataload\n        /* \"#utility.yul\":607:636   */\n      swap1\n      pop\n        /* \"#utility.yul\":645:678   */\n      tag_158\n        /* \"#utility.yul\":672:677   */\n      dup2\n        /* \"#utility.yul\":645:678   */\n      tag_121\n      jump\t// in\n    tag_158:\n        /* \"#utility.yul\":545:684   */\n      swap3\n      swap2\n      pop\n      pop\n      jump\t// out\n        /* \"#utility.yul\":690:1019   */\n    tag_16:\n        /* \"#utility.yul\":749:755   */\n      0x00\n        /* \"#utility.yul\":798:800   */\n      0x20\n        /* \"#utility.yul\":786:795   */\n      dup3\n        /* \"#utility.yul\":777:784   */\n      dup5\n        /* \"#utility.yul\":773:796   */\n      sub\n        /* \"#utility.yul\":769:801   */\n      slt\n        /* \"#utility.yul\":766:885   */\n      iszero\n      tag_160\n      jumpi\n        /* \"#utility.yul\":804:883   */\n      tag_161\n      tag_118\n      jump\t// in\n    tag_161:\n        /* \"#utility.yul\":766:885   */\n    tag_160:\n        /* \"#utility.yul\":924:925   */\n      0x00\n        /* \"#utility.yul\":949:1002   */\n      tag_162\n        /* \"#utility.yul\":994:1001   */\n      dup5\n        /* \"#utility.yul\":985:991   */\n      dup3\n        /* \"#utility.yul\":974:983   */\n      dup6\n        /* \"#utility.yul\":970:992   */\n      add\n        /* \"#utility.yul\":949:1002   */\n      tag_122\n      jump\t// in\n    tag_162:\n        /* \"#utility.yul\":939:1002   */\n      swap2\n      pop\n        /* \"#utility.yul\":895:1012   */\n      pop\n        /* \"#utility.yul\":690:1019   */\n      swap3\n      swap2\n      pop\n      pop\n      jump\t// out\n        /* \"#utility.yul\":1025:1143   */\n    tag_123:\n        /* \"#utility.yul\":1112:1136   */\n      tag_164\n        /* \"#utility.yul\":1130:1135   */\n      dup2\n        /* \"#utility.yul\":1112:1136   */\n      tag_120\n      jump\t// in\n    tag_164:\n        /* \"#utility.yul\":1107:1110   */\n      dup3\n        /* \"#utility.yul\":1100:1137   */\n      mstore\n        /* \"#utility.yul\":1025:1143   */\n      pop\n      pop\n      jump\t// out\n        /* \"#utility.yul\":1149:1702   */\n    tag_19:\n        /* \"#utility.yul\":1326:1330   */\n      0x00\n        /* \"#utility.yul\":1364:1367   */\n      0x80\n        /* \"#utility.yul\":1353:1362   */\n      dup3\n        /* \"#utility.yul\":1349:1368   */\n      add\n        /* \"#utility.yul\":1341:1368   */\n      swap1\n      pop\n        /* \"#utility.yul\":1378:1449   */\n      tag_166\n        /* \"#utility.yul\":1446:1447   */\n      0x00\n        /* \"#utility.yul\":1435:1444   */\n      dup4\n        /* \"#utility.yul\":1431:1448   */\n      add\n        /* \"#utility.yul\":1422:1428   */\n      dup8\n        /* \"#utility.yul\":1378:1449   */\n      tag_123\n      jump\t// in\n    tag_166:\n        /* \"#utility.yul\":1459:1531   */\n      tag_167\n        /* \"#utility.yul\":1527:1529   */\n      0x20\n        /* \"#utility.yul\":1516:1525   */\n      dup4\n        /* \"#utility.yul\":1512:1530   */\n      add\n        /* \"#utility.yul\":1503:1509   */\n      dup7\n        /* \"#utility.yul\":1459:1531   */\n      tag_123\n      jump\t// in\n    tag_167:\n        /* \"#utility.yul\":1541:1613   */\n      tag_168\n        /* \"#utility.yul\":1609:1611   */\n      0x40\n        /* \"#utility.yul\":1598:1607   */\n      dup4\n        /* \"#utility.yul\":1594:1612   */\n      add\n        /* \"#utility.yul\":1585:1591   */\n      dup6\n        /* \"#utility.yul\":1541:1613   */\n      tag_123\n      jump\t// in\n    tag_168:\n        /* \"#utility.yul\":1623:1695   */\n      tag_169\n        /* \"#utility.yul\":1691:1693   */\n      0x60\n        /* \"#utility.yul\":1680:1689   */\n      dup4\n        /* \"#utility.yul\":1676:1694   */\n      add\n        /* \"#utility.yul\":1667:1673   */\n      dup5\n        /* \"#utility.yul\":1623:1695   */\n      tag_123\n      jump\t// in\n    tag_169:\n        /* \"#utility.yul\":1149:1702   */\n      swap6\n      swap5\n      pop\n      pop\n      pop\n      pop\n      pop\n      jump\t// out\n        /* \"#utility.yul\":1708:1816   */\n    tag_124:\n        /* \"#utility.yul\":1785:1809   */\n      tag_171\n        /* \"#utility.yul\":1803:1808   */\n      dup2\n        /* \"#utility.yul\":1785:1809   */\n      tag_120\n      jump\t// in\n    tag_171:\n        /* \"#utility.yul\":1780:1783   */\n      dup3\n        /* \"#utility.yul\":1773:1810   */\n      mstore\n        /* \"#utility.yul\":1708:1816   */\n      pop\n      pop\n      jump\t// out\n        /* \"#utility.yul\":1894:2771   */\n    tag_125:\n        /* \"#utility.yul\":2049:2053   */\n      0x80\n        /* \"#utility.yul\":2044:2047   */\n      dup3\n        /* \"#utility.yul\":2040:2054   */\n      add\n        /* \"#utility.yul\":2139:2143   */\n      0x00\n        /* \"#utility.yul\":2132:2137   */\n      dup3\n        /* \"#utility.yul\":2128:2144   */\n      add\n        /* \"#utility.yul\":2122:2145   */\n      mload\n        /* \"#utility.yul\":2158:2221   */\n      tag_173\n        /* \"#utility.yul\":2215:2219   */\n      0x00\n        /* \"#utility.yul\":2210:2213   */\n      dup6\n        /* \"#utility.yul\":2206:2220   */\n      add\n        /* \"#utility.yul\":2192:2204   */\n      dup3\n        /* \"#utility.yul\":2158:2221   */\n      tag_124\n      jump\t// in\n    tag_173:\n        /* \"#utility.yul\":2064:2231   */\n      pop\n        /* \"#utility.yul\":2314:2318   */\n      0x20\n        /* \"#utility.yul\":2307:2312   */\n      dup3\n        /* \"#utility.yul\":2303:2319   */\n      add\n        /* \"#utility.yul\":2297:2320   */\n      mload\n        /* \"#utility.yul\":2333:2396   */\n      tag_174\n        /* \"#utility.yul\":2390:2394   */\n      0x20\n        /* \"#utility.yul\":2385:2388   */\n      dup6\n        /* \"#utility.yul\":2381:2395   */\n      add\n        /* \"#utility.yul\":2367:2379   */\n      dup3\n        /* \"#utility.yul\":2333:2396   */\n      tag_124\n      jump\t// in\n    tag_174:\n        /* \"#utility.yul\":2241:2406   */\n      pop\n        /* \"#utility.yul\":2494:2498   */\n      0x40\n        /* \"#utility.yul\":2487:2492   */\n      dup3\n        /* \"#utility.yul\":2483:2499   */\n      add\n        /* \"#utility.yul\":2477:2500   */\n      mload\n        /* \"#utility.yul\":2513:2576   */\n      tag_175\n        /* \"#utility.yul\":2570:2574   */\n      0x40\n        /* \"#utility.yul\":2565:2568   */\n      dup6\n        /* \"#utility.yul\":2561:2575   */\n      add\n        /* \"#utility.yul\":2547:2559   */\n      dup3\n        /* \"#utility.yul\":2513:2576   */\n      tag_124\n      jump\t// in\n    tag_175:\n        /* \"#utility.yul\":2416:2586   */\n      pop\n        /* \"#utility.yul\":2672:2676   */\n      0x60\n        /* \"#utility.yul\":2665:2670   */\n      dup3\n        /* \"#utility.yul\":2661:2677   */\n      add\n        /* \"#utility.yul\":2655:2678   */\n      mload\n        /* \"#utility.yul\":2691:2754   */\n      tag_176\n        /* \"#utility.yul\":2748:2752   */\n      0x60\n        /* \"#utility.yul\":2743:2746   */\n      dup6\n        /* \"#utility.yul\":2739:2753   */\n      add\n        /* \"#utility.yul\":2725:2737   */\n      dup3\n        /* \"#utility.yul\":2691:2754   */\n      tag_124\n      jump\t// in\n    tag_176:\n        /* \"#utility.yul\":2596:2764   */\n      pop\n        /* \"#utility.yul\":2018:2771   */\n      pop\n        /* \"#utility.yul\":1894:2771   */\n      pop\n      pop\n      jump\t// out\n        /* \"#utility.yul\":2777:3116   */\n    tag_23:\n        /* \"#utility.yul\":2928:2932   */\n      0x00\n        /* \"#utility.yul\":2966:2969   */\n      0x80\n        /* \"#utility.yul\":2955:2964   */\n      dup3\n        /* \"#utility.yul\":2951:2970   */\n      add\n        /* \"#utility.yul\":2943:2970   */\n      swap1\n      pop\n        /* \"#utility.yul\":2980:3109   */\n      tag_178\n        /* \"#utility.yul\":3106:3107   */\n      0x00\n        /* \"#utility.yul\":3095:3104   */\n      dup4\n        /* \"#utility.yul\":3091:3108   */\n      add\n        /* \"#utility.yul\":3082:3088   */\n      dup5\n        /* \"#utility.yul\":2980:3109   */\n      tag_125\n      jump\t// in\n    tag_178:\n        /* \"#utility.yul\":2777:3116   */\n      swap3\n      swap2\n      pop\n      pop\n      jump\t// out\n        /* \"#utility.yul\":3122:3248   */\n    tag_126:\n        /* \"#utility.yul\":3159:3166   */\n      0x00\n        /* \"#utility.yul\":3199:3241   */\n      0xffffffffffffffffffffffffffffffffffffffff\n        /* \"#utility.yul\":3192:3197   */\n      dup3\n        /* \"#utility.yul\":3188:3242   */\n      and\n        /* \"#utility.yul\":3177:3242   */\n      swap1\n      pop\n        /* \"#utility.yul\":3122:3248   */\n      swap2\n      swap1\n      pop\n      jump\t// out\n        /* \"#utility.yul\":3254:3350   */\n    tag_127:\n        /* \"#utility.yul\":3291:3298   */\n      0x00\n        /* \"#utility.yul\":3320:3344   */\n      tag_181\n        /* \"#utility.yul\":3338:3343   */\n      dup3\n        /* \"#utility.yul\":3320:3344   */\n      tag_126\n      jump\t// in\n    tag_181:\n        /* \"#utility.yul\":3309:3344   */\n      swap1\n      pop\n        /* \"#utility.yul\":3254:3350   */\n      swap2\n      swap1\n      pop\n      jump\t// out\n        /* \"#utility.yul\":3356:3478   */\n    tag_128:\n        /* \"#utility.yul\":3429:3453   */\n      tag_183\n        /* \"#utility.yul\":3447:3452   */\n      dup2\n        /* \"#utility.yul\":3429:3453   */\n      tag_127\n      jump\t// in\n    tag_183:\n        /* \"#utility.yul\":3422:3427   */\n      dup2\n        /* \"#utility.yul\":3419:3454   */\n      eq\n        /* \"#utility.yul\":3409:3472   */\n      tag_184\n      jumpi\n        /* \"#utility.yul\":3468:3469   */\n      0x00\n        /* \"#utility.yul\":3465:3466   */\n      dup1\n        /* \"#utility.yul\":3458:3470   */\n      revert\n        /* \"#utility.yul\":3409:3472   */\n    tag_184:\n        /* \"#utility.yul\":3356:3478   */\n      pop\n      jump\t// out\n        /* \"#utility.yul\":3484:3623   */\n    tag_129:\n        /* \"#utility.yul\":3530:3535   */\n      0x00\n        /* \"#utility.yul\":3568:3574   */\n      dup2\n        /* \"#utility.yul\":3555:3575   */\n      calldataload\n        /* \"#utility.yul\":3546:3575   */\n      swap1\n      pop\n        /* \"#utility.yul\":3584:3617   */\n      tag_186\n        /* \"#utility.yul\":3611:3616   */\n      dup2\n        /* \"#utility.yul\":3584:3617   */\n      tag_128\n      jump\t// in\n    tag_186:\n        /* \"#utility.yul\":3484:3623   */\n      swap3\n      swap2\n      pop\n      pop\n      jump\t// out\n        /* \"#utility.yul\":3629:4540   */\n    tag_26:\n        /* \"#utility.yul\":3724:3730   */\n      0x00\n        /* \"#utility.yul\":3732:3738   */\n      dup1\n        /* \"#utility.yul\":3740:3746   */\n      0x00\n        /* \"#utility.yul\":3748:3754   */\n      dup1\n        /* \"#utility.yul\":3756:3762   */\n      0x00\n        /* \"#utility.yul\":3805:3808   */\n      0xa0\n        /* \"#utility.yul\":3793:3802   */\n      dup7\n        /* \"#utility.yul\":3784:3791   */\n      dup9\n        /* \"#utility.yul\":3780:3803   */\n      sub\n        /* \"#utility.yul\":3776:3809   */\n      slt\n        /* \"#utility.yul\":3773:3893   */\n      iszero\n      tag_188\n      jumpi\n        /* \"#utility.yul\":3812:3891   */\n      tag_189\n      tag_118\n      jump\t// in\n    tag_189:\n        /* \"#utility.yul\":3773:3893   */\n    tag_188:\n        /* \"#utility.yul\":3932:3933   */\n      0x00\n        /* \"#utility.yul\":3957:4010   */\n      tag_190\n        /* \"#utility.yul\":4002:4009   */\n      dup9\n        /* \"#utility.yul\":3993:3999   */\n      dup3\n        /* \"#utility.yul\":3982:3991   */\n      dup10\n        /* \"#utility.yul\":3978:4000   */\n      add\n        /* \"#utility.yul\":3957:4010   */\n      tag_122\n      jump\t// in\n    tag_190:\n        /* \"#utility.yul\":3947:4010   */\n      swap6\n      pop\n        /* \"#utility.yul\":3903:4020   */\n      pop\n        /* \"#utility.yul\":4059:4061   */\n      0x20\n        /* \"#utility.yul\":4085:4138   */\n      tag_191\n        /* \"#utility.yul\":4130:4137   */\n      dup9\n        /* \"#utility.yul\":4121:4127   */\n      dup3\n        /* \"#utility.yul\":4110:4119   */\n      dup10\n        /* \"#utility.yul\":4106:4128   */\n      add\n        /* \"#utility.yul\":4085:4138   */\n      tag_122\n      jump\t// in\n    tag_191:\n        /* \"#utility.yul\":4075:4138   */\n      swap5\n      pop\n        /* \"#utility.yul\":4030:4148   */\n      pop\n        /* \"#utility.yul\":4187:4189   */\n      0x40\n        /* \"#utility.yul\":4213:4266   */\n      tag_192\n        /* \"#utility.yul\":4258:4265   */\n      dup9\n        /* \"#utility.yul\":4249:4255   */\n      dup3\n        /* \"#utility.yul\":4238:4247   */\n      dup10\n        /* \"#utility.yul\":4234:4256   */\n      add\n        /* \"#utility.yul\":4213:4266   */\n      tag_122\n      jump\t// in\n    tag_192:\n        /* \"#utility.yul\":4203:4266   */\n      swap4\n      pop\n        /* \"#utility.yul\":4158:4276   */\n      pop\n        /* \"#utility.yul\":4315:4317   */\n      0x60\n        /* \"#utility.yul\":4341:4394   */\n      tag_193\n        /* \"#utility.yul\":4386:4393   */\n      dup9\n        /* \"#utility.yul\":4377:4383   */\n      dup3\n        /* \"#utility.yul\":4366:4375   */\n      dup10\n        /* \"#utility.yul\":4362:4384   */\n      add\n        /* \"#utility.yul\":4341:4394   */\n      tag_122\n      jump\t// in\n    tag_193:\n        /* \"#utility.yul\":4331:4394   */\n      swap3\n      pop\n        /* \"#utility.yul\":4286:4404   */\n      pop\n        /* \"#utility.yul\":4443:4446   */\n      0x80\n        /* \"#utility.yul\":4470:4523   */\n      tag_194\n        /* \"#utility.yul\":4515:4522   */\n      dup9\n        /* \"#utility.yul\":4506:4512   */\n      dup3\n        /* \"#utility.yul\":4495:4504   */\n      dup10\n        /* \"#utility.yul\":4491:4513   */\n      add\n        /* \"#utility.yul\":4470:4523   */\n      tag_129\n      jump\t// in\n    tag_194:\n        /* \"#utility.yul\":4460:4523   */\n      swap2\n      pop\n        /* \"#utility.yul\":4414:4533   */\n      pop\n        /* \"#utility.yul\":3629:4540   */\n      swap3\n      swap6\n      pop\n      swap3\n      swap6\n      swap1\n      swap4\n      pop\n      jump\t// out\n        /* \"#utility.yul\":4546:4636   */\n    tag_130:\n        /* \"#utility.yul\":4580:4587   */\n      0x00\n        /* \"#utility.yul\":4623:4628   */\n      dup2\n        /* \"#utility.yul\":4616:4629   */\n      iszero\n        /* \"#utility.yul\":4609:4630   */\n      iszero\n        /* \"#utility.yul\":4598:4630   */\n      swap1\n      pop\n        /* \"#utility.yul\":4546:4636   */\n      swap2\n      swap1\n      pop\n      jump\t// out\n        /* \"#utility.yul\":4642:4758   */\n    tag_131:\n        /* \"#utility.yul\":4712:4733   */\n      tag_197\n        /* \"#utility.yul\":4727:4732   */\n      dup2\n        /* \"#utility.yul\":4712:4733   */\n      tag_130\n      jump\t// in\n    tag_197:\n        /* \"#utility.yul\":4705:4710   */\n      dup2\n        /* \"#utility.yul\":4702:4734   */\n      eq\n        /* \"#utility.yul\":4692:4752   */\n      tag_198\n      jumpi\n        /* \"#utility.yul\":4748:4749   */\n      0x00\n        /* \"#utility.yul\":4745:4746   */\n      dup1\n        /* \"#utility.yul\":4738:4750   */\n      revert\n        /* \"#utility.yul\":4692:4752   */\n    tag_198:\n        /* \"#utility.yul\":4642:4758   */\n      pop\n      jump\t// out\n        /* \"#utility.yul\":4764:4897   */\n    tag_132:\n        /* \"#utility.yul\":4807:4812   */\n      0x00\n        /* \"#utility.yul\":4845:4851   */\n      dup2\n        /* \"#utility.yul\":4832:4852   */\n      calldataload\n        /* \"#utility.yul\":4823:4852   */\n      swap1\n      pop\n        /* \"#utility.yul\":4861:4891   */\n      tag_200\n        /* \"#utility.yul\":4885:4890   */\n      dup2\n        /* \"#utility.yul\":4861:4891   */\n      tag_131\n      jump\t// in\n    tag_200:\n        /* \"#utility.yul\":4764:4897   */\n      swap3\n      swap2\n      pop\n      pop\n      jump\t// out\n        /* \"#utility.yul\":4903:5662   */\n    tag_30:\n        /* \"#utility.yul\":4986:4992   */\n      0x00\n        /* \"#utility.yul\":4994:5000   */\n      dup1\n        /* \"#utility.yul\":5002:5008   */\n      0x00\n        /* \"#utility.yul\":5010:5016   */\n      dup1\n        /* \"#utility.yul\":5059:5062   */\n      0x80\n        /* \"#utility.yul\":5047:5056   */\n      dup6\n        /* \"#utility.yul\":5038:5045   */\n      dup8\n        /* \"#utility.yul\":5034:5057   */\n      sub\n        /* \"#utility.yul\":5030:5063   */\n      slt\n        /* \"#utility.yul\":5027:5147   */\n      iszero\n      tag_202\n      jumpi\n        /* \"#utility.yul\":5066:5145   */\n      tag_203\n      tag_118\n      jump\t// in\n    tag_203:\n        /* \"#utility.yul\":5027:5147   */\n    tag_202:\n        /* \"#utility.yul\":5186:5187   */\n      0x00\n        /* \"#utility.yul\":5211:5264   */\n      tag_204\n        /* \"#utility.yul\":5256:5263   */\n      dup8\n        /* \"#utility.yul\":5247:5253   */\n      dup3\n        /* \"#utility.yul\":5236:5245   */\n      dup9\n        /* \"#utility.yul\":5232:5254   */\n      add\n        /* \"#utility.yul\":5211:5264   */\n      tag_122\n      jump\t// in\n    tag_204:\n        /* \"#utility.yul\":5201:5264   */\n      swap5\n      pop\n        /* \"#utility.yul\":5157:5274   */\n      pop\n        /* \"#utility.yul\":5313:5315   */\n      0x20\n        /* \"#utility.yul\":5339:5392   */\n      tag_205\n        /* \"#utility.yul\":5384:5391   */\n      dup8\n        /* \"#utility.yul\":5375:5381   */\n      dup3\n        /* \"#utility.yul\":5364:5373   */\n      dup9\n        /* \"#utility.yul\":5360:5382   */\n      add\n        /* \"#utility.yul\":5339:5392   */\n      tag_122\n      jump\t// in\n    tag_205:\n        /* \"#utility.yul\":5329:5392   */\n      swap4\n      pop\n        /* \"#utility.yul\":5284:5402   */\n      pop\n        /* \"#utility.yul\":5441:5443   */\n      0x40\n        /* \"#utility.yul\":5467:5520   */\n      tag_206\n        /* \"#utility.yul\":5512:5519   */\n      dup8\n        /* \"#utility.yul\":5503:5509   */\n      dup3\n        /* \"#utility.yul\":5492:5501   */\n      dup9\n        /* \"#utility.yul\":5488:5510   */\n      add\n        /* \"#utility.yul\":5467:5520   */\n      tag_129\n      jump\t// in\n    tag_206:\n        /* \"#utility.yul\":5457:5520   */\n      swap3\n      pop\n        /* \"#utility.yul\":5412:5530   */\n      pop\n        /* \"#utility.yul\":5569:5571   */\n      0x60\n        /* \"#utility.yul\":5595:5645   */\n      tag_207\n        /* \"#utility.yul\":5637:5644   */\n      dup8\n        /* \"#utility.yul\":5628:5634   */\n      dup3\n        /* \"#utility.yul\":5617:5626   */\n      dup9\n        /* \"#utility.yul\":5613:5635   */\n      add\n        /* \"#utility.yul\":5595:5645   */\n      tag_132\n      jump\t// in\n    tag_207:\n        /* \"#utility.yul\":5585:5645   */\n      swap2\n      pop\n        /* \"#utility.yul\":5540:5655   */\n      pop\n        /* \"#utility.yul\":4903:5662   */\n      swap3\n      swap6\n      swap2\n      swap5\n      pop\n      swap3\n      pop\n      jump\t// out\n        /* \"#utility.yul\":5668:5777   */\n    tag_133:\n        /* \"#utility.yul\":5749:5770   */\n      tag_209\n        /* \"#utility.yul\":5764:5769   */\n      dup2\n        /* \"#utility.yul\":5749:5770   */\n      tag_130\n      jump\t// in\n    tag_209:\n        /* \"#utility.yul\":5744:5747   */\n      dup3\n        /* \"#utility.yul\":5737:5771   */\n      mstore\n        /* \"#utility.yul\":5668:5777   */\n      pop\n      pop\n      jump\t// out\n        /* \"#utility.yul\":5783:5993   */\n    tag_33:\n        /* \"#utility.yul\":5870:5874   */\n      0x00\n        /* \"#utility.yul\":5908:5910   */\n      0x20\n        /* \"#utility.yul\":5897:5906   */\n      dup3\n        /* \"#utility.yul\":5893:5911   */\n      add\n        /* \"#utility.yul\":5885:5911   */\n      swap1\n      pop\n        /* \"#utility.yul\":5921:5986   */\n      tag_211\n        /* \"#utility.yul\":5983:5984   */\n      0x00\n        /* \"#utility.yul\":5972:5981   */\n      dup4\n        /* \"#utility.yul\":5968:5985   */\n      add\n        /* \"#utility.yul\":5959:5965   */\n      dup5\n        /* \"#utility.yul\":5921:5986   */\n      tag_133\n      jump\t// in\n    tag_211:\n        /* \"#utility.yul\":5783:5993   */\n      swap3\n      swap2\n      pop\n      pop\n      jump\t// out\n        /* \"#utility.yul\":5999:6328   */\n    tag_36:\n        /* \"#utility.yul\":6058:6064   */\n      0x00\n        /* \"#utility.yul\":6107:6109   */\n      0x20\n        /* \"#utility.yul\":6095:6104   */\n      dup3\n        /* \"#utility.yul\":6086:6093   */\n      dup5\n        /* \"#utility.yul\":6082:6105   */\n      sub\n        /* \"#utility.yul\":6078:6110   */\n      slt\n        /* \"#utility.yul\":6075:6194   */\n      iszero\n      tag_213\n      jumpi\n        /* \"#utility.yul\":6113:6192   */\n      tag_214\n      tag_118\n      jump\t// in\n    tag_214:\n        /* \"#utility.yul\":6075:6194   */\n    tag_213:\n        /* \"#utility.yul\":6233:6234   */\n      0x00\n        /* \"#utility.yul\":6258:6311   */\n      tag_215\n        /* \"#utility.yul\":6303:6310   */\n      dup5\n        /* \"#utility.yul\":6294:6300   */\n      dup3\n        /* \"#utility.yul\":6283:6292   */\n      dup6\n        /* \"#utility.yul\":6279:6301   */\n      add\n        /* \"#utility.yul\":6258:6311   */\n      tag_129\n      jump\t// in\n    tag_215:\n        /* \"#utility.yul\":6248:6311   */\n      swap2\n      pop\n        /* \"#utility.yul\":6204:6321   */\n      pop\n        /* \"#utility.yul\":5999:6328   */\n      swap3\n      swap2\n      pop\n      pop\n      jump\t// out\n        /* \"#utility.yul\":6334:6452   */\n    tag_134:\n        /* \"#utility.yul\":6421:6445   */\n      tag_217\n        /* \"#utility.yul\":6439:6444   */\n      dup2\n        /* \"#utility.yul\":6421:6445   */\n      tag_127\n      jump\t// in\n    tag_217:\n        /* \"#utility.yul\":6416:6419   */\n      dup3\n        /* \"#utility.yul\":6409:6446   */\n      mstore\n        /* \"#utility.yul\":6334:6452   */\n      pop\n      pop\n      jump\t// out\n        /* \"#utility.yul\":6458:6680   */\n    tag_41:\n        /* \"#utility.yul\":6551:6555   */\n      0x00\n        /* \"#utility.yul\":6589:6591   */\n      0x20\n        /* \"#utility.yul\":6578:6587   */\n      dup3\n        /* \"#utility.yul\":6574:6592   */\n      add\n        /* \"#utility.yul\":6566:6592   */\n      swap1\n      pop\n        /* \"#utility.yul\":6602:6673   */\n      tag_219\n        /* \"#utility.yul\":6670:6671   */\n      0x00\n        /* \"#utility.yul\":6659:6668   */\n      dup4\n        /* \"#utility.yul\":6655:6672   */\n      add\n        /* \"#utility.yul\":6646:6652   */\n      dup5\n        /* \"#utility.yul\":6602:6673   */\n      tag_134\n      jump\t// in\n    tag_219:\n        /* \"#utility.yul\":6458:6680   */\n      swap3\n      swap2\n      pop\n      pop\n      jump\t// out\n        /* \"#utility.yul\":6686:6866   */\n    tag_64:\n        /* \"#utility.yul\":6734:6811   */\n      0x4e487b7100000000000000000000000000000000000000000000000000000000\n        /* \"#utility.yul\":6731:6732   */\n      0x00\n        /* \"#utility.yul\":6724:6812   */\n      mstore\n        /* \"#utility.yul\":6831:6835   */\n      0x21\n        /* \"#utility.yul\":6828:6829   */\n      0x04\n        /* \"#utility.yul\":6821:6836   */\n      mstore\n        /* \"#utility.yul\":6855:6859   */\n      0x24\n        /* \"#utility.yul\":6852:6853   */\n      0x00\n        /* \"#utility.yul\":6845:6860   */\n      revert\n        /* \"#utility.yul\":6872:6985   */\n    tag_135:\n        /* \"#utility.yul\":6953:6954   */\n      0x05\n        /* \"#utility.yul\":6946:6951   */\n      dup2\n        /* \"#utility.yul\":6943:6955   */\n      lt\n        /* \"#utility.yul\":6933:6979   */\n      tag_222\n      jumpi\n        /* \"#utility.yul\":6959:6977   */\n      tag_223\n      tag_64\n      jump\t// in\n    tag_223:\n        /* \"#utility.yul\":6933:6979   */\n    tag_222:\n        /* \"#utility.yul\":6872:6985   */\n      pop\n      jump\t// out\n        /* \"#utility.yul\":6991:7118   */\n    tag_136:\n        /* \"#utility.yul\":7036:7043   */\n      0x00\n        /* \"#utility.yul\":7065:7070   */\n      dup2\n        /* \"#utility.yul\":7054:7070   */\n      swap1\n      pop\n        /* \"#utility.yul\":7071:7112   */\n      tag_225\n        /* \"#utility.yul\":7106:7111   */\n      dup3\n        /* \"#utility.yul\":7071:7112   */\n      tag_135\n      jump\t// in\n    tag_225:\n        /* \"#utility.yul\":6991:7118   */\n      swap2\n      swap1\n      pop\n      jump\t// out\n        /* \"#utility.yul\":7124:7251   */\n    tag_137:\n        /* \"#utility.yul\":7180:7189   */\n      0x00\n        /* \"#utility.yul\":7213:7245   */\n      tag_227\n        /* \"#utility.yul\":7239:7244   */\n      dup3\n        /* \"#utility.yul\":7213:7245   */\n      tag_136\n      jump\t// in\n    tag_227:\n        /* \"#utility.yul\":7200:7245   */\n      swap1\n      pop\n        /* \"#utility.yul\":7124:7251   */\n      swap2\n      swap1\n      pop\n      jump\t// out\n        /* \"#utility.yul\":7257:7400   */\n    tag_138:\n        /* \"#utility.yul\":7350:7393   */\n      tag_229\n        /* \"#utility.yul\":7387:7392   */\n      dup2\n        /* \"#utility.yul\":7350:7393   */\n      tag_137\n      jump\t// in\n    tag_229:\n        /* \"#utility.yul\":7345:7348   */\n      dup3\n        /* \"#utility.yul\":7338:7394   */\n      mstore\n        /* \"#utility.yul\":7257:7400   */\n      pop\n      pop\n      jump\t// out\n        /* \"#utility.yul\":7406:7640   */\n    tag_51:\n        /* \"#utility.yul\":7505:7509   */\n      0x00\n        /* \"#utility.yul\":7543:7545   */\n      0x20\n        /* \"#utility.yul\":7532:7541   */\n      dup3\n        /* \"#utility.yul\":7528:7546   */\n      add\n        /* \"#utility.yul\":7520:7546   */\n      swap1\n      pop\n        /* \"#utility.yul\":7556:7633   */\n      tag_231\n        /* \"#utility.yul\":7630:7631   */\n      0x00\n        /* \"#utility.yul\":7619:7628   */\n      dup4\n        /* \"#utility.yul\":7615:7632   */\n      add\n        /* \"#utility.yul\":7606:7612   */\n      dup5\n        /* \"#utility.yul\":7556:7633   */\n      tag_138\n      jump\t// in\n    tag_231:\n        /* \"#utility.yul\":7406:7640   */\n      swap3\n      swap2\n      pop\n      pop\n      jump\t// out\n        /* \"#utility.yul\":7646:7815   */\n    tag_139:\n        /* \"#utility.yul\":7730:7741   */\n      0x00\n        /* \"#utility.yul\":7764:7770   */\n      dup3\n        /* \"#utility.yul\":7759:7762   */\n      dup3\n        /* \"#utility.yul\":7752:7771   */\n      mstore\n        /* \"#utility.yul\":7804:7808   */\n      0x20\n        /* \"#utility.yul\":7799:7802   */\n      dup3\n        /* \"#utility.yul\":7795:7809   */\n      add\n        /* \"#utility.yul\":7780:7809   */\n      swap1\n      pop\n        /* \"#utility.yul\":7646:7815   */\n      swap3\n      swap2\n      pop\n      pop\n      jump\t// out\n        /* \"#utility.yul\":7821:7999   */\n    tag_140:\n        /* \"#utility.yul\":7961:7991   */\n      0x4f6e6c7920484f53504954414c2063616e2063616c6c20746869732e00000000\n        /* \"#utility.yul\":7957:7958   */\n      0x00\n        /* \"#utility.yul\":7949:7955   */\n      dup3\n        /* \"#utility.yul\":7945:7959   */\n      add\n        /* \"#utility.yul\":7938:7992   */\n      mstore\n        /* \"#utility.yul\":7821:7999   */\n      pop\n      jump\t// out\n        /* \"#utility.yul\":8005:8371   */\n    tag_141:\n        /* \"#utility.yul\":8147:8150   */\n      0x00\n        /* \"#utility.yul\":8168:8235   */\n      tag_235\n        /* \"#utility.yul\":8232:8234   */\n      0x1c\n        /* \"#utility.yul\":8227:8230   */\n      dup4\n        /* \"#utility.yul\":8168:8235   */\n      tag_139\n      jump\t// in\n    tag_235:\n        /* \"#utility.yul\":8161:8235   */\n      swap2\n      pop\n        /* \"#utility.yul\":8244:8337   */\n      tag_236\n        /* \"#utility.yul\":8333:8336   */\n      dup3\n        /* \"#utility.yul\":8244:8337   */\n      tag_140\n      jump\t// in\n    tag_236:\n        /* \"#utility.yul\":8362:8364   */\n      0x20\n        /* \"#utility.yul\":8357:8360   */\n      dup3\n        /* \"#utility.yul\":8353:8365   */\n      add\n        /* \"#utility.yul\":8346:8365   */\n      swap1\n      pop\n        /* \"#utility.yul\":8005:8371   */\n      swap2\n      swap1\n      pop\n      jump\t// out\n        /* \"#utility.yul\":8377:8796   */\n    tag_60:\n        /* \"#utility.yul\":8543:8547   */\n      0x00\n        /* \"#utility.yul\":8581:8583   */\n      0x20\n        /* \"#utility.yul\":8570:8579   */\n      dup3\n        /* \"#utility.yul\":8566:8584   */\n      add\n        /* \"#utility.yul\":8558:8584   */\n      swap1\n      pop\n        /* \"#utility.yul\":8630:8639   */\n      dup2\n        /* \"#utility.yul\":8624:8628   */\n      dup2\n        /* \"#utility.yul\":8620:8640   */\n      sub\n        /* \"#utility.yul\":8616:8617   */\n      0x00\n        /* \"#utility.yul\":8605:8614   */\n      dup4\n        /* \"#utility.yul\":8601:8618   */\n      add\n        /* \"#utility.yul\":8594:8641   */\n      mstore\n        /* \"#utility.yul\":8658:8789   */\n      tag_238\n        /* \"#utility.yul\":8784:8788   */\n      dup2\n        /* \"#utility.yul\":8658:8789   */\n      tag_141\n      jump\t// in\n    tag_238:\n        /* \"#utility.yul\":8650:8789   */\n      swap1\n      pop\n        /* \"#utility.yul\":8377:8796   */\n      swap2\n      swap1\n      pop\n      jump\t// out\n        /* \"#utility.yul\":8802:9027   */\n    tag_142:\n        /* \"#utility.yul\":8942:8976   */\n      0x4f6e6c7920494e535552414e43452050524f56494445522063616e2063616c6c\n        /* \"#utility.yul\":8938:8939   */\n      0x00\n        /* \"#utility.yul\":8930:8936   */\n      dup3\n        /* \"#utility.yul\":8926:8940   */\n      add\n        /* \"#utility.yul\":8919:8977   */\n      mstore\n        /* \"#utility.yul\":9011:9019   */\n      0x20746869732e0000000000000000000000000000000000000000000000000000\n        /* \"#utility.yul\":9006:9008   */\n      0x20\n        /* \"#utility.yul\":8998:9004   */\n      dup3\n        /* \"#utility.yul\":8994:9009   */\n      add\n        /* \"#utility.yul\":8987:9020   */\n      mstore\n        /* \"#utility.yul\":8802:9027   */\n      pop\n      jump\t// out\n        /* \"#utility.yul\":9033:9399   */\n    tag_143:\n        /* \"#utility.yul\":9175:9178   */\n      0x00\n        /* \"#utility.yul\":9196:9263   */\n      tag_241\n        /* \"#utility.yul\":9260:9262   */\n      0x26\n        /* \"#utility.yul\":9255:9258   */\n      dup4\n        /* \"#utility.yul\":9196:9263   */\n      tag_139\n      jump\t// in\n    tag_241:\n        /* \"#utility.yul\":9189:9263   */\n      swap2\n      pop\n        /* \"#utility.yul\":9272:9365   */\n      tag_242\n        /* \"#utility.yul\":9361:9364   */\n      dup3\n        /* \"#utility.yul\":9272:9365   */\n      tag_142\n      jump\t// in\n    tag_242:\n        /* \"#utility.yul\":9390:9392   */\n      0x40\n        /* \"#utility.yul\":9385:9388   */\n      dup3\n        /* \"#utility.yul\":9381:9393   */\n      add\n        /* \"#utility.yul\":9374:9393   */\n      swap1\n      pop\n        /* \"#utility.yul\":9033:9399   */\n      swap2\n      swap1\n      pop\n      jump\t// out\n        /* \"#utility.yul\":9405:9824   */\n    tag_68:\n        /* \"#utility.yul\":9571:9575   */\n      0x00\n        /* \"#utility.yul\":9609:9611   */\n      0x20\n        /* \"#utility.yul\":9598:9607   */\n      dup3\n        /* \"#utility.yul\":9594:9612   */\n      add\n        /* \"#utility.yul\":9586:9612   */\n      swap1\n      pop\n        /* \"#utility.yul\":9658:9667   */\n      dup2\n        /* \"#utility.yul\":9652:9656   */\n      dup2\n        /* \"#utility.yul\":9648:9668   */\n      sub\n        /* \"#utility.yul\":9644:9645   */\n      0x00\n        /* \"#utility.yul\":9633:9642   */\n      dup4\n        /* \"#utility.yul\":9629:9646   */\n      add\n        /* \"#utility.yul\":9622:9669   */\n      mstore\n        /* \"#utility.yul\":9686:9817   */\n      tag_244\n        /* \"#utility.yul\":9812:9816   */\n      dup2\n        /* \"#utility.yul\":9686:9817   */\n      tag_143\n      jump\t// in\n    tag_244:\n        /* \"#utility.yul\":9678:9817   */\n      swap1\n      pop\n        /* \"#utility.yul\":9405:9824   */\n      swap2\n      swap1\n      pop\n      jump\t// out\n        /* \"#utility.yul\":9830:10004   */\n    tag_144:\n        /* \"#utility.yul\":9970:9996   */\n      0x496e76616c6964206f72204f7574206f662053746174652e0000000000000000\n        /* \"#utility.yul\":9966:9967   */\n      0x00\n        /* \"#utility.yul\":9958:9964   */\n      dup3\n        /* \"#utility.yul\":9954:9968   */\n      add\n        /* \"#utility.yul\":9947:9997   */\n      mstore\n        /* \"#utility.yul\":9830:10004   */\n      pop\n      jump\t// out\n        /* \"#utility.yul\":10010:10376   */\n    tag_145:\n        /* \"#utility.yul\":10152:10155   */\n      0x00\n        /* \"#utility.yul\":10173:10240   */\n      tag_247\n        /* \"#utility.yul\":10237:10239   */\n      0x18\n        /* \"#utility.yul\":10232:10235   */\n      dup4\n        /* \"#utility.yul\":10173:10240   */\n      tag_139\n      jump\t// in\n    tag_247:\n        /* \"#utility.yul\":10166:10240   */\n      swap2\n      pop\n        /* \"#utility.yul\":10249:10342   */\n      tag_248\n        /* \"#utility.yul\":10338:10341   */\n      dup3\n        /* \"#utility.yul\":10249:10342   */\n      tag_144\n      jump\t// in\n    tag_248:\n        /* \"#utility.yul\":10367:10369   */\n      0x20\n        /* \"#utility.yul\":10362:10365   */\n      dup3\n        /* \"#utility.yul\":10358:10370   */\n      add\n        /* \"#utility.yul\":10351:10370   */\n      swap1\n      pop\n        /* \"#utility.yul\":10010:10376   */\n      swap2\n      swap1\n      pop\n      jump\t// out\n        /* \"#utility.yul\":10382:10801   */\n    tag_81:\n        /* \"#utility.yul\":10548:10552   */\n      0x00\n        /* \"#utility.yul\":10586:10588   */\n      0x20\n        /* \"#utility.yul\":10575:10584   */\n      dup3\n        /* \"#utility.yul\":10571:10589   */\n      add\n        /* \"#utility.yul\":10563:10589   */\n      swap1\n      pop\n        /* \"#utility.yul\":10635:10644   */\n      dup2\n        /* \"#utility.yul\":10629:10633   */\n      dup2\n        /* \"#utility.yul\":10625:10645   */\n      sub\n        /* \"#utility.yul\":10621:10622   */\n      0x00\n        /* \"#utility.yul\":10610:10619   */\n      dup4\n        /* \"#utility.yul\":10606:10623   */\n      add\n        /* \"#utility.yul\":10599:10646   */\n      mstore\n        /* \"#utility.yul\":10663:10794   */\n      tag_250\n        /* \"#utility.yul\":10789:10793   */\n      dup2\n        /* \"#utility.yul\":10663:10794   */\n      tag_145\n      jump\t// in\n    tag_250:\n        /* \"#utility.yul\":10655:10794   */\n      swap1\n      pop\n        /* \"#utility.yul\":10382:10801   */\n      swap2\n      swap1\n      pop\n      jump\t// out\n        /* \"#utility.yul\":10807:10944   */\n    tag_146:\n        /* \"#utility.yul\":10861:10866   */\n      0x00\n        /* \"#utility.yul\":10892:10898   */\n      dup2\n        /* \"#utility.yul\":10886:10899   */\n      mload\n        /* \"#utility.yul\":10877:10899   */\n      swap1\n      pop\n        /* \"#utility.yul\":10908:10938   */\n      tag_252\n        /* \"#utility.yul\":10932:10937   */\n      dup2\n        /* \"#utility.yul\":10908:10938   */\n      tag_131\n      jump\t// in\n    tag_252:\n        /* \"#utility.yul\":10807:10944   */\n      swap3\n      swap2\n      pop\n      pop\n      jump\t// out\n        /* \"#utility.yul\":10950:11295   */\n    tag_87:\n        /* \"#utility.yul\":11017:11023   */\n      0x00\n        /* \"#utility.yul\":11066:11068   */\n      0x20\n        /* \"#utility.yul\":11054:11063   */\n      dup3\n        /* \"#utility.yul\":11045:11052   */\n      dup5\n        /* \"#utility.yul\":11041:11064   */\n      sub\n        /* \"#utility.yul\":11037:11069   */\n      slt\n        /* \"#utility.yul\":11034:11153   */\n      iszero\n      tag_254\n      jumpi\n        /* \"#utility.yul\":11072:11151   */\n      tag_255\n      tag_118\n      jump\t// in\n    tag_255:\n        /* \"#utility.yul\":11034:11153   */\n    tag_254:\n        /* \"#utility.yul\":11192:11193   */\n      0x00\n        /* \"#utility.yul\":11217:11278   */\n      tag_256\n        /* \"#utility.yul\":11270:11277   */\n      dup5\n        /* \"#utility.yul\":11261:11267   */\n      dup3\n        /* \"#utility.yul\":11250:11259   */\n      dup6\n        /* \"#utility.yul\":11246:11268   */\n      add\n        /* \"#utility.yul\":11217:11278   */\n      tag_146\n      jump\t// in\n    tag_256:\n        /* \"#utility.yul\":11207:11278   */\n      swap2\n      pop\n        /* \"#utility.yul\":11163:11288   */\n      pop\n        /* \"#utility.yul\":10950:11295   */\n      swap3\n      swap2\n      pop\n      pop\n      jump\t// out\n        /* \"#utility.yul\":11301:11480   */\n    tag_147:\n        /* \"#utility.yul\":11441:11472   */\n      0x4f6e6c7920504554204f574e45522063616e2063616c6c20746869732e000000\n        /* \"#utility.yul\":11437:11438   */\n      0x00\n        /* \"#utility.yul\":11429:11435   */\n      dup3\n        /* \"#utility.yul\":11425:11439   */\n      add\n        /* \"#utility.yul\":11418:11473   */\n      mstore\n        /* \"#utility.yul\":11301:11480   */\n      pop\n      jump\t// out\n        /* \"#utility.yul\":11486:11852   */\n    tag_148:\n        /* \"#utility.yul\":11628:11631   */\n      0x00\n        /* \"#utility.yul\":11649:11716   */\n      tag_259\n        /* \"#utility.yul\":11713:11715   */\n      0x1d\n        /* \"#utility.yul\":11708:11711   */\n      dup4\n        /* \"#utility.yul\":11649:11716   */\n      tag_139\n      jump\t// in\n    tag_259:\n        /* \"#utility.yul\":11642:11716   */\n      swap2\n      pop\n        /* \"#utility.yul\":11725:11818   */\n      tag_260\n        /* \"#utility.yul\":11814:11817   */\n      dup3\n        /* \"#utility.yul\":11725:11818   */\n      tag_147\n      jump\t// in\n    tag_260:\n        /* \"#utility.yul\":11843:11845   */\n      0x20\n        /* \"#utility.yul\":11838:11841   */\n      dup3\n        /* \"#utility.yul\":11834:11846   */\n      add\n        /* \"#utility.yul\":11827:11846   */\n      swap1\n      pop\n        /* \"#utility.yul\":11486:11852   */\n      swap2\n      swap1\n      pop\n      jump\t// out\n        /* \"#utility.yul\":11858:12277   */\n    tag_95:\n        /* \"#utility.yul\":12024:12028   */\n      0x00\n        /* \"#utility.yul\":12062:12064   */\n      0x20\n        /* \"#utility.yul\":12051:12060   */\n      dup3\n        /* \"#utility.yul\":12047:12065   */\n      add\n        /* \"#utility.yul\":12039:12065   */\n      swap1\n      pop\n        /* \"#utility.yul\":12111:12120   */\n      dup2\n        /* \"#utility.yul\":12105:12109   */\n      dup2\n        /* \"#utility.yul\":12101:12121   */\n      sub\n        /* \"#utility.yul\":12097:12098   */\n      0x00\n        /* \"#utility.yul\":12086:12095   */\n      dup4\n        /* \"#utility.yul\":12082:12099   */\n      add\n        /* \"#utility.yul\":12075:12122   */\n      mstore\n        /* \"#utility.yul\":12139:12270   */\n      tag_262\n        /* \"#utility.yul\":12265:12269   */\n      dup2\n        /* \"#utility.yul\":12139:12270   */\n      tag_148\n      jump\t// in\n    tag_262:\n        /* \"#utility.yul\":12131:12270   */\n      swap1\n      pop\n        /* \"#utility.yul\":11858:12277   */\n      swap2\n      swap1\n      pop\n      jump\t// out\n\n    auxdata: 0xa2646970667358221220590bb22c78f334863176dbc6aaa827be727d152538ab53bbfa57a06d75ab9a8764736f6c63430008120033\n}\n",
				"bytecode": {
					"linkReferences": {},
					"object": "608060405234801561001057600080fd5b5033600260006101000a81548173ffffffffffffffffffffffffffffffffffffffff021916908373ffffffffffffffffffffffffffffffffffffffff160217905550610fdf806100616000396000f3fe608060405234801561001057600080fd5b506004361061009e5760003560e01c80638da5cb5b116100665780638da5cb5b1461015c5780639955f67c1461017a578063aa2fedde14610198578063c19d93fb146101b6578063d3f0c8bb146101d45761009e565b80632c16cd8a146100a357806336a6badd146100d6578063398933ca146100f45780634f96d860146101105780636cd7751f14610140575b600080fd5b6100bd60048036038101906100b891906109f5565b6101de565b6040516100cd9493929190610a31565b60405180910390f35b6100de61020e565b6040516100eb9190610ada565b60405180910390f35b61010e60048036038101906101099190610b53565b610268565b005b61012a60048036038101906101259190610c06565b6103d3565b6040516101379190610c7c565b60405180910390f35b61015a60048036038101906101559190610c97565b610615565b005b61016461076f565b6040516101719190610cd3565b60405180910390f35b610182610793565b60405161018f9190610cd3565b60405180910390f35b6101a06107b9565b6040516101ad9190610cd3565b60405180910390f35b6101be6107df565b6040516101cb9190610d65565b60405180910390f35b6101dc6107f2565b005b60036020528060005260406000206000915090508060000154908060010154908060020154908060030154905084565b610216610992565b6000600360006001815260200190815260200160002060405180608001604052908160008201548152602001600182015481526020016002820154815260200160038201548152505090508091505090565b600260009054906101000a900473ffffffffffffffffffffffffffffffffffffffff1673ffffffffffffffffffffffffffffffffffffffff163373ffffffffffffffffffffffffffffffffffffffff16146102f8576040517f08c379a00000000000000000000000000000000000000000000000000000000081526004016102ef90610ddd565b60405180910390fd5b7f8a4335bd3facea1bfaf95771e37917d7f43ff5f64d26d19f43e8a1c931ddeb0160405160405180910390a1806000806101000a81548173ffffffffffffffffffffffffffffffffffffffff021916908373ffffffffffffffffffffffffffffffffffffffff1602179055506000600360006001815260200190815260200160002090508581600001819055508481600101819055508381600201819055508281600301819055506000600460006101000a81548160ff021916908360048111156103c6576103c5610cee565b5b0217905550505050505050565b6000600160009054906101000a900473ffffffffffffffffffffffffffffffffffffffff1673ffffffffffffffffffffffffffffffffffffffff163373ffffffffffffffffffffffffffffffffffffffff1614610465576040517f08c379a000000000000000000000000000000000000000000000000000000000815260040161045c90610e6f565b60405180910390fd5b600180600481111561047a57610479610cee565b5b600460009054906101000a900460ff16600481111561049c5761049b610cee565b5b1480156104dc57506004808111156104b7576104b6610cee565b5b600460009054906101000a900460ff1660048111156104d9576104d8610cee565b5b14155b61051b576040517f08c379a000000000000000000000000000000000000000000000000000000000815260040161051290610edb565b60405180910390fd5b7fbbb82d89ae6cb278e0333b446560e83d91184e64026c1c4ee85d8eaba065a96c60405160405180910390a18215610556576001915061060c565b60008473ffffffffffffffffffffffffffffffffffffffff166325ace2a76040518163ffffffff1660e01b81526004016020604051808303816000875af11580156105a5573d6000803e3d6000fd5b505050506040513d601f19601f820116820180604052508101906105c99190610f10565b90508015610606576002600460006101000a81548160ff021916908360048111156105f7576105f6610cee565b5b0217905550600192505061060c565b60009250505b50949350505050565b600160009054906101000a900473ffffffffffffffffffffffffffffffffffffffff1673ffffffffffffffffffffffffffffffffffffffff163373ffffffffffffffffffffffffffffffffffffffff16141580156106c15750600260009054906101000a900473ffffffffffffffffffffffffffffffffffffffff1673ffffffffffffffffffffffffffffffffffffffff163373ffffffffffffffffffffffffffffffffffffffff1614155b610700576040517f08c379a00000000000000000000000000000000000000000000000000000000081526004016106f790610f89565b60405180910390fd5b80600160006101000a81548173ffffffffffffffffffffffffffffffffffffffff021916908373ffffffffffffffffffffffffffffffffffffffff1602179055506001600460006101000a81548160ff0219169083600481111561076757610766610cee565b5b021790555050565b60008054906101000a900473ffffffffffffffffffffffffffffffffffffffff1681565b600160009054906101000a900473ffffffffffffffffffffffffffffffffffffffff1681565b600260009054906101000a900473ffffffffffffffffffffffffffffffffffffffff1681565b600460009054906101000a900460ff1681565b600160009054906101000a900473ffffffffffffffffffffffffffffffffffffffff1673ffffffffffffffffffffffffffffffffffffffff163373ffffffffffffffffffffffffffffffffffffffff1614610882576040517f08c379a000000000000000000000000000000000000000000000000000000000815260040161087990610e6f565b60405180910390fd5b600280600481111561089757610896610cee565b5b600460009054906101000a900460ff1660048111156108b9576108b8610cee565b5b1480156108f957506004808111156108d4576108d3610cee565b5b600460009054906101000a900460ff1660048111156108f6576108f5610cee565b5b14155b610938576040517f08c379a000000000000000000000000000000000000000000000000000000000815260040161092f90610edb565b60405180910390fd5b7f61e2929ac66c18729e4b0d88c57278b64a58b35bbb02d8561220164d475c5f5d60405160405180910390a16003600460006101000a81548160ff0219169083600481111561098a57610989610cee565b5b021790555050565b6040518060800160405280600081526020016000815260200160008152602001600081525090565b600080fd5b6000819050919050565b6109d2816109bf565b81146109dd57600080fd5b50565b6000813590506109ef816109c9565b92915050565b600060208284031215610a0b57610a0a6109ba565b5b6000610a19848285016109e0565b91505092915050565b610a2b816109bf565b82525050565b6000608082019050610a466000830187610a22565b610a536020830186610a22565b610a606040830185610a22565b610a6d6060830184610a22565b95945050505050565b610a7f816109bf565b82525050565b608082016000820151610a9b6000850182610a76565b506020820151610aae6020850182610a76565b506040820151610ac16040850182610a76565b506060820151610ad46060850182610a76565b50505050565b6000608082019050610aef6000830184610a85565b92915050565b600073ffffffffffffffffffffffffffffffffffffffff82169050919050565b6000610b2082610af5565b9050919050565b610b3081610b15565b8114610b3b57600080fd5b50565b600081359050610b4d81610b27565b92915050565b600080600080600060a08688031215610b6f57610b6e6109ba565b5b6000610b7d888289016109e0565b9550506020610b8e888289016109e0565b9450506040610b9f888289016109e0565b9350506060610bb0888289016109e0565b9250506080610bc188828901610b3e565b9150509295509295909350565b60008115159050919050565b610be381610bce565b8114610bee57600080fd5b50565b600081359050610c0081610bda565b92915050565b60008060008060808587031215610c2057610c1f6109ba565b5b6000610c2e878288016109e0565b9450506020610c3f878288016109e0565b9350506040610c5087828801610b3e565b9250506060610c6187828801610bf1565b91505092959194509250565b610c7681610bce565b82525050565b6000602082019050610c916000830184610c6d565b92915050565b600060208284031215610cad57610cac6109ba565b5b6000610cbb84828501610b3e565b91505092915050565b610ccd81610b15565b82525050565b6000602082019050610ce86000830184610cc4565b92915050565b7f4e487b7100000000000000000000000000000000000000000000000000000000600052602160045260246000fd5b60058110610d2e57610d2d610cee565b5b50565b6000819050610d3f82610d1d565b919050565b6000610d4f82610d31565b9050919050565b610d5f81610d44565b82525050565b6000602082019050610d7a6000830184610d56565b92915050565b600082825260208201905092915050565b7f4f6e6c7920484f53504954414c2063616e2063616c6c20746869732e00000000600082015250565b6000610dc7601c83610d80565b9150610dd282610d91565b602082019050919050565b60006020820190508181036000830152610df681610dba565b9050919050565b7f4f6e6c7920494e535552414e43452050524f56494445522063616e2063616c6c60008201527f20746869732e0000000000000000000000000000000000000000000000000000602082015250565b6000610e59602683610d80565b9150610e6482610dfd565b604082019050919050565b60006020820190508181036000830152610e8881610e4c565b9050919050565b7f496e76616c6964206f72204f7574206f662053746174652e0000000000000000600082015250565b6000610ec5601883610d80565b9150610ed082610e8f565b602082019050919050565b60006020820190508181036000830152610ef481610eb8565b9050919050565b600081519050610f0a81610bda565b92915050565b600060208284031215610f2657610f256109ba565b5b6000610f3484828501610efb565b91505092915050565b7f4f6e6c7920504554204f574e45522063616e2063616c6c20746869732e000000600082015250565b6000610f73601d83610d80565b9150610f7e82610f3d565b602082019050919050565b60006020820190508181036000830152610fa281610f66565b905091905056fea2646970667358221220590bb22c78f334863176dbc6aaa827be727d152538ab53bbfa57a06d75ab9a8764736f6c63430008120033",
					"opcodes": "PUSH1 0x80 PUSH1 0x40 MSTORE CALLVALUE DUP1 ISZERO PUSH2 0x10 JUMPI PUSH1 0x0 DUP1 REVERT JUMPDEST POP CALLER PUSH1 0x2 PUSH1 0x0 PUSH2 0x100 EXP DUP2 SLOAD DUP2 PUSH20 0xFFFFFFFFFFFFFFFFFFFFFFFFFFFFFFFFFFFFFFFF MUL NOT AND SWAP1 DUP4 PUSH20 0xFFFFFFFFFFFFFFFFFFFFFFFFFFFFFFFFFFFFFFFF AND MUL OR SWAP1 SSTORE POP PUSH2 0xFDF DUP1 PUSH2 0x61 PUSH1 0x0 CODECOPY PUSH1 0x0 RETURN INVALID PUSH1 0x80 PUSH1 0x40 MSTORE CALLVALUE DUP1 ISZERO PUSH2 0x10 JUMPI PUSH1 0x0 DUP1 REVERT JUMPDEST POP PUSH1 0x4 CALLDATASIZE LT PUSH2 0x9E JUMPI PUSH1 0x0 CALLDATALOAD PUSH1 0xE0 SHR DUP1 PUSH4 0x8DA5CB5B GT PUSH2 0x66 JUMPI DUP1 PUSH4 0x8DA5CB5B EQ PUSH2 0x15C JUMPI DUP1 PUSH4 0x9955F67C EQ PUSH2 0x17A JUMPI DUP1 PUSH4 0xAA2FEDDE EQ PUSH2 0x198 JUMPI DUP1 PUSH4 0xC19D93FB EQ PUSH2 0x1B6 JUMPI DUP1 PUSH4 0xD3F0C8BB EQ PUSH2 0x1D4 JUMPI PUSH2 0x9E JUMP JUMPDEST DUP1 PUSH4 0x2C16CD8A EQ PUSH2 0xA3 JUMPI DUP1 PUSH4 0x36A6BADD EQ PUSH2 0xD6 JUMPI DUP1 PUSH4 0x398933CA EQ PUSH2 0xF4 JUMPI DUP1 PUSH4 0x4F96D860 EQ PUSH2 0x110 JUMPI DUP1 PUSH4 0x6CD7751F EQ PUSH2 0x140 JUMPI JUMPDEST PUSH1 0x0 DUP1 REVERT JUMPDEST PUSH2 0xBD PUSH1 0x4 DUP1 CALLDATASIZE SUB DUP2 ADD SWAP1 PUSH2 0xB8 SWAP2 SWAP1 PUSH2 0x9F5 JUMP JUMPDEST PUSH2 0x1DE JUMP JUMPDEST PUSH1 0x40 MLOAD PUSH2 0xCD SWAP5 SWAP4 SWAP3 SWAP2 SWAP1 PUSH2 0xA31 JUMP JUMPDEST PUSH1 0x40 MLOAD DUP1 SWAP2 SUB SWAP1 RETURN JUMPDEST PUSH2 0xDE PUSH2 0x20E JUMP JUMPDEST PUSH1 0x40 MLOAD PUSH2 0xEB SWAP2 SWAP1 PUSH2 0xADA JUMP JUMPDEST PUSH1 0x40 MLOAD DUP1 SWAP2 SUB SWAP1 RETURN JUMPDEST PUSH2 0x10E PUSH1 0x4 DUP1 CALLDATASIZE SUB DUP2 ADD SWAP1 PUSH2 0x109 SWAP2 SWAP1 PUSH2 0xB53 JUMP JUMPDEST PUSH2 0x268 JUMP JUMPDEST STOP JUMPDEST PUSH2 0x12A PUSH1 0x4 DUP1 CALLDATASIZE SUB DUP2 ADD SWAP1 PUSH2 0x125 SWAP2 SWAP1 PUSH2 0xC06 JUMP JUMPDEST PUSH2 0x3D3 JUMP JUMPDEST PUSH1 0x40 MLOAD PUSH2 0x137 SWAP2 SWAP1 PUSH2 0xC7C JUMP JUMPDEST PUSH1 0x40 MLOAD DUP1 SWAP2 SUB SWAP1 RETURN JUMPDEST PUSH2 0x15A PUSH1 0x4 DUP1 CALLDATASIZE SUB DUP2 ADD SWAP1 PUSH2 0x155 SWAP2 SWAP1 PUSH2 0xC97 JUMP JUMPDEST PUSH2 0x615 JUMP JUMPDEST STOP JUMPDEST PUSH2 0x164 PUSH2 0x76F JUMP JUMPDEST PUSH1 0x40 MLOAD PUSH2 0x171 SWAP2 SWAP1 PUSH2 0xCD3 JUMP JUMPDEST PUSH1 0x40 MLOAD DUP1 SWAP2 SUB SWAP1 RETURN JUMPDEST PUSH2 0x182 PUSH2 0x793 JUMP JUMPDEST PUSH1 0x40 MLOAD PUSH2 0x18F SWAP2 SWAP1 PUSH2 0xCD3 JUMP JUMPDEST PUSH1 0x40 MLOAD DUP1 SWAP2 SUB SWAP1 RETURN JUMPDEST PUSH2 0x1A0 PUSH2 0x7B9 JUMP JUMPDEST PUSH1 0x40 MLOAD PUSH2 0x1AD SWAP2 SWAP1 PUSH2 0xCD3 JUMP JUMPDEST PUSH1 0x40 MLOAD DUP1 SWAP2 SUB SWAP1 RETURN JUMPDEST PUSH2 0x1BE PUSH2 0x7DF JUMP JUMPDEST PUSH1 0x40 MLOAD PUSH2 0x1CB SWAP2 SWAP1 PUSH2 0xD65 JUMP JUMPDEST PUSH1 0x40 MLOAD DUP1 SWAP2 SUB SWAP1 RETURN JUMPDEST PUSH2 0x1DC PUSH2 0x7F2 JUMP JUMPDEST STOP JUMPDEST PUSH1 0x3 PUSH1 0x20 MSTORE DUP1 PUSH1 0x0 MSTORE PUSH1 0x40 PUSH1 0x0 KECCAK256 PUSH1 0x0 SWAP2 POP SWAP1 POP DUP1 PUSH1 0x0 ADD SLOAD SWAP1 DUP1 PUSH1 0x1 ADD SLOAD SWAP1 DUP1 PUSH1 0x2 ADD SLOAD SWAP1 DUP1 PUSH1 0x3 ADD SLOAD SWAP1 POP DUP5 JUMP JUMPDEST PUSH2 0x216 PUSH2 0x992 JUMP JUMPDEST PUSH1 0x0 PUSH1 0x3 PUSH1 0x0 PUSH1 0x1 DUP2 MSTORE PUSH1 0x20 ADD SWAP1 DUP2 MSTORE PUSH1 0x20 ADD PUSH1 0x0 KECCAK256 PUSH1 0x40 MLOAD DUP1 PUSH1 0x80 ADD PUSH1 0x40 MSTORE SWAP1 DUP2 PUSH1 0x0 DUP3 ADD SLOAD DUP2 MSTORE PUSH1 0x20 ADD PUSH1 0x1 DUP3 ADD SLOAD DUP2 MSTORE PUSH1 0x20 ADD PUSH1 0x2 DUP3 ADD SLOAD DUP2 MSTORE PUSH1 0x20 ADD PUSH1 0x3 DUP3 ADD SLOAD DUP2 MSTORE POP POP SWAP1 POP DUP1 SWAP2 POP POP SWAP1 JUMP JUMPDEST PUSH1 0x2 PUSH1 0x0 SWAP1 SLOAD SWAP1 PUSH2 0x100 EXP SWAP1 DIV PUSH20 0xFFFFFFFFFFFFFFFFFFFFFFFFFFFFFFFFFFFFFFFF AND PUSH20 0xFFFFFFFFFFFFFFFFFFFFFFFFFFFFFFFFFFFFFFFF AND CALLER PUSH20 0xFFFFFFFFFFFFFFFFFFFFFFFFFFFFFFFFFFFFFFFF AND EQ PUSH2 0x2F8 JUMPI PUSH1 0x40 MLOAD PUSH32 0x8C379A000000000000000000000000000000000000000000000000000000000 DUP2 MSTORE PUSH1 0x4 ADD PUSH2 0x2EF SWAP1 PUSH2 0xDDD JUMP JUMPDEST PUSH1 0x40 MLOAD DUP1 SWAP2 SUB SWAP1 REVERT JUMPDEST PUSH32 0x8A4335BD3FACEA1BFAF95771E37917D7F43FF5F64D26D19F43E8A1C931DDEB01 PUSH1 0x40 MLOAD PUSH1 0x40 MLOAD DUP1 SWAP2 SUB SWAP1 LOG1 DUP1 PUSH1 0x0 DUP1 PUSH2 0x100 EXP DUP2 SLOAD DUP2 PUSH20 0xFFFFFFFFFFFFFFFFFFFFFFFFFFFFFFFFFFFFFFFF MUL NOT AND SWAP1 DUP4 PUSH20 0xFFFFFFFFFFFFFFFFFFFFFFFFFFFFFFFFFFFFFFFF AND MUL OR SWAP1 SSTORE POP PUSH1 0x0 PUSH1 0x3 PUSH1 0x0 PUSH1 0x1 DUP2 MSTORE PUSH1 0x20 ADD SWAP1 DUP2 MSTORE PUSH1 0x20 ADD PUSH1 0x0 KECCAK256 SWAP1 POP DUP6 DUP2 PUSH1 0x0 ADD DUP2 SWAP1 SSTORE POP DUP5 DUP2 PUSH1 0x1 ADD DUP2 SWAP1 SSTORE POP DUP4 DUP2 PUSH1 0x2 ADD DUP2 SWAP1 SSTORE POP DUP3 DUP2 PUSH1 0x3 ADD DUP2 SWAP1 SSTORE POP PUSH1 0x0 PUSH1 0x4 PUSH1 0x0 PUSH2 0x100 EXP DUP2 SLOAD DUP2 PUSH1 0xFF MUL NOT AND SWAP1 DUP4 PUSH1 0x4 DUP2 GT ISZERO PUSH2 0x3C6 JUMPI PUSH2 0x3C5 PUSH2 0xCEE JUMP JUMPDEST JUMPDEST MUL OR SWAP1 SSTORE POP POP POP POP POP POP POP JUMP JUMPDEST PUSH1 0x0 PUSH1 0x1 PUSH1 0x0 SWAP1 SLOAD SWAP1 PUSH2 0x100 EXP SWAP1 DIV PUSH20 0xFFFFFFFFFFFFFFFFFFFFFFFFFFFFFFFFFFFFFFFF AND PUSH20 0xFFFFFFFFFFFFFFFFFFFFFFFFFFFFFFFFFFFFFFFF AND CALLER PUSH20 0xFFFFFFFFFFFFFFFFFFFFFFFFFFFFFFFFFFFFFFFF AND EQ PUSH2 0x465 JUMPI PUSH1 0x40 MLOAD PUSH32 0x8C379A000000000000000000000000000000000000000000000000000000000 DUP2 MSTORE PUSH1 0x4 ADD PUSH2 0x45C SWAP1 PUSH2 0xE6F JUMP JUMPDEST PUSH1 0x40 MLOAD DUP1 SWAP2 SUB SWAP1 REVERT JUMPDEST PUSH1 0x1 DUP1 PUSH1 0x4 DUP2 GT ISZERO PUSH2 0x47A JUMPI PUSH2 0x479 PUSH2 0xCEE JUMP JUMPDEST JUMPDEST PUSH1 0x4 PUSH1 0x0 SWAP1 SLOAD SWAP1 PUSH2 0x100 EXP SWAP1 DIV PUSH1 0xFF AND PUSH1 0x4 DUP2 GT ISZERO PUSH2 0x49C JUMPI PUSH2 0x49B PUSH2 0xCEE JUMP JUMPDEST JUMPDEST EQ DUP1 ISZERO PUSH2 0x4DC JUMPI POP PUSH1 0x4 DUP1 DUP2 GT ISZERO PUSH2 0x4B7 JUMPI PUSH2 0x4B6 PUSH2 0xCEE JUMP JUMPDEST JUMPDEST PUSH1 0x4 PUSH1 0x0 SWAP1 SLOAD SWAP1 PUSH2 0x100 EXP SWAP1 DIV PUSH1 0xFF AND PUSH1 0x4 DUP2 GT ISZERO PUSH2 0x4D9 JUMPI PUSH2 0x4D8 PUSH2 0xCEE JUMP JUMPDEST JUMPDEST EQ ISZERO JUMPDEST PUSH2 0x51B JUMPI PUSH1 0x40 MLOAD PUSH32 0x8C379A000000000000000000000000000000000000000000000000000000000 DUP2 MSTORE PUSH1 0x4 ADD PUSH2 0x512 SWAP1 PUSH2 0xEDB JUMP JUMPDEST PUSH1 0x40 MLOAD DUP1 SWAP2 SUB SWAP1 REVERT JUMPDEST PUSH32 0xBBB82D89AE6CB278E0333B446560E83D91184E64026C1C4EE85D8EABA065A96C PUSH1 0x40 MLOAD PUSH1 0x40 MLOAD DUP1 SWAP2 SUB SWAP1 LOG1 DUP3 ISZERO PUSH2 0x556 JUMPI PUSH1 0x1 SWAP2 POP PUSH2 0x60C JUMP JUMPDEST PUSH1 0x0 DUP5 PUSH20 0xFFFFFFFFFFFFFFFFFFFFFFFFFFFFFFFFFFFFFFFF AND PUSH4 0x25ACE2A7 PUSH1 0x40 MLOAD DUP2 PUSH4 0xFFFFFFFF AND PUSH1 0xE0 SHL DUP2 MSTORE PUSH1 0x4 ADD PUSH1 0x20 PUSH1 0x40 MLOAD DUP1 DUP4 SUB DUP2 PUSH1 0x0 DUP8 GAS CALL ISZERO DUP1 ISZERO PUSH2 0x5A5 JUMPI RETURNDATASIZE PUSH1 0x0 DUP1 RETURNDATACOPY RETURNDATASIZE PUSH1 0x0 REVERT JUMPDEST POP POP POP POP PUSH1 0x40 MLOAD RETURNDATASIZE PUSH1 0x1F NOT PUSH1 0x1F DUP3 ADD AND DUP3 ADD DUP1 PUSH1 0x40 MSTORE POP DUP2 ADD SWAP1 PUSH2 0x5C9 SWAP2 SWAP1 PUSH2 0xF10 JUMP JUMPDEST SWAP1 POP DUP1 ISZERO PUSH2 0x606 JUMPI PUSH1 0x2 PUSH1 0x4 PUSH1 0x0 PUSH2 0x100 EXP DUP2 SLOAD DUP2 PUSH1 0xFF MUL NOT AND SWAP1 DUP4 PUSH1 0x4 DUP2 GT ISZERO PUSH2 0x5F7 JUMPI PUSH2 0x5F6 PUSH2 0xCEE JUMP JUMPDEST JUMPDEST MUL OR SWAP1 SSTORE POP PUSH1 0x1 SWAP3 POP POP PUSH2 0x60C JUMP JUMPDEST PUSH1 0x0 SWAP3 POP POP JUMPDEST POP SWAP5 SWAP4 POP POP POP POP JUMP JUMPDEST PUSH1 0x1 PUSH1 0x0 SWAP1 SLOAD SWAP1 PUSH2 0x100 EXP SWAP1 DIV PUSH20 0xFFFFFFFFFFFFFFFFFFFFFFFFFFFFFFFFFFFFFFFF AND PUSH20 0xFFFFFFFFFFFFFFFFFFFFFFFFFFFFFFFFFFFFFFFF AND CALLER PUSH20 0xFFFFFFFFFFFFFFFFFFFFFFFFFFFFFFFFFFFFFFFF AND EQ ISZERO DUP1 ISZERO PUSH2 0x6C1 JUMPI POP PUSH1 0x2 PUSH1 0x0 SWAP1 SLOAD SWAP1 PUSH2 0x100 EXP SWAP1 DIV PUSH20 0xFFFFFFFFFFFFFFFFFFFFFFFFFFFFFFFFFFFFFFFF AND PUSH20 0xFFFFFFFFFFFFFFFFFFFFFFFFFFFFFFFFFFFFFFFF AND CALLER PUSH20 0xFFFFFFFFFFFFFFFFFFFFFFFFFFFFFFFFFFFFFFFF AND EQ ISZERO JUMPDEST PUSH2 0x700 JUMPI PUSH1 0x40 MLOAD PUSH32 0x8C379A000000000000000000000000000000000000000000000000000000000 DUP2 MSTORE PUSH1 0x4 ADD PUSH2 0x6F7 SWAP1 PUSH2 0xF89 JUMP JUMPDEST PUSH1 0x40 MLOAD DUP1 SWAP2 SUB SWAP1 REVERT JUMPDEST DUP1 PUSH1 0x1 PUSH1 0x0 PUSH2 0x100 EXP DUP2 SLOAD DUP2 PUSH20 0xFFFFFFFFFFFFFFFFFFFFFFFFFFFFFFFFFFFFFFFF MUL NOT AND SWAP1 DUP4 PUSH20 0xFFFFFFFFFFFFFFFFFFFFFFFFFFFFFFFFFFFFFFFF AND MUL OR SWAP1 SSTORE POP PUSH1 0x1 PUSH1 0x4 PUSH1 0x0 PUSH2 0x100 EXP DUP2 SLOAD DUP2 PUSH1 0xFF MUL NOT AND SWAP1 DUP4 PUSH1 0x4 DUP2 GT ISZERO PUSH2 0x767 JUMPI PUSH2 0x766 PUSH2 0xCEE JUMP JUMPDEST JUMPDEST MUL OR SWAP1 SSTORE POP POP JUMP JUMPDEST PUSH1 0x0 DUP1 SLOAD SWAP1 PUSH2 0x100 EXP SWAP1 DIV PUSH20 0xFFFFFFFFFFFFFFFFFFFFFFFFFFFFFFFFFFFFFFFF AND DUP2 JUMP JUMPDEST PUSH1 0x1 PUSH1 0x0 SWAP1 SLOAD SWAP1 PUSH2 0x100 EXP SWAP1 DIV PUSH20 0xFFFFFFFFFFFFFFFFFFFFFFFFFFFFFFFFFFFFFFFF AND DUP2 JUMP JUMPDEST PUSH1 0x2 PUSH1 0x0 SWAP1 SLOAD SWAP1 PUSH2 0x100 EXP SWAP1 DIV PUSH20 0xFFFFFFFFFFFFFFFFFFFFFFFFFFFFFFFFFFFFFFFF AND DUP2 JUMP JUMPDEST PUSH1 0x4 PUSH1 0x0 SWAP1 SLOAD SWAP1 PUSH2 0x100 EXP SWAP1 DIV PUSH1 0xFF AND DUP2 JUMP JUMPDEST PUSH1 0x1 PUSH1 0x0 SWAP1 SLOAD SWAP1 PUSH2 0x100 EXP SWAP1 DIV PUSH20 0xFFFFFFFFFFFFFFFFFFFFFFFFFFFFFFFFFFFFFFFF AND PUSH20 0xFFFFFFFFFFFFFFFFFFFFFFFFFFFFFFFFFFFFFFFF AND CALLER PUSH20 0xFFFFFFFFFFFFFFFFFFFFFFFFFFFFFFFFFFFFFFFF AND EQ PUSH2 0x882 JUMPI PUSH1 0x40 MLOAD PUSH32 0x8C379A000000000000000000000000000000000000000000000000000000000 DUP2 MSTORE PUSH1 0x4 ADD PUSH2 0x879 SWAP1 PUSH2 0xE6F JUMP JUMPDEST PUSH1 0x40 MLOAD DUP1 SWAP2 SUB SWAP1 REVERT JUMPDEST PUSH1 0x2 DUP1 PUSH1 0x4 DUP2 GT ISZERO PUSH2 0x897 JUMPI PUSH2 0x896 PUSH2 0xCEE JUMP JUMPDEST JUMPDEST PUSH1 0x4 PUSH1 0x0 SWAP1 SLOAD SWAP1 PUSH2 0x100 EXP SWAP1 DIV PUSH1 0xFF AND PUSH1 0x4 DUP2 GT ISZERO PUSH2 0x8B9 JUMPI PUSH2 0x8B8 PUSH2 0xCEE JUMP JUMPDEST JUMPDEST EQ DUP1 ISZERO PUSH2 0x8F9 JUMPI POP PUSH1 0x4 DUP1 DUP2 GT ISZERO PUSH2 0x8D4 JUMPI PUSH2 0x8D3 PUSH2 0xCEE JUMP JUMPDEST JUMPDEST PUSH1 0x4 PUSH1 0x0 SWAP1 SLOAD SWAP1 PUSH2 0x100 EXP SWAP1 DIV PUSH1 0xFF AND PUSH1 0x4 DUP2 GT ISZERO PUSH2 0x8F6 JUMPI PUSH2 0x8F5 PUSH2 0xCEE JUMP JUMPDEST JUMPDEST EQ ISZERO JUMPDEST PUSH2 0x938 JUMPI PUSH1 0x40 MLOAD PUSH32 0x8C379A000000000000000000000000000000000000000000000000000000000 DUP2 MSTORE PUSH1 0x4 ADD PUSH2 0x92F SWAP1 PUSH2 0xEDB JUMP JUMPDEST PUSH1 0x40 MLOAD DUP1 SWAP2 SUB SWAP1 REVERT JUMPDEST PUSH32 0x61E2929AC66C18729E4B0D88C57278B64A58B35BBB02D8561220164D475C5F5D PUSH1 0x40 MLOAD PUSH1 0x40 MLOAD DUP1 SWAP2 SUB SWAP1 LOG1 PUSH1 0x3 PUSH1 0x4 PUSH1 0x0 PUSH2 0x100 EXP DUP2 SLOAD DUP2 PUSH1 0xFF MUL NOT AND SWAP1 DUP4 PUSH1 0x4 DUP2 GT ISZERO PUSH2 0x98A JUMPI PUSH2 0x989 PUSH2 0xCEE JUMP JUMPDEST JUMPDEST MUL OR SWAP1 SSTORE POP POP JUMP JUMPDEST PUSH1 0x40 MLOAD DUP1 PUSH1 0x80 ADD PUSH1 0x40 MSTORE DUP1 PUSH1 0x0 DUP2 MSTORE PUSH1 0x20 ADD PUSH1 0x0 DUP2 MSTORE PUSH1 0x20 ADD PUSH1 0x0 DUP2 MSTORE PUSH1 0x20 ADD PUSH1 0x0 DUP2 MSTORE POP SWAP1 JUMP JUMPDEST PUSH1 0x0 DUP1 REVERT JUMPDEST PUSH1 0x0 DUP2 SWAP1 POP SWAP2 SWAP1 POP JUMP JUMPDEST PUSH2 0x9D2 DUP2 PUSH2 0x9BF JUMP JUMPDEST DUP2 EQ PUSH2 0x9DD JUMPI PUSH1 0x0 DUP1 REVERT JUMPDEST POP JUMP JUMPDEST PUSH1 0x0 DUP2 CALLDATALOAD SWAP1 POP PUSH2 0x9EF DUP2 PUSH2 0x9C9 JUMP JUMPDEST SWAP3 SWAP2 POP POP JUMP JUMPDEST PUSH1 0x0 PUSH1 0x20 DUP3 DUP5 SUB SLT ISZERO PUSH2 0xA0B JUMPI PUSH2 0xA0A PUSH2 0x9BA JUMP JUMPDEST JUMPDEST PUSH1 0x0 PUSH2 0xA19 DUP5 DUP3 DUP6 ADD PUSH2 0x9E0 JUMP JUMPDEST SWAP2 POP POP SWAP3 SWAP2 POP POP JUMP JUMPDEST PUSH2 0xA2B DUP2 PUSH2 0x9BF JUMP JUMPDEST DUP3 MSTORE POP POP JUMP JUMPDEST PUSH1 0x0 PUSH1 0x80 DUP3 ADD SWAP1 POP PUSH2 0xA46 PUSH1 0x0 DUP4 ADD DUP8 PUSH2 0xA22 JUMP JUMPDEST PUSH2 0xA53 PUSH1 0x20 DUP4 ADD DUP7 PUSH2 0xA22 JUMP JUMPDEST PUSH2 0xA60 PUSH1 0x40 DUP4 ADD DUP6 PUSH2 0xA22 JUMP JUMPDEST PUSH2 0xA6D PUSH1 0x60 DUP4 ADD DUP5 PUSH2 0xA22 JUMP JUMPDEST SWAP6 SWAP5 POP POP POP POP POP JUMP JUMPDEST PUSH2 0xA7F DUP2 PUSH2 0x9BF JUMP JUMPDEST DUP3 MSTORE POP POP JUMP JUMPDEST PUSH1 0x80 DUP3 ADD PUSH1 0x0 DUP3 ADD MLOAD PUSH2 0xA9B PUSH1 0x0 DUP6 ADD DUP3 PUSH2 0xA76 JUMP JUMPDEST POP PUSH1 0x20 DUP3 ADD MLOAD PUSH2 0xAAE PUSH1 0x20 DUP6 ADD DUP3 PUSH2 0xA76 JUMP JUMPDEST POP PUSH1 0x40 DUP3 ADD MLOAD PUSH2 0xAC1 PUSH1 0x40 DUP6 ADD DUP3 PUSH2 0xA76 JUMP JUMPDEST POP PUSH1 0x60 DUP3 ADD MLOAD PUSH2 0xAD4 PUSH1 0x60 DUP6 ADD DUP3 PUSH2 0xA76 JUMP JUMPDEST POP POP POP POP JUMP JUMPDEST PUSH1 0x0 PUSH1 0x80 DUP3 ADD SWAP1 POP PUSH2 0xAEF PUSH1 0x0 DUP4 ADD DUP5 PUSH2 0xA85 JUMP JUMPDEST SWAP3 SWAP2 POP POP JUMP JUMPDEST PUSH1 0x0 PUSH20 0xFFFFFFFFFFFFFFFFFFFFFFFFFFFFFFFFFFFFFFFF DUP3 AND SWAP1 POP SWAP2 SWAP1 POP JUMP JUMPDEST PUSH1 0x0 PUSH2 0xB20 DUP3 PUSH2 0xAF5 JUMP JUMPDEST SWAP1 POP SWAP2 SWAP1 POP JUMP JUMPDEST PUSH2 0xB30 DUP2 PUSH2 0xB15 JUMP JUMPDEST DUP2 EQ PUSH2 0xB3B JUMPI PUSH1 0x0 DUP1 REVERT JUMPDEST POP JUMP JUMPDEST PUSH1 0x0 DUP2 CALLDATALOAD SWAP1 POP PUSH2 0xB4D DUP2 PUSH2 0xB27 JUMP JUMPDEST SWAP3 SWAP2 POP POP JUMP JUMPDEST PUSH1 0x0 DUP1 PUSH1 0x0 DUP1 PUSH1 0x0 PUSH1 0xA0 DUP7 DUP9 SUB SLT ISZERO PUSH2 0xB6F JUMPI PUSH2 0xB6E PUSH2 0x9BA JUMP JUMPDEST JUMPDEST PUSH1 0x0 PUSH2 0xB7D DUP9 DUP3 DUP10 ADD PUSH2 0x9E0 JUMP JUMPDEST SWAP6 POP POP PUSH1 0x20 PUSH2 0xB8E DUP9 DUP3 DUP10 ADD PUSH2 0x9E0 JUMP JUMPDEST SWAP5 POP POP PUSH1 0x40 PUSH2 0xB9F DUP9 DUP3 DUP10 ADD PUSH2 0x9E0 JUMP JUMPDEST SWAP4 POP POP PUSH1 0x60 PUSH2 0xBB0 DUP9 DUP3 DUP10 ADD PUSH2 0x9E0 JUMP JUMPDEST SWAP3 POP POP PUSH1 0x80 PUSH2 0xBC1 DUP9 DUP3 DUP10 ADD PUSH2 0xB3E JUMP JUMPDEST SWAP2 POP POP SWAP3 SWAP6 POP SWAP3 SWAP6 SWAP1 SWAP4 POP JUMP JUMPDEST PUSH1 0x0 DUP2 ISZERO ISZERO SWAP1 POP SWAP2 SWAP1 POP JUMP JUMPDEST PUSH2 0xBE3 DUP2 PUSH2 0xBCE JUMP JUMPDEST DUP2 EQ PUSH2 0xBEE JUMPI PUSH1 0x0 DUP1 REVERT JUMPDEST POP JUMP JUMPDEST PUSH1 0x0 DUP2 CALLDATALOAD SWAP1 POP PUSH2 0xC00 DUP2 PUSH2 0xBDA JUMP JUMPDEST SWAP3 SWAP2 POP POP JUMP JUMPDEST PUSH1 0x0 DUP1 PUSH1 0x0 DUP1 PUSH1 0x80 DUP6 DUP8 SUB SLT ISZERO PUSH2 0xC20 JUMPI PUSH2 0xC1F PUSH2 0x9BA JUMP JUMPDEST JUMPDEST PUSH1 0x0 PUSH2 0xC2E DUP8 DUP3 DUP9 ADD PUSH2 0x9E0 JUMP JUMPDEST SWAP5 POP POP PUSH1 0x20 PUSH2 0xC3F DUP8 DUP3 DUP9 ADD PUSH2 0x9E0 JUMP JUMPDEST SWAP4 POP POP PUSH1 0x40 PUSH2 0xC50 DUP8 DUP3 DUP9 ADD PUSH2 0xB3E JUMP JUMPDEST SWAP3 POP POP PUSH1 0x60 PUSH2 0xC61 DUP8 DUP3 DUP9 ADD PUSH2 0xBF1 JUMP JUMPDEST SWAP2 POP POP SWAP3 SWAP6 SWAP2 SWAP5 POP SWAP3 POP JUMP JUMPDEST PUSH2 0xC76 DUP2 PUSH2 0xBCE JUMP JUMPDEST DUP3 MSTORE POP POP JUMP JUMPDEST PUSH1 0x0 PUSH1 0x20 DUP3 ADD SWAP1 POP PUSH2 0xC91 PUSH1 0x0 DUP4 ADD DUP5 PUSH2 0xC6D JUMP JUMPDEST SWAP3 SWAP2 POP POP JUMP JUMPDEST PUSH1 0x0 PUSH1 0x20 DUP3 DUP5 SUB SLT ISZERO PUSH2 0xCAD JUMPI PUSH2 0xCAC PUSH2 0x9BA JUMP JUMPDEST JUMPDEST PUSH1 0x0 PUSH2 0xCBB DUP5 DUP3 DUP6 ADD PUSH2 0xB3E JUMP JUMPDEST SWAP2 POP POP SWAP3 SWAP2 POP POP JUMP JUMPDEST PUSH2 0xCCD DUP2 PUSH2 0xB15 JUMP JUMPDEST DUP3 MSTORE POP POP JUMP JUMPDEST PUSH1 0x0 PUSH1 0x20 DUP3 ADD SWAP1 POP PUSH2 0xCE8 PUSH1 0x0 DUP4 ADD DUP5 PUSH2 0xCC4 JUMP JUMPDEST SWAP3 SWAP2 POP POP JUMP JUMPDEST PUSH32 0x4E487B7100000000000000000000000000000000000000000000000000000000 PUSH1 0x0 MSTORE PUSH1 0x21 PUSH1 0x4 MSTORE PUSH1 0x24 PUSH1 0x0 REVERT JUMPDEST PUSH1 0x5 DUP2 LT PUSH2 0xD2E JUMPI PUSH2 0xD2D PUSH2 0xCEE JUMP JUMPDEST JUMPDEST POP JUMP JUMPDEST PUSH1 0x0 DUP2 SWAP1 POP PUSH2 0xD3F DUP3 PUSH2 0xD1D JUMP JUMPDEST SWAP2 SWAP1 POP JUMP JUMPDEST PUSH1 0x0 PUSH2 0xD4F DUP3 PUSH2 0xD31 JUMP JUMPDEST SWAP1 POP SWAP2 SWAP1 POP JUMP JUMPDEST PUSH2 0xD5F DUP2 PUSH2 0xD44 JUMP JUMPDEST DUP3 MSTORE POP POP JUMP JUMPDEST PUSH1 0x0 PUSH1 0x20 DUP3 ADD SWAP1 POP PUSH2 0xD7A PUSH1 0x0 DUP4 ADD DUP5 PUSH2 0xD56 JUMP JUMPDEST SWAP3 SWAP2 POP POP JUMP JUMPDEST PUSH1 0x0 DUP3 DUP3 MSTORE PUSH1 0x20 DUP3 ADD SWAP1 POP SWAP3 SWAP2 POP POP JUMP JUMPDEST PUSH32 0x4F6E6C7920484F53504954414C2063616E2063616C6C20746869732E00000000 PUSH1 0x0 DUP3 ADD MSTORE POP JUMP JUMPDEST PUSH1 0x0 PUSH2 0xDC7 PUSH1 0x1C DUP4 PUSH2 0xD80 JUMP JUMPDEST SWAP2 POP PUSH2 0xDD2 DUP3 PUSH2 0xD91 JUMP JUMPDEST PUSH1 0x20 DUP3 ADD SWAP1 POP SWAP2 SWAP1 POP JUMP JUMPDEST PUSH1 0x0 PUSH1 0x20 DUP3 ADD SWAP1 POP DUP2 DUP2 SUB PUSH1 0x0 DUP4 ADD MSTORE PUSH2 0xDF6 DUP2 PUSH2 0xDBA JUMP JUMPDEST SWAP1 POP SWAP2 SWAP1 POP JUMP JUMPDEST PUSH32 0x4F6E6C7920494E535552414E43452050524F56494445522063616E2063616C6C PUSH1 0x0 DUP3 ADD MSTORE PUSH32 0x20746869732E0000000000000000000000000000000000000000000000000000 PUSH1 0x20 DUP3 ADD MSTORE POP JUMP JUMPDEST PUSH1 0x0 PUSH2 0xE59 PUSH1 0x26 DUP4 PUSH2 0xD80 JUMP JUMPDEST SWAP2 POP PUSH2 0xE64 DUP3 PUSH2 0xDFD JUMP JUMPDEST PUSH1 0x40 DUP3 ADD SWAP1 POP SWAP2 SWAP1 POP JUMP JUMPDEST PUSH1 0x0 PUSH1 0x20 DUP3 ADD SWAP1 POP DUP2 DUP2 SUB PUSH1 0x0 DUP4 ADD MSTORE PUSH2 0xE88 DUP2 PUSH2 0xE4C JUMP JUMPDEST SWAP1 POP SWAP2 SWAP1 POP JUMP JUMPDEST PUSH32 0x496E76616C6964206F72204F7574206F662053746174652E0000000000000000 PUSH1 0x0 DUP3 ADD MSTORE POP JUMP JUMPDEST PUSH1 0x0 PUSH2 0xEC5 PUSH1 0x18 DUP4 PUSH2 0xD80 JUMP JUMPDEST SWAP2 POP PUSH2 0xED0 DUP3 PUSH2 0xE8F JUMP JUMPDEST PUSH1 0x20 DUP3 ADD SWAP1 POP SWAP2 SWAP1 POP JUMP JUMPDEST PUSH1 0x0 PUSH1 0x20 DUP3 ADD SWAP1 POP DUP2 DUP2 SUB PUSH1 0x0 DUP4 ADD MSTORE PUSH2 0xEF4 DUP2 PUSH2 0xEB8 JUMP JUMPDEST SWAP1 POP SWAP2 SWAP1 POP JUMP JUMPDEST PUSH1 0x0 DUP2 MLOAD SWAP1 POP PUSH2 0xF0A DUP2 PUSH2 0xBDA JUMP JUMPDEST SWAP3 SWAP2 POP POP JUMP JUMPDEST PUSH1 0x0 PUSH1 0x20 DUP3 DUP5 SUB SLT ISZERO PUSH2 0xF26 JUMPI PUSH2 0xF25 PUSH2 0x9BA JUMP JUMPDEST JUMPDEST PUSH1 0x0 PUSH2 0xF34 DUP5 DUP3 DUP6 ADD PUSH2 0xEFB JUMP JUMPDEST SWAP2 POP POP SWAP3 SWAP2 POP POP JUMP JUMPDEST PUSH32 0x4F6E6C7920504554204F574E45522063616E2063616C6C20746869732E000000 PUSH1 0x0 DUP3 ADD MSTORE POP JUMP JUMPDEST PUSH1 0x0 PUSH2 0xF73 PUSH1 0x1D DUP4 PUSH2 0xD80 JUMP JUMPDEST SWAP2 POP PUSH2 0xF7E DUP3 PUSH2 0xF3D JUMP JUMPDEST PUSH1 0x20 DUP3 ADD SWAP1 POP SWAP2 SWAP1 POP JUMP JUMPDEST PUSH1 0x0 PUSH1 0x20 DUP3 ADD SWAP1 POP DUP2 DUP2 SUB PUSH1 0x0 DUP4 ADD MSTORE PUSH2 0xFA2 DUP2 PUSH2 0xF66 JUMP JUMPDEST SWAP1 POP SWAP2 SWAP1 POP JUMP INVALID LOG2 PUSH5 0x6970667358 0x22 SLT KECCAK256 MSIZE SIGNEXTEND 0xB2 0x2C PUSH25 0xF334863176DBC6AAA827BE727D152538AB53BBFA57A06D75AB SWAP11 DUP8 PUSH5 0x736F6C6343 STOP ADDMOD SLT STOP CALLER "
				},
				"gasEstimates": {
					"creation": {
						"codeDepositCost": "812600",
						"executionCost": "25110",
						"totalCost": "837710"
					},
					"external": {
						"getMedicalRecord()": "infinite",
						"hospital()": "2558",
						"insuranceProvider()": "2536",
						"newMedicalRecord(uint256,uint256,uint256,uint256,address)": "infinite",
						"owner()": "2511",
						"record(uint256)": "infinite",
						"reimbursement()": "31904",
						"setInsurance(address)": "53452",
						"state()": "2626",
						"verify(uint256,uint256,address,bool)": "infinite"
					}
				},
				"methodIdentifiers": {
					"getMedicalRecord()": "36a6badd",
					"hospital()": "aa2fedde",
					"insuranceProvider()": "9955f67c",
					"newMedicalRecord(uint256,uint256,uint256,uint256,address)": "398933ca",
					"owner()": "8da5cb5b",
					"record(uint256)": "2c16cd8a",
					"reimbursement()": "d3f0c8bb",
					"setInsurance(address)": "6cd7751f",
					"state()": "c19d93fb",
					"verify(uint256,uint256,address,bool)": "4f96d860"
				}
			},
			"storageLayout": {
				"storage": [
					{
						"astId": 4,
						"contract": "backend/contracts/PawPrints.sol:PawPrints",
						"label": "owner",
						"offset": 0,
						"slot": "0",
						"type": "t_address"
					},
					{
						"astId": 6,
						"contract": "backend/contracts/PawPrints.sol:PawPrints",
						"label": "insuranceProvider",
						"offset": 0,
						"slot": "1",
						"type": "t_address"
					},
					{
						"astId": 8,
						"contract": "backend/contracts/PawPrints.sol:PawPrints",
						"label": "hospital",
						"offset": 0,
						"slot": "2",
						"type": "t_address"
					},
					{
						"astId": 22,
						"contract": "backend/contracts/PawPrints.sol:PawPrints",
						"label": "record",
						"offset": 0,
						"slot": "3",
						"type": "t_mapping(t_uint256,t_struct(MedicalRecord)17_storage)"
					},
					{
						"astId": 39,
						"contract": "backend/contracts/PawPrints.sol:PawPrints",
						"label": "state",
						"offset": 0,
						"slot": "4",
						"type": "t_enum(State)36"
					}
				],
				"types": {
					"t_address": {
						"encoding": "inplace",
						"label": "address",
						"numberOfBytes": "20"
					},
					"t_enum(State)36": {
						"encoding": "inplace",
						"label": "enum PawPrints.State",
						"numberOfBytes": "1"
					},
					"t_mapping(t_uint256,t_struct(MedicalRecord)17_storage)": {
						"encoding": "mapping",
						"key": "t_uint256",
						"label": "mapping(uint256 => struct PawPrints.MedicalRecord)",
						"numberOfBytes": "32",
						"value": "t_struct(MedicalRecord)17_storage"
					},
					"t_struct(MedicalRecord)17_storage": {
						"encoding": "inplace",
						"label": "struct PawPrints.MedicalRecord",
						"members": [
							{
								"astId": 10,
								"contract": "backend/contracts/PawPrints.sol:PawPrints",
								"label": "ownerId",
								"offset": 0,
								"slot": "0",
								"type": "t_uint256"
							},
							{
								"astId": 12,
								"contract": "backend/contracts/PawPrints.sol:PawPrints",
								"label": "petId",
								"offset": 0,
								"slot": "1",
								"type": "t_uint256"
							},
							{
								"astId": 14,
								"contract": "backend/contracts/PawPrints.sol:PawPrints",
								"label": "billAmount",
								"offset": 0,
								"slot": "2",
								"type": "t_uint256"
							},
							{
								"astId": 16,
								"contract": "backend/contracts/PawPrints.sol:PawPrints",
								"label": "recordId",
								"offset": 0,
								"slot": "3",
								"type": "t_uint256"
							}
						],
						"numberOfBytes": "128"
					},
					"t_uint256": {
						"encoding": "inplace",
						"label": "uint256",
						"numberOfBytes": "32"
					}
				}
			},
			"userdoc": {
				"kind": "user",
				"methods": {},
				"version": 1
			}
		}
	}
}