{
	"backend/contracts/PawPrints.sol": {
		"PawPrints": {
			"abi": [
				{
					"anonymous": false,
					"inputs": [],
					"name": "reimbursed",
					"type": "event"
				},
				{
					"anonymous": false,
					"inputs": [],
					"name": "sent",
					"type": "event"
				},
				{
					"anonymous": false,
					"inputs": [],
					"name": "verified",
					"type": "event"
				},
				{
					"anonymous": false,
					"inputs": [],
					"name": "visited",
					"type": "event"
				},
				{
					"inputs": [],
					"name": "hospital",
					"outputs": [
						{
							"internalType": "address payable",
							"name": "",
							"type": "address"
						}
					],
					"stateMutability": "view",
					"type": "function"
				},
				{
					"inputs": [],
					"name": "insuranceProvider",
					"outputs": [
						{
							"internalType": "address payable",
							"name": "",
							"type": "address"
						}
					],
					"stateMutability": "view",
					"type": "function"
				},
				{
					"inputs": [
						{
							"internalType": "uint256",
							"name": "_ownerId",
							"type": "uint256"
						},
						{
							"internalType": "uint256",
							"name": "_petId",
							"type": "uint256"
						},
						{
							"internalType": "uint256",
							"name": "_billAmount",
							"type": "uint256"
						},
						{
							"internalType": "uint256",
							"name": "_recordId",
							"type": "uint256"
						}
					],
					"name": "newMedicalRecord",
					"outputs": [],
					"stateMutability": "nonpayable",
					"type": "function"
				},
				{
					"inputs": [],
					"name": "owner",
					"outputs": [
						{
							"internalType": "address payable",
							"name": "",
							"type": "address"
						}
					],
					"stateMutability": "view",
					"type": "function"
				},
				{
					"inputs": [],
					"name": "reimbursement",
					"outputs": [],
					"stateMutability": "nonpayable",
					"type": "function"
				},
				{
					"inputs": [],
					"name": "sentRecord",
					"outputs": [],
					"stateMutability": "nonpayable",
					"type": "function"
				},
				{
					"inputs": [],
					"name": "state",
					"outputs": [
						{
							"internalType": "enum PawPrints.State",
							"name": "",
							"type": "uint8"
						}
					],
					"stateMutability": "view",
					"type": "function"
				},
				{
					"inputs": [
						{
							"internalType": "uint256",
							"name": "_ownerId",
							"type": "uint256"
						},
						{
							"internalType": "uint256",
							"name": "_petId",
							"type": "uint256"
						},
						{
							"internalType": "address",
							"name": "insuranceAddress",
							"type": "address"
						}
					],
					"name": "verify",
					"outputs": [
						{
							"internalType": "bool",
							"name": "",
							"type": "bool"
						}
					],
					"stateMutability": "nonpayable",
					"type": "function"
				}
			],
			"devdoc": {
				"kind": "dev",
				"methods": {},
				"version": 1
			},
			"evm": {
				"assembly": "    /* \"backend/contracts/PawPrints.sol\":731:3108  contract PawPrints {... */\n  mstore(0x40, 0x80)\n  callvalue\n  dup1\n  iszero\n  tag_1\n  jumpi\n  0x00\n  dup1\n  revert\ntag_1:\n  pop\n  dataSize(sub_0)\n  dup1\n  dataOffset(sub_0)\n  0x00\n  codecopy\n  0x00\n  return\nstop\n\nsub_0: assembly {\n        /* \"backend/contracts/PawPrints.sol\":731:3108  contract PawPrints {... */\n      mstore(0x40, 0x80)\n      callvalue\n      dup1\n      iszero\n      tag_1\n      jumpi\n      0x00\n      dup1\n      revert\n    tag_1:\n      pop\n      jumpi(tag_2, lt(calldatasize, 0x04))\n      shr(0xe0, calldataload(0x00))\n      dup1\n      0xaa2fedde\n      gt\n      tag_11\n      jumpi\n      dup1\n      0xaa2fedde\n      eq\n      tag_7\n      jumpi\n      dup1\n      0xc19d93fb\n      eq\n      tag_8\n      jumpi\n      dup1\n      0xd3f0c8bb\n      eq\n      tag_9\n      jumpi\n      dup1\n      0xe536b493\n      eq\n      tag_10\n      jumpi\n      jump(tag_2)\n    tag_11:\n      dup1\n      0x0ffcbc77\n      eq\n      tag_3\n      jumpi\n      dup1\n      0x731d9c88\n      eq\n      tag_4\n      jumpi\n      dup1\n      0x8da5cb5b\n      eq\n      tag_5\n      jumpi\n      dup1\n      0x9955f67c\n      eq\n      tag_6\n      jumpi\n    tag_2:\n      0x00\n      dup1\n      revert\n        /* \"backend/contracts/PawPrints.sol\":1825:2182  function newMedicalRecord (uint _ownerId, uint _petId, uint _billAmount, uint _recordId) ... */\n    tag_3:\n      tag_12\n      0x04\n      dup1\n      calldatasize\n      sub\n      dup2\n      add\n      swap1\n      tag_13\n      swap2\n      swap1\n      tag_14\n      jump\t// in\n    tag_13:\n      tag_15\n      jump\t// in\n    tag_12:\n      stop\n        /* \"backend/contracts/PawPrints.sol\":2279:2722  function verify (uint _ownerId, uint _petId, address insuranceAddress)... */\n    tag_4:\n      tag_16\n      0x04\n      dup1\n      calldatasize\n      sub\n      dup2\n      add\n      swap1\n      tag_17\n      swap2\n      swap1\n      tag_18\n      jump\t// in\n    tag_17:\n      tag_19\n      jump\t// in\n    tag_16:\n      mload(0x40)\n      tag_20\n      swap2\n      swap1\n      tag_21\n      jump\t// in\n    tag_20:\n      mload(0x40)\n      dup1\n      swap2\n      sub\n      swap1\n      return\n        /* \"backend/contracts/PawPrints.sol\":761:789  address payable public owner */\n    tag_5:\n      tag_22\n      tag_23\n      jump\t// in\n    tag_22:\n      mload(0x40)\n      tag_24\n      swap2\n      swap1\n      tag_25\n      jump\t// in\n    tag_24:\n      mload(0x40)\n      dup1\n      swap2\n      sub\n      swap1\n      return\n        /* \"backend/contracts/PawPrints.sol\":795:835  address payable public insuranceProvider */\n    tag_6:\n      tag_26\n      tag_27\n      jump\t// in\n    tag_26:\n      mload(0x40)\n      tag_28\n      swap2\n      swap1\n      tag_25\n      jump\t// in\n    tag_28:\n      mload(0x40)\n      dup1\n      swap2\n      sub\n      swap1\n      return\n        /* \"backend/contracts/PawPrints.sol\":841:872  address payable public hospital */\n    tag_7:\n      tag_29\n      tag_30\n      jump\t// in\n    tag_29:\n      mload(0x40)\n      tag_31\n      swap2\n      swap1\n      tag_25\n      jump\t// in\n    tag_31:\n      mload(0x40)\n      dup1\n      swap2\n      sub\n      swap1\n      return\n        /* \"backend/contracts/PawPrints.sol\":1173:1191  State public state */\n    tag_8:\n      tag_32\n      tag_33\n      jump\t// in\n    tag_32:\n      mload(0x40)\n      tag_34\n      swap2\n      swap1\n      tag_35\n      jump\t// in\n    tag_34:\n      mload(0x40)\n      dup1\n      swap2\n      sub\n      swap1\n      return\n        /* \"backend/contracts/PawPrints.sol\":2957:3106  function reimbursement () ... */\n    tag_9:\n      tag_36\n      tag_37\n      jump\t// in\n    tag_36:\n      stop\n        /* \"backend/contracts/PawPrints.sol\":2786:2895  function sentRecord()... */\n    tag_10:\n      tag_38\n      tag_39\n      jump\t// in\n    tag_38:\n      stop\n        /* \"backend/contracts/PawPrints.sol\":1825:2182  function newMedicalRecord (uint _ownerId, uint _petId, uint _billAmount, uint _recordId) ... */\n    tag_15:\n        /* \"backend/contracts/PawPrints.sol\":1458:1466  hospital */\n      0x02\n      0x00\n      swap1\n      sload\n      swap1\n      0x0100\n      exp\n      swap1\n      div\n      0xffffffffffffffffffffffffffffffffffffffff\n      and\n        /* \"backend/contracts/PawPrints.sol\":1444:1466  msg.sender == hospital */\n      0xffffffffffffffffffffffffffffffffffffffff\n      and\n        /* \"backend/contracts/PawPrints.sol\":1444:1454  msg.sender */\n      caller\n        /* \"backend/contracts/PawPrints.sol\":1444:1466  msg.sender == hospital */\n      0xffffffffffffffffffffffffffffffffffffffff\n      and\n      eq\n        /* \"backend/contracts/PawPrints.sol\":1423:1520  require(... */\n      tag_41\n      jumpi\n      mload(0x40)\n      0x08c379a000000000000000000000000000000000000000000000000000000000\n      dup2\n      mstore\n      0x04\n      add\n      tag_42\n      swap1\n      tag_43\n      jump\t// in\n    tag_42:\n      mload(0x40)\n      dup1\n      swap2\n      sub\n      swap1\n      revert\n    tag_41:\n        /* \"backend/contracts/PawPrints.sol\":1970:1979  visited() */\n      0x8a4335bd3facea1bfaf95771e37917d7f43ff5f64d26d19f43e8a1c931ddeb01\n      mload(0x40)\n      mload(0x40)\n      dup1\n      swap2\n      sub\n      swap1\n      log1\n        /* \"backend/contracts/PawPrints.sol\":1998:2142  MedicalRecord({... */\n      mload(0x40)\n      dup1\n      0x80\n      add\n      0x40\n      mstore\n      dup1\n        /* \"backend/contracts/PawPrints.sol\":2035:2043  _ownerId */\n      dup6\n        /* \"backend/contracts/PawPrints.sol\":1998:2142  MedicalRecord({... */\n      dup2\n      mstore\n      0x20\n      add\n        /* \"backend/contracts/PawPrints.sol\":2064:2070  _petId */\n      dup5\n        /* \"backend/contracts/PawPrints.sol\":1998:2142  MedicalRecord({... */\n      dup2\n      mstore\n      0x20\n      add\n        /* \"backend/contracts/PawPrints.sol\":2096:2107  _billAmount */\n      dup4\n        /* \"backend/contracts/PawPrints.sol\":1998:2142  MedicalRecord({... */\n      dup2\n      mstore\n      0x20\n      add\n        /* \"backend/contracts/PawPrints.sol\":2131:2140  _recordId */\n      dup3\n        /* \"backend/contracts/PawPrints.sol\":1998:2142  MedicalRecord({... */\n      dup2\n      mstore\n      pop\n      pop\n        /* \"backend/contracts/PawPrints.sol\":1825:2182  function newMedicalRecord (uint _ownerId, uint _petId, uint _billAmount, uint _recordId) ... */\n      pop\n      pop\n      pop\n      pop\n      jump\t// out\n        /* \"backend/contracts/PawPrints.sol\":2279:2722  function verify (uint _ownerId, uint _petId, address insuranceAddress)... */\n    tag_19:\n        /* \"backend/contracts/PawPrints.sol\":2392:2396  bool */\n      0x00\n        /* \"backend/contracts/PawPrints.sol\":2417:2427  verified() */\n      0xbbb82d89ae6cb278e0333b446560e83d91184e64026c1c4ee85d8eaba065a96c\n      mload(0x40)\n      mload(0x40)\n      dup1\n      swap2\n      sub\n      swap1\n      log1\n        /* \"backend/contracts/PawPrints.sol\":2606:2622  insuranceAddress */\n      dup2\n        /* \"backend/contracts/PawPrints.sol\":2596:2636  insurance(insuranceAddress).checkExpired */\n      0xffffffffffffffffffffffffffffffffffffffff\n      and\n      0x25ace2a7\n        /* \"backend/contracts/PawPrints.sol\":2596:2638  insurance(insuranceAddress).checkExpired() */\n      mload(0x40)\n      dup2\n      0xffffffff\n      and\n      0xe0\n      shl\n      dup2\n      mstore\n      0x04\n      add\n      0x20\n      mload(0x40)\n      dup1\n      dup4\n      sub\n      dup2\n      0x00\n      dup8\n      gas\n      call\n      iszero\n      dup1\n      iszero\n      tag_47\n      jumpi\n      returndatasize\n      0x00\n      dup1\n      returndatacopy\n      revert(0x00, returndatasize)\n    tag_47:\n      pop\n      pop\n      pop\n      pop\n      mload(0x40)\n      returndatasize\n      not(0x1f)\n      0x1f\n      dup3\n      add\n      and\n      dup3\n      add\n      dup1\n      0x40\n      mstore\n      pop\n      dup2\n      add\n      swap1\n      tag_48\n      swap2\n      swap1\n      tag_49\n      jump\t// in\n    tag_48:\n        /* \"backend/contracts/PawPrints.sol\":2587:2660  require (insurance(insuranceAddress).checkExpired(), \"Invalid Insurance\") */\n      tag_50\n      jumpi\n      mload(0x40)\n      0x08c379a000000000000000000000000000000000000000000000000000000000\n      dup2\n      mstore\n      0x04\n      add\n      tag_51\n      swap1\n      tag_52\n      jump\t// in\n    tag_51:\n      mload(0x40)\n      dup1\n      swap2\n      sub\n      swap1\n      revert\n    tag_50:\n        /* \"backend/contracts/PawPrints.sol\":2711:2715  true */\n      0x01\n        /* \"backend/contracts/PawPrints.sol\":2704:2715  return true */\n      swap1\n      pop\n        /* \"backend/contracts/PawPrints.sol\":2279:2722  function verify (uint _ownerId, uint _petId, address insuranceAddress)... */\n      swap4\n      swap3\n      pop\n      pop\n      pop\n      jump\t// out\n        /* \"backend/contracts/PawPrints.sol\":761:789  address payable public owner */\n    tag_23:\n      0x00\n      dup1\n      sload\n      swap1\n      0x0100\n      exp\n      swap1\n      div\n      0xffffffffffffffffffffffffffffffffffffffff\n      and\n      dup2\n      jump\t// out\n        /* \"backend/contracts/PawPrints.sol\":795:835  address payable public insuranceProvider */\n    tag_27:\n      0x01\n      0x00\n      swap1\n      sload\n      swap1\n      0x0100\n      exp\n      swap1\n      div\n      0xffffffffffffffffffffffffffffffffffffffff\n      and\n      dup2\n      jump\t// out\n        /* \"backend/contracts/PawPrints.sol\":841:872  address payable public hospital */\n    tag_30:\n      0x02\n      0x00\n      swap1\n      sload\n      swap1\n      0x0100\n      exp\n      swap1\n      div\n      0xffffffffffffffffffffffffffffffffffffffff\n      and\n      dup2\n      jump\t// out\n        /* \"backend/contracts/PawPrints.sol\":1173:1191  State public state */\n    tag_33:\n      0x02\n      0x14\n      swap1\n      sload\n      swap1\n      0x0100\n      exp\n      swap1\n      div\n      0xff\n      and\n      dup2\n      jump\t// out\n        /* \"backend/contracts/PawPrints.sol\":2957:3106  function reimbursement () ... */\n    tag_37:\n        /* \"backend/contracts/PawPrints.sol\":1626:1643  insuranceProvider */\n      0x01\n      0x00\n      swap1\n      sload\n      swap1\n      0x0100\n      exp\n      swap1\n      div\n      0xffffffffffffffffffffffffffffffffffffffff\n      and\n        /* \"backend/contracts/PawPrints.sol\":1612:1643  msg.sender == insuranceProvider */\n      0xffffffffffffffffffffffffffffffffffffffff\n      and\n        /* \"backend/contracts/PawPrints.sol\":1612:1622  msg.sender */\n      caller\n        /* \"backend/contracts/PawPrints.sol\":1612:1643  msg.sender == insuranceProvider */\n      0xffffffffffffffffffffffffffffffffffffffff\n      and\n      eq\n        /* \"backend/contracts/PawPrints.sol\":1591:1707  require(... */\n      tag_54\n      jumpi\n      mload(0x40)\n      0x08c379a000000000000000000000000000000000000000000000000000000000\n      dup2\n      mstore\n      0x04\n      add\n      tag_55\n      swap1\n      tag_56\n      jump\t// in\n    tag_55:\n      mload(0x40)\n      dup1\n      swap2\n      sub\n      swap1\n      revert\n    tag_54:\n        /* \"backend/contracts/PawPrints.sol\":3050:3062  reimbursed() */\n      0x61e2929ac66c18729e4b0d88c57278b64a58b35bbb02d8561220164d475c5f5d\n      mload(0x40)\n      mload(0x40)\n      dup1\n      swap2\n      sub\n      swap1\n      log1\n        /* \"backend/contracts/PawPrints.sol\":2957:3106  function reimbursement () ... */\n      jump\t// out\n        /* \"backend/contracts/PawPrints.sol\":2786:2895  function sentRecord()... */\n    tag_39:\n        /* \"backend/contracts/PawPrints.sol\":1458:1466  hospital */\n      0x02\n      0x00\n      swap1\n      sload\n      swap1\n      0x0100\n      exp\n      swap1\n      div\n      0xffffffffffffffffffffffffffffffffffffffff\n      and\n        /* \"backend/contracts/PawPrints.sol\":1444:1466  msg.sender == hospital */\n      0xffffffffffffffffffffffffffffffffffffffff\n      and\n        /* \"backend/contracts/PawPrints.sol\":1444:1454  msg.sender */\n      caller\n        /* \"backend/contracts/PawPrints.sol\":1444:1466  msg.sender == hospital */\n      0xffffffffffffffffffffffffffffffffffffffff\n      and\n      eq\n        /* \"backend/contracts/PawPrints.sol\":1423:1520  require(... */\n      tag_59\n      jumpi\n      mload(0x40)\n      0x08c379a000000000000000000000000000000000000000000000000000000000\n      dup2\n      mstore\n      0x04\n      add\n      tag_60\n      swap1\n      tag_43\n      jump\t// in\n    tag_60:\n      mload(0x40)\n      dup1\n      swap2\n      sub\n      swap1\n      revert\n    tag_59:\n        /* \"backend/contracts/PawPrints.sol\":1626:1643  insuranceProvider */\n      0x01\n      0x00\n      swap1\n      sload\n      swap1\n      0x0100\n      exp\n      swap1\n      div\n      0xffffffffffffffffffffffffffffffffffffffff\n      and\n        /* \"backend/contracts/PawPrints.sol\":1612:1643  msg.sender == insuranceProvider */\n      0xffffffffffffffffffffffffffffffffffffffff\n      and\n        /* \"backend/contracts/PawPrints.sol\":1612:1622  msg.sender */\n      caller\n        /* \"backend/contracts/PawPrints.sol\":1612:1643  msg.sender == insuranceProvider */\n      0xffffffffffffffffffffffffffffffffffffffff\n      and\n      eq\n        /* \"backend/contracts/PawPrints.sol\":1591:1707  require(... */\n      tag_62\n      jumpi\n      mload(0x40)\n      0x08c379a000000000000000000000000000000000000000000000000000000000\n      dup2\n      mstore\n      0x04\n      add\n      tag_63\n      swap1\n      tag_56\n      jump\t// in\n    tag_63:\n      mload(0x40)\n      dup1\n      swap2\n      sub\n      swap1\n      revert\n    tag_62:\n        /* \"backend/contracts/PawPrints.sol\":2786:2895  function sentRecord()... */\n      jump\t// out\n        /* \"#utility.yul\":88:205   */\n    tag_66:\n        /* \"#utility.yul\":197:198   */\n      0x00\n        /* \"#utility.yul\":194:195   */\n      dup1\n        /* \"#utility.yul\":187:199   */\n      revert\n        /* \"#utility.yul\":334:411   */\n    tag_68:\n        /* \"#utility.yul\":371:378   */\n      0x00\n        /* \"#utility.yul\":400:405   */\n      dup2\n        /* \"#utility.yul\":389:405   */\n      swap1\n      pop\n        /* \"#utility.yul\":334:411   */\n      swap2\n      swap1\n      pop\n      jump\t// out\n        /* \"#utility.yul\":417:539   */\n    tag_69:\n        /* \"#utility.yul\":490:514   */\n      tag_99\n        /* \"#utility.yul\":508:513   */\n      dup2\n        /* \"#utility.yul\":490:514   */\n      tag_68\n      jump\t// in\n    tag_99:\n        /* \"#utility.yul\":483:488   */\n      dup2\n        /* \"#utility.yul\":480:515   */\n      eq\n        /* \"#utility.yul\":470:533   */\n      tag_100\n      jumpi\n        /* \"#utility.yul\":529:530   */\n      0x00\n        /* \"#utility.yul\":526:527   */\n      dup1\n        /* \"#utility.yul\":519:531   */\n      revert\n        /* \"#utility.yul\":470:533   */\n    tag_100:\n        /* \"#utility.yul\":417:539   */\n      pop\n      jump\t// out\n        /* \"#utility.yul\":545:684   */\n    tag_70:\n        /* \"#utility.yul\":591:596   */\n      0x00\n        /* \"#utility.yul\":629:635   */\n      dup2\n        /* \"#utility.yul\":616:636   */\n      calldataload\n        /* \"#utility.yul\":607:636   */\n      swap1\n      pop\n        /* \"#utility.yul\":645:678   */\n      tag_102\n        /* \"#utility.yul\":672:677   */\n      dup2\n        /* \"#utility.yul\":645:678   */\n      tag_69\n      jump\t// in\n    tag_102:\n        /* \"#utility.yul\":545:684   */\n      swap3\n      swap2\n      pop\n      pop\n      jump\t// out\n        /* \"#utility.yul\":690:1455   */\n    tag_14:\n        /* \"#utility.yul\":776:782   */\n      0x00\n        /* \"#utility.yul\":784:790   */\n      dup1\n        /* \"#utility.yul\":792:798   */\n      0x00\n        /* \"#utility.yul\":800:806   */\n      dup1\n        /* \"#utility.yul\":849:852   */\n      0x80\n        /* \"#utility.yul\":837:846   */\n      dup6\n        /* \"#utility.yul\":828:835   */\n      dup8\n        /* \"#utility.yul\":824:847   */\n      sub\n        /* \"#utility.yul\":820:853   */\n      slt\n        /* \"#utility.yul\":817:937   */\n      iszero\n      tag_104\n      jumpi\n        /* \"#utility.yul\":856:935   */\n      tag_105\n      tag_66\n      jump\t// in\n    tag_105:\n        /* \"#utility.yul\":817:937   */\n    tag_104:\n        /* \"#utility.yul\":976:977   */\n      0x00\n        /* \"#utility.yul\":1001:1054   */\n      tag_106\n        /* \"#utility.yul\":1046:1053   */\n      dup8\n        /* \"#utility.yul\":1037:1043   */\n      dup3\n        /* \"#utility.yul\":1026:1035   */\n      dup9\n        /* \"#utility.yul\":1022:1044   */\n      add\n        /* \"#utility.yul\":1001:1054   */\n      tag_70\n      jump\t// in\n    tag_106:\n        /* \"#utility.yul\":991:1054   */\n      swap5\n      pop\n        /* \"#utility.yul\":947:1064   */\n      pop\n        /* \"#utility.yul\":1103:1105   */\n      0x20\n        /* \"#utility.yul\":1129:1182   */\n      tag_107\n        /* \"#utility.yul\":1174:1181   */\n      dup8\n        /* \"#utility.yul\":1165:1171   */\n      dup3\n        /* \"#utility.yul\":1154:1163   */\n      dup9\n        /* \"#utility.yul\":1150:1172   */\n      add\n        /* \"#utility.yul\":1129:1182   */\n      tag_70\n      jump\t// in\n    tag_107:\n        /* \"#utility.yul\":1119:1182   */\n      swap4\n      pop\n        /* \"#utility.yul\":1074:1192   */\n      pop\n        /* \"#utility.yul\":1231:1233   */\n      0x40\n        /* \"#utility.yul\":1257:1310   */\n      tag_108\n        /* \"#utility.yul\":1302:1309   */\n      dup8\n        /* \"#utility.yul\":1293:1299   */\n      dup3\n        /* \"#utility.yul\":1282:1291   */\n      dup9\n        /* \"#utility.yul\":1278:1300   */\n      add\n        /* \"#utility.yul\":1257:1310   */\n      tag_70\n      jump\t// in\n    tag_108:\n        /* \"#utility.yul\":1247:1310   */\n      swap3\n      pop\n        /* \"#utility.yul\":1202:1320   */\n      pop\n        /* \"#utility.yul\":1359:1361   */\n      0x60\n        /* \"#utility.yul\":1385:1438   */\n      tag_109\n        /* \"#utility.yul\":1430:1437   */\n      dup8\n        /* \"#utility.yul\":1421:1427   */\n      dup3\n        /* \"#utility.yul\":1410:1419   */\n      dup9\n        /* \"#utility.yul\":1406:1428   */\n      add\n        /* \"#utility.yul\":1385:1438   */\n      tag_70\n      jump\t// in\n    tag_109:\n        /* \"#utility.yul\":1375:1438   */\n      swap2\n      pop\n        /* \"#utility.yul\":1330:1448   */\n      pop\n        /* \"#utility.yul\":690:1455   */\n      swap3\n      swap6\n      swap2\n      swap5\n      pop\n      swap3\n      pop\n      jump\t// out\n        /* \"#utility.yul\":1461:1587   */\n    tag_71:\n        /* \"#utility.yul\":1498:1505   */\n      0x00\n        /* \"#utility.yul\":1538:1580   */\n      0xffffffffffffffffffffffffffffffffffffffff\n        /* \"#utility.yul\":1531:1536   */\n      dup3\n        /* \"#utility.yul\":1527:1581   */\n      and\n        /* \"#utility.yul\":1516:1581   */\n      swap1\n      pop\n        /* \"#utility.yul\":1461:1587   */\n      swap2\n      swap1\n      pop\n      jump\t// out\n        /* \"#utility.yul\":1593:1689   */\n    tag_72:\n        /* \"#utility.yul\":1630:1637   */\n      0x00\n        /* \"#utility.yul\":1659:1683   */\n      tag_112\n        /* \"#utility.yul\":1677:1682   */\n      dup3\n        /* \"#utility.yul\":1659:1683   */\n      tag_71\n      jump\t// in\n    tag_112:\n        /* \"#utility.yul\":1648:1683   */\n      swap1\n      pop\n        /* \"#utility.yul\":1593:1689   */\n      swap2\n      swap1\n      pop\n      jump\t// out\n        /* \"#utility.yul\":1695:1817   */\n    tag_73:\n        /* \"#utility.yul\":1768:1792   */\n      tag_114\n        /* \"#utility.yul\":1786:1791   */\n      dup2\n        /* \"#utility.yul\":1768:1792   */\n      tag_72\n      jump\t// in\n    tag_114:\n        /* \"#utility.yul\":1761:1766   */\n      dup2\n        /* \"#utility.yul\":1758:1793   */\n      eq\n        /* \"#utility.yul\":1748:1811   */\n      tag_115\n      jumpi\n        /* \"#utility.yul\":1807:1808   */\n      0x00\n        /* \"#utility.yul\":1804:1805   */\n      dup1\n        /* \"#utility.yul\":1797:1809   */\n      revert\n        /* \"#utility.yul\":1748:1811   */\n    tag_115:\n        /* \"#utility.yul\":1695:1817   */\n      pop\n      jump\t// out\n        /* \"#utility.yul\":1823:1962   */\n    tag_74:\n        /* \"#utility.yul\":1869:1874   */\n      0x00\n        /* \"#utility.yul\":1907:1913   */\n      dup2\n        /* \"#utility.yul\":1894:1914   */\n      calldataload\n        /* \"#utility.yul\":1885:1914   */\n      swap1\n      pop\n        /* \"#utility.yul\":1923:1956   */\n      tag_117\n        /* \"#utility.yul\":1950:1955   */\n      dup2\n        /* \"#utility.yul\":1923:1956   */\n      tag_73\n      jump\t// in\n    tag_117:\n        /* \"#utility.yul\":1823:1962   */\n      swap3\n      swap2\n      pop\n      pop\n      jump\t// out\n        /* \"#utility.yul\":1968:2587   */\n    tag_18:\n        /* \"#utility.yul\":2045:2051   */\n      0x00\n        /* \"#utility.yul\":2053:2059   */\n      dup1\n        /* \"#utility.yul\":2061:2067   */\n      0x00\n        /* \"#utility.yul\":2110:2112   */\n      0x60\n        /* \"#utility.yul\":2098:2107   */\n      dup5\n        /* \"#utility.yul\":2089:2096   */\n      dup7\n        /* \"#utility.yul\":2085:2108   */\n      sub\n        /* \"#utility.yul\":2081:2113   */\n      slt\n        /* \"#utility.yul\":2078:2197   */\n      iszero\n      tag_119\n      jumpi\n        /* \"#utility.yul\":2116:2195   */\n      tag_120\n      tag_66\n      jump\t// in\n    tag_120:\n        /* \"#utility.yul\":2078:2197   */\n    tag_119:\n        /* \"#utility.yul\":2236:2237   */\n      0x00\n        /* \"#utility.yul\":2261:2314   */\n      tag_121\n        /* \"#utility.yul\":2306:2313   */\n      dup7\n        /* \"#utility.yul\":2297:2303   */\n      dup3\n        /* \"#utility.yul\":2286:2295   */\n      dup8\n        /* \"#utility.yul\":2282:2304   */\n      add\n        /* \"#utility.yul\":2261:2314   */\n      tag_70\n      jump\t// in\n    tag_121:\n        /* \"#utility.yul\":2251:2314   */\n      swap4\n      pop\n        /* \"#utility.yul\":2207:2324   */\n      pop\n        /* \"#utility.yul\":2363:2365   */\n      0x20\n        /* \"#utility.yul\":2389:2442   */\n      tag_122\n        /* \"#utility.yul\":2434:2441   */\n      dup7\n        /* \"#utility.yul\":2425:2431   */\n      dup3\n        /* \"#utility.yul\":2414:2423   */\n      dup8\n        /* \"#utility.yul\":2410:2432   */\n      add\n        /* \"#utility.yul\":2389:2442   */\n      tag_70\n      jump\t// in\n    tag_122:\n        /* \"#utility.yul\":2379:2442   */\n      swap3\n      pop\n        /* \"#utility.yul\":2334:2452   */\n      pop\n        /* \"#utility.yul\":2491:2493   */\n      0x40\n        /* \"#utility.yul\":2517:2570   */\n      tag_123\n        /* \"#utility.yul\":2562:2569   */\n      dup7\n        /* \"#utility.yul\":2553:2559   */\n      dup3\n        /* \"#utility.yul\":2542:2551   */\n      dup8\n        /* \"#utility.yul\":2538:2560   */\n      add\n        /* \"#utility.yul\":2517:2570   */\n      tag_74\n      jump\t// in\n    tag_123:\n        /* \"#utility.yul\":2507:2570   */\n      swap2\n      pop\n        /* \"#utility.yul\":2462:2580   */\n      pop\n        /* \"#utility.yul\":1968:2587   */\n      swap3\n      pop\n      swap3\n      pop\n      swap3\n      jump\t// out\n        /* \"#utility.yul\":2593:2683   */\n    tag_75:\n        /* \"#utility.yul\":2627:2634   */\n      0x00\n        /* \"#utility.yul\":2670:2675   */\n      dup2\n        /* \"#utility.yul\":2663:2676   */\n      iszero\n        /* \"#utility.yul\":2656:2677   */\n      iszero\n        /* \"#utility.yul\":2645:2677   */\n      swap1\n      pop\n        /* \"#utility.yul\":2593:2683   */\n      swap2\n      swap1\n      pop\n      jump\t// out\n        /* \"#utility.yul\":2689:2798   */\n    tag_76:\n        /* \"#utility.yul\":2770:2791   */\n      tag_126\n        /* \"#utility.yul\":2785:2790   */\n      dup2\n        /* \"#utility.yul\":2770:2791   */\n      tag_75\n      jump\t// in\n    tag_126:\n        /* \"#utility.yul\":2765:2768   */\n      dup3\n        /* \"#utility.yul\":2758:2792   */\n      mstore\n        /* \"#utility.yul\":2689:2798   */\n      pop\n      pop\n      jump\t// out\n        /* \"#utility.yul\":2804:3014   */\n    tag_21:\n        /* \"#utility.yul\":2891:2895   */\n      0x00\n        /* \"#utility.yul\":2929:2931   */\n      0x20\n        /* \"#utility.yul\":2918:2927   */\n      dup3\n        /* \"#utility.yul\":2914:2932   */\n      add\n        /* \"#utility.yul\":2906:2932   */\n      swap1\n      pop\n        /* \"#utility.yul\":2942:3007   */\n      tag_128\n        /* \"#utility.yul\":3004:3005   */\n      0x00\n        /* \"#utility.yul\":2993:3002   */\n      dup4\n        /* \"#utility.yul\":2989:3006   */\n      add\n        /* \"#utility.yul\":2980:2986   */\n      dup5\n        /* \"#utility.yul\":2942:3007   */\n      tag_76\n      jump\t// in\n    tag_128:\n        /* \"#utility.yul\":2804:3014   */\n      swap3\n      swap2\n      pop\n      pop\n      jump\t// out\n        /* \"#utility.yul\":3020:3124   */\n    tag_77:\n        /* \"#utility.yul\":3065:3072   */\n      0x00\n        /* \"#utility.yul\":3094:3118   */\n      tag_130\n        /* \"#utility.yul\":3112:3117   */\n      dup3\n        /* \"#utility.yul\":3094:3118   */\n      tag_71\n      jump\t// in\n    tag_130:\n        /* \"#utility.yul\":3083:3118   */\n      swap1\n      pop\n        /* \"#utility.yul\":3020:3124   */\n      swap2\n      swap1\n      pop\n      jump\t// out\n        /* \"#utility.yul\":3130:3272   */\n    tag_78:\n        /* \"#utility.yul\":3233:3265   */\n      tag_132\n        /* \"#utility.yul\":3259:3264   */\n      dup2\n        /* \"#utility.yul\":3233:3265   */\n      tag_77\n      jump\t// in\n    tag_132:\n        /* \"#utility.yul\":3228:3231   */\n      dup3\n        /* \"#utility.yul\":3221:3266   */\n      mstore\n        /* \"#utility.yul\":3130:3272   */\n      pop\n      pop\n      jump\t// out\n        /* \"#utility.yul\":3278:3532   */\n    tag_25:\n        /* \"#utility.yul\":3387:3391   */\n      0x00\n        /* \"#utility.yul\":3425:3427   */\n      0x20\n        /* \"#utility.yul\":3414:3423   */\n      dup3\n        /* \"#utility.yul\":3410:3428   */\n      add\n        /* \"#utility.yul\":3402:3428   */\n      swap1\n      pop\n        /* \"#utility.yul\":3438:3525   */\n      tag_134\n        /* \"#utility.yul\":3522:3523   */\n      0x00\n        /* \"#utility.yul\":3511:3520   */\n      dup4\n        /* \"#utility.yul\":3507:3524   */\n      add\n        /* \"#utility.yul\":3498:3504   */\n      dup5\n        /* \"#utility.yul\":3438:3525   */\n      tag_78\n      jump\t// in\n    tag_134:\n        /* \"#utility.yul\":3278:3532   */\n      swap3\n      swap2\n      pop\n      pop\n      jump\t// out\n        /* \"#utility.yul\":3538:3718   */\n    tag_79:\n        /* \"#utility.yul\":3586:3663   */\n      0x4e487b7100000000000000000000000000000000000000000000000000000000\n        /* \"#utility.yul\":3583:3584   */\n      0x00\n        /* \"#utility.yul\":3576:3664   */\n      mstore\n        /* \"#utility.yul\":3683:3687   */\n      0x21\n        /* \"#utility.yul\":3680:3681   */\n      0x04\n        /* \"#utility.yul\":3673:3688   */\n      mstore\n        /* \"#utility.yul\":3707:3711   */\n      0x24\n        /* \"#utility.yul\":3704:3705   */\n      0x00\n        /* \"#utility.yul\":3697:3712   */\n      revert\n        /* \"#utility.yul\":3724:3838   */\n    tag_80:\n        /* \"#utility.yul\":3806:3807   */\n      0x04\n        /* \"#utility.yul\":3799:3804   */\n      dup2\n        /* \"#utility.yul\":3796:3808   */\n      lt\n        /* \"#utility.yul\":3786:3832   */\n      tag_137\n      jumpi\n        /* \"#utility.yul\":3812:3830   */\n      tag_138\n      tag_79\n      jump\t// in\n    tag_138:\n        /* \"#utility.yul\":3786:3832   */\n    tag_137:\n        /* \"#utility.yul\":3724:3838   */\n      pop\n      jump\t// out\n        /* \"#utility.yul\":3844:3973   */\n    tag_81:\n        /* \"#utility.yul\":3890:3897   */\n      0x00\n        /* \"#utility.yul\":3919:3924   */\n      dup2\n        /* \"#utility.yul\":3908:3924   */\n      swap1\n      pop\n        /* \"#utility.yul\":3925:3967   */\n      tag_140\n        /* \"#utility.yul\":3961:3966   */\n      dup3\n        /* \"#utility.yul\":3925:3967   */\n      tag_80\n      jump\t// in\n    tag_140:\n        /* \"#utility.yul\":3844:3973   */\n      swap2\n      swap1\n      pop\n      jump\t// out\n        /* \"#utility.yul\":3979:4108   */\n    tag_82:\n        /* \"#utility.yul\":4036:4045   */\n      0x00\n        /* \"#utility.yul\":4069:4102   */\n      tag_142\n        /* \"#utility.yul\":4096:4101   */\n      dup3\n        /* \"#utility.yul\":4069:4102   */\n      tag_81\n      jump\t// in\n    tag_142:\n        /* \"#utility.yul\":4056:4102   */\n      swap1\n      pop\n        /* \"#utility.yul\":3979:4108   */\n      swap2\n      swap1\n      pop\n      jump\t// out\n        /* \"#utility.yul\":4114:4259   */\n    tag_83:\n        /* \"#utility.yul\":4208:4252   */\n      tag_144\n        /* \"#utility.yul\":4246:4251   */\n      dup2\n        /* \"#utility.yul\":4208:4252   */\n      tag_82\n      jump\t// in\n    tag_144:\n        /* \"#utility.yul\":4203:4206   */\n      dup3\n        /* \"#utility.yul\":4196:4253   */\n      mstore\n        /* \"#utility.yul\":4114:4259   */\n      pop\n      pop\n      jump\t// out\n        /* \"#utility.yul\":4265:4501   */\n    tag_35:\n        /* \"#utility.yul\":4365:4369   */\n      0x00\n        /* \"#utility.yul\":4403:4405   */\n      0x20\n        /* \"#utility.yul\":4392:4401   */\n      dup3\n        /* \"#utility.yul\":4388:4406   */\n      add\n        /* \"#utility.yul\":4380:4406   */\n      swap1\n      pop\n        /* \"#utility.yul\":4416:4494   */\n      tag_146\n        /* \"#utility.yul\":4491:4492   */\n      0x00\n        /* \"#utility.yul\":4480:4489   */\n      dup4\n        /* \"#utility.yul\":4476:4493   */\n      add\n        /* \"#utility.yul\":4467:4473   */\n      dup5\n        /* \"#utility.yul\":4416:4494   */\n      tag_83\n      jump\t// in\n    tag_146:\n        /* \"#utility.yul\":4265:4501   */\n      swap3\n      swap2\n      pop\n      pop\n      jump\t// out\n        /* \"#utility.yul\":4507:4676   */\n    tag_84:\n        /* \"#utility.yul\":4591:4602   */\n      0x00\n        /* \"#utility.yul\":4625:4631   */\n      dup3\n        /* \"#utility.yul\":4620:4623   */\n      dup3\n        /* \"#utility.yul\":4613:4632   */\n      mstore\n        /* \"#utility.yul\":4665:4669   */\n      0x20\n        /* \"#utility.yul\":4660:4663   */\n      dup3\n        /* \"#utility.yul\":4656:4670   */\n      add\n        /* \"#utility.yul\":4641:4670   */\n      swap1\n      pop\n        /* \"#utility.yul\":4507:4676   */\n      swap3\n      swap2\n      pop\n      pop\n      jump\t// out\n        /* \"#utility.yul\":4682:4860   */\n    tag_85:\n        /* \"#utility.yul\":4822:4852   */\n      0x4f6e6c7920484f53504954414c2063616e2063616c6c20746869732e00000000\n        /* \"#utility.yul\":4818:4819   */\n      0x00\n        /* \"#utility.yul\":4810:4816   */\n      dup3\n        /* \"#utility.yul\":4806:4820   */\n      add\n        /* \"#utility.yul\":4799:4853   */\n      mstore\n        /* \"#utility.yul\":4682:4860   */\n      pop\n      jump\t// out\n        /* \"#utility.yul\":4866:5232   */\n    tag_86:\n        /* \"#utility.yul\":5008:5011   */\n      0x00\n        /* \"#utility.yul\":5029:5096   */\n      tag_150\n        /* \"#utility.yul\":5093:5095   */\n      0x1c\n        /* \"#utility.yul\":5088:5091   */\n      dup4\n        /* \"#utility.yul\":5029:5096   */\n      tag_84\n      jump\t// in\n    tag_150:\n        /* \"#utility.yul\":5022:5096   */\n      swap2\n      pop\n        /* \"#utility.yul\":5105:5198   */\n      tag_151\n        /* \"#utility.yul\":5194:5197   */\n      dup3\n        /* \"#utility.yul\":5105:5198   */\n      tag_85\n      jump\t// in\n    tag_151:\n        /* \"#utility.yul\":5223:5225   */\n      0x20\n        /* \"#utility.yul\":5218:5221   */\n      dup3\n        /* \"#utility.yul\":5214:5226   */\n      add\n        /* \"#utility.yul\":5207:5226   */\n      swap1\n      pop\n        /* \"#utility.yul\":4866:5232   */\n      swap2\n      swap1\n      pop\n      jump\t// out\n        /* \"#utility.yul\":5238:5657   */\n    tag_43:\n        /* \"#utility.yul\":5404:5408   */\n      0x00\n        /* \"#utility.yul\":5442:5444   */\n      0x20\n        /* \"#utility.yul\":5431:5440   */\n      dup3\n        /* \"#utility.yul\":5427:5445   */\n      add\n        /* \"#utility.yul\":5419:5445   */\n      swap1\n      pop\n        /* \"#utility.yul\":5491:5500   */\n      dup2\n        /* \"#utility.yul\":5485:5489   */\n      dup2\n        /* \"#utility.yul\":5481:5501   */\n      sub\n        /* \"#utility.yul\":5477:5478   */\n      0x00\n        /* \"#utility.yul\":5466:5475   */\n      dup4\n        /* \"#utility.yul\":5462:5479   */\n      add\n        /* \"#utility.yul\":5455:5502   */\n      mstore\n        /* \"#utility.yul\":5519:5650   */\n      tag_153\n        /* \"#utility.yul\":5645:5649   */\n      dup2\n        /* \"#utility.yul\":5519:5650   */\n      tag_86\n      jump\t// in\n    tag_153:\n        /* \"#utility.yul\":5511:5650   */\n      swap1\n      pop\n        /* \"#utility.yul\":5238:5657   */\n      swap2\n      swap1\n      pop\n      jump\t// out\n        /* \"#utility.yul\":5663:5779   */\n    tag_87:\n        /* \"#utility.yul\":5733:5754   */\n      tag_155\n        /* \"#utility.yul\":5748:5753   */\n      dup2\n        /* \"#utility.yul\":5733:5754   */\n      tag_75\n      jump\t// in\n    tag_155:\n        /* \"#utility.yul\":5726:5731   */\n      dup2\n        /* \"#utility.yul\":5723:5755   */\n      eq\n        /* \"#utility.yul\":5713:5773   */\n      tag_156\n      jumpi\n        /* \"#utility.yul\":5769:5770   */\n      0x00\n        /* \"#utility.yul\":5766:5767   */\n      dup1\n        /* \"#utility.yul\":5759:5771   */\n      revert\n        /* \"#utility.yul\":5713:5773   */\n    tag_156:\n        /* \"#utility.yul\":5663:5779   */\n      pop\n      jump\t// out\n        /* \"#utility.yul\":5785:5922   */\n    tag_88:\n        /* \"#utility.yul\":5839:5844   */\n      0x00\n        /* \"#utility.yul\":5870:5876   */\n      dup2\n        /* \"#utility.yul\":5864:5877   */\n      mload\n        /* \"#utility.yul\":5855:5877   */\n      swap1\n      pop\n        /* \"#utility.yul\":5886:5916   */\n      tag_158\n        /* \"#utility.yul\":5910:5915   */\n      dup2\n        /* \"#utility.yul\":5886:5916   */\n      tag_87\n      jump\t// in\n    tag_158:\n        /* \"#utility.yul\":5785:5922   */\n      swap3\n      swap2\n      pop\n      pop\n      jump\t// out\n        /* \"#utility.yul\":5928:6273   */\n    tag_49:\n        /* \"#utility.yul\":5995:6001   */\n      0x00\n        /* \"#utility.yul\":6044:6046   */\n      0x20\n        /* \"#utility.yul\":6032:6041   */\n      dup3\n        /* \"#utility.yul\":6023:6030   */\n      dup5\n        /* \"#utility.yul\":6019:6042   */\n      sub\n        /* \"#utility.yul\":6015:6047   */\n      slt\n        /* \"#utility.yul\":6012:6131   */\n      iszero\n      tag_160\n      jumpi\n        /* \"#utility.yul\":6050:6129   */\n      tag_161\n      tag_66\n      jump\t// in\n    tag_161:\n        /* \"#utility.yul\":6012:6131   */\n    tag_160:\n        /* \"#utility.yul\":6170:6171   */\n      0x00\n        /* \"#utility.yul\":6195:6256   */\n      tag_162\n        /* \"#utility.yul\":6248:6255   */\n      dup5\n        /* \"#utility.yul\":6239:6245   */\n      dup3\n        /* \"#utility.yul\":6228:6237   */\n      dup6\n        /* \"#utility.yul\":6224:6246   */\n      add\n        /* \"#utility.yul\":6195:6256   */\n      tag_88\n      jump\t// in\n    tag_162:\n        /* \"#utility.yul\":6185:6256   */\n      swap2\n      pop\n        /* \"#utility.yul\":6141:6266   */\n      pop\n        /* \"#utility.yul\":5928:6273   */\n      swap3\n      swap2\n      pop\n      pop\n      jump\t// out\n        /* \"#utility.yul\":6279:6446   */\n    tag_89:\n        /* \"#utility.yul\":6419:6438   */\n      0x496e76616c696420496e737572616e6365000000000000000000000000000000\n        /* \"#utility.yul\":6415:6416   */\n      0x00\n        /* \"#utility.yul\":6407:6413   */\n      dup3\n        /* \"#utility.yul\":6403:6417   */\n      add\n        /* \"#utility.yul\":6396:6439   */\n      mstore\n        /* \"#utility.yul\":6279:6446   */\n      pop\n      jump\t// out\n        /* \"#utility.yul\":6452:6818   */\n    tag_90:\n        /* \"#utility.yul\":6594:6597   */\n      0x00\n        /* \"#utility.yul\":6615:6682   */\n      tag_165\n        /* \"#utility.yul\":6679:6681   */\n      0x11\n        /* \"#utility.yul\":6674:6677   */\n      dup4\n        /* \"#utility.yul\":6615:6682   */\n      tag_84\n      jump\t// in\n    tag_165:\n        /* \"#utility.yul\":6608:6682   */\n      swap2\n      pop\n        /* \"#utility.yul\":6691:6784   */\n      tag_166\n        /* \"#utility.yul\":6780:6783   */\n      dup3\n        /* \"#utility.yul\":6691:6784   */\n      tag_89\n      jump\t// in\n    tag_166:\n        /* \"#utility.yul\":6809:6811   */\n      0x20\n        /* \"#utility.yul\":6804:6807   */\n      dup3\n        /* \"#utility.yul\":6800:6812   */\n      add\n        /* \"#utility.yul\":6793:6812   */\n      swap1\n      pop\n        /* \"#utility.yul\":6452:6818   */\n      swap2\n      swap1\n      pop\n      jump\t// out\n        /* \"#utility.yul\":6824:7243   */\n    tag_52:\n        /* \"#utility.yul\":6990:6994   */\n      0x00\n        /* \"#utility.yul\":7028:7030   */\n      0x20\n        /* \"#utility.yul\":7017:7026   */\n      dup3\n        /* \"#utility.yul\":7013:7031   */\n      add\n        /* \"#utility.yul\":7005:7031   */\n      swap1\n      pop\n        /* \"#utility.yul\":7077:7086   */\n      dup2\n        /* \"#utility.yul\":7071:7075   */\n      dup2\n        /* \"#utility.yul\":7067:7087   */\n      sub\n        /* \"#utility.yul\":7063:7064   */\n      0x00\n        /* \"#utility.yul\":7052:7061   */\n      dup4\n        /* \"#utility.yul\":7048:7065   */\n      add\n        /* \"#utility.yul\":7041:7088   */\n      mstore\n        /* \"#utility.yul\":7105:7236   */\n      tag_168\n        /* \"#utility.yul\":7231:7235   */\n      dup2\n        /* \"#utility.yul\":7105:7236   */\n      tag_90\n      jump\t// in\n    tag_168:\n        /* \"#utility.yul\":7097:7236   */\n      swap1\n      pop\n        /* \"#utility.yul\":6824:7243   */\n      swap2\n      swap1\n      pop\n      jump\t// out\n        /* \"#utility.yul\":7249:7474   */\n    tag_91:\n        /* \"#utility.yul\":7389:7423   */\n      0x4f6e6c7920494e535552414e43452050524f56494445522063616e2063616c6c\n        /* \"#utility.yul\":7385:7386   */\n      0x00\n        /* \"#utility.yul\":7377:7383   */\n      dup3\n        /* \"#utility.yul\":7373:7387   */\n      add\n        /* \"#utility.yul\":7366:7424   */\n      mstore\n        /* \"#utility.yul\":7458:7466   */\n      0x20746869732e0000000000000000000000000000000000000000000000000000\n        /* \"#utility.yul\":7453:7455   */\n      0x20\n        /* \"#utility.yul\":7445:7451   */\n      dup3\n        /* \"#utility.yul\":7441:7456   */\n      add\n        /* \"#utility.yul\":7434:7467   */\n      mstore\n        /* \"#utility.yul\":7249:7474   */\n      pop\n      jump\t// out\n        /* \"#utility.yul\":7480:7846   */\n    tag_92:\n        /* \"#utility.yul\":7622:7625   */\n      0x00\n        /* \"#utility.yul\":7643:7710   */\n      tag_171\n        /* \"#utility.yul\":7707:7709   */\n      0x26\n        /* \"#utility.yul\":7702:7705   */\n      dup4\n        /* \"#utility.yul\":7643:7710   */\n      tag_84\n      jump\t// in\n    tag_171:\n        /* \"#utility.yul\":7636:7710   */\n      swap2\n      pop\n        /* \"#utility.yul\":7719:7812   */\n      tag_172\n        /* \"#utility.yul\":7808:7811   */\n      dup3\n        /* \"#utility.yul\":7719:7812   */\n      tag_91\n      jump\t// in\n    tag_172:\n        /* \"#utility.yul\":7837:7839   */\n      0x40\n        /* \"#utility.yul\":7832:7835   */\n      dup3\n        /* \"#utility.yul\":7828:7840   */\n      add\n        /* \"#utility.yul\":7821:7840   */\n      swap1\n      pop\n        /* \"#utility.yul\":7480:7846   */\n      swap2\n      swap1\n      pop\n      jump\t// out\n        /* \"#utility.yul\":7852:8271   */\n    tag_56:\n        /* \"#utility.yul\":8018:8022   */\n      0x00\n        /* \"#utility.yul\":8056:8058   */\n      0x20\n        /* \"#utility.yul\":8045:8054   */\n      dup3\n        /* \"#utility.yul\":8041:8059   */\n      add\n        /* \"#utility.yul\":8033:8059   */\n      swap1\n      pop\n        /* \"#utility.yul\":8105:8114   */\n      dup2\n        /* \"#utility.yul\":8099:8103   */\n      dup2\n        /* \"#utility.yul\":8095:8115   */\n      sub\n        /* \"#utility.yul\":8091:8092   */\n      0x00\n        /* \"#utility.yul\":8080:8089   */\n      dup4\n        /* \"#utility.yul\":8076:8093   */\n      add\n        /* \"#utility.yul\":8069:8116   */\n      mstore\n        /* \"#utility.yul\":8133:8264   */\n      tag_174\n        /* \"#utility.yul\":8259:8263   */\n      dup2\n        /* \"#utility.yul\":8133:8264   */\n      tag_92\n      jump\t// in\n    tag_174:\n        /* \"#utility.yul\":8125:8264   */\n      swap1\n      pop\n        /* \"#utility.yul\":7852:8271   */\n      swap2\n      swap1\n      pop\n      jump\t// out\n\n    auxdata: 0xa2646970667358221220b81451f87dba47edceed416c906dbd0d635a963623f314785170a9e31dc8293c64736f6c63430008120033\n}\n",
				"bytecode": {
					"linkReferences": {},
					"object": "608060405234801561001057600080fd5b506109f6806100206000396000f3fe608060405234801561001057600080fd5b50600436106100885760003560e01c8063aa2fedde1161005b578063aa2fedde14610115578063c19d93fb14610133578063d3f0c8bb14610151578063e536b4931461015b57610088565b80630ffcbc771461008d578063731d9c88146100a95780638da5cb5b146100d95780639955f67c146100f7575b600080fd5b6100a760048036038101906100a291906105d0565b610165565b005b6100c360048036038101906100be9190610695565b610249565b6040516100d09190610703565b60405180910390f35b6100e1610332565b6040516100ee919061073f565b60405180910390f35b6100ff610356565b60405161010c919061073f565b60405180910390f35b61011d61037c565b60405161012a919061073f565b60405180910390f35b61013b6103a2565b60405161014891906107d1565b60405180910390f35b6101596103b5565b005b610163610473565b005b600260009054906101000a900473ffffffffffffffffffffffffffffffffffffffff1673ffffffffffffffffffffffffffffffffffffffff163373ffffffffffffffffffffffffffffffffffffffff16146101f5576040517f08c379a00000000000000000000000000000000000000000000000000000000081526004016101ec90610849565b60405180910390fd5b7f8a4335bd3facea1bfaf95771e37917d7f43ff5f64d26d19f43e8a1c931ddeb0160405160405180910390a16040518060800160405280858152602001848152602001838152602001828152505050505050565b60007fbbb82d89ae6cb278e0333b446560e83d91184e64026c1c4ee85d8eaba065a96c60405160405180910390a18173ffffffffffffffffffffffffffffffffffffffff166325ace2a76040518163ffffffff1660e01b81526004016020604051808303816000875af11580156102c4573d6000803e3d6000fd5b505050506040513d601f19601f820116820180604052508101906102e89190610895565b610327576040517f08c379a000000000000000000000000000000000000000000000000000000000815260040161031e9061090e565b60405180910390fd5b600190509392505050565b60008054906101000a900473ffffffffffffffffffffffffffffffffffffffff1681565b600160009054906101000a900473ffffffffffffffffffffffffffffffffffffffff1681565b600260009054906101000a900473ffffffffffffffffffffffffffffffffffffffff1681565b600260149054906101000a900460ff1681565b600160009054906101000a900473ffffffffffffffffffffffffffffffffffffffff1673ffffffffffffffffffffffffffffffffffffffff163373ffffffffffffffffffffffffffffffffffffffff1614610445576040517f08c379a000000000000000000000000000000000000000000000000000000000815260040161043c906109a0565b60405180910390fd5b7f61e2929ac66c18729e4b0d88c57278b64a58b35bbb02d8561220164d475c5f5d60405160405180910390a1565b600260009054906101000a900473ffffffffffffffffffffffffffffffffffffffff1673ffffffffffffffffffffffffffffffffffffffff163373ffffffffffffffffffffffffffffffffffffffff1614610503576040517f08c379a00000000000000000000000000000000000000000000000000000000081526004016104fa90610849565b60405180910390fd5b600160009054906101000a900473ffffffffffffffffffffffffffffffffffffffff1673ffffffffffffffffffffffffffffffffffffffff163373ffffffffffffffffffffffffffffffffffffffff1614610593576040517f08c379a000000000000000000000000000000000000000000000000000000000815260040161058a906109a0565b60405180910390fd5b565b600080fd5b6000819050919050565b6105ad8161059a565b81146105b857600080fd5b50565b6000813590506105ca816105a4565b92915050565b600080600080608085870312156105ea576105e9610595565b5b60006105f8878288016105bb565b9450506020610609878288016105bb565b935050604061061a878288016105bb565b925050606061062b878288016105bb565b91505092959194509250565b600073ffffffffffffffffffffffffffffffffffffffff82169050919050565b600061066282610637565b9050919050565b61067281610657565b811461067d57600080fd5b50565b60008135905061068f81610669565b92915050565b6000806000606084860312156106ae576106ad610595565b5b60006106bc868287016105bb565b93505060206106cd868287016105bb565b92505060406106de86828701610680565b9150509250925092565b60008115159050919050565b6106fd816106e8565b82525050565b600060208201905061071860008301846106f4565b92915050565b600061072982610637565b9050919050565b6107398161071e565b82525050565b60006020820190506107546000830184610730565b92915050565b7f4e487b7100000000000000000000000000000000000000000000000000000000600052602160045260246000fd5b6004811061079a5761079961075a565b5b50565b60008190506107ab82610789565b919050565b60006107bb8261079d565b9050919050565b6107cb816107b0565b82525050565b60006020820190506107e660008301846107c2565b92915050565b600082825260208201905092915050565b7f4f6e6c7920484f53504954414c2063616e2063616c6c20746869732e00000000600082015250565b6000610833601c836107ec565b915061083e826107fd565b602082019050919050565b6000602082019050818103600083015261086281610826565b9050919050565b610872816106e8565b811461087d57600080fd5b50565b60008151905061088f81610869565b92915050565b6000602082840312156108ab576108aa610595565b5b60006108b984828501610880565b91505092915050565b7f496e76616c696420496e737572616e6365000000000000000000000000000000600082015250565b60006108f86011836107ec565b9150610903826108c2565b602082019050919050565b60006020820190508181036000830152610927816108eb565b9050919050565b7f4f6e6c7920494e535552414e43452050524f56494445522063616e2063616c6c60008201527f20746869732e0000000000000000000000000000000000000000000000000000602082015250565b600061098a6026836107ec565b91506109958261092e565b604082019050919050565b600060208201905081810360008301526109b98161097d565b905091905056fea2646970667358221220b81451f87dba47edceed416c906dbd0d635a963623f314785170a9e31dc8293c64736f6c63430008120033",
					"opcodes": "PUSH1 0x80 PUSH1 0x40 MSTORE CALLVALUE DUP1 ISZERO PUSH2 0x10 JUMPI PUSH1 0x0 DUP1 REVERT JUMPDEST POP PUSH2 0x9F6 DUP1 PUSH2 0x20 PUSH1 0x0 CODECOPY PUSH1 0x0 RETURN INVALID PUSH1 0x80 PUSH1 0x40 MSTORE CALLVALUE DUP1 ISZERO PUSH2 0x10 JUMPI PUSH1 0x0 DUP1 REVERT JUMPDEST POP PUSH1 0x4 CALLDATASIZE LT PUSH2 0x88 JUMPI PUSH1 0x0 CALLDATALOAD PUSH1 0xE0 SHR DUP1 PUSH4 0xAA2FEDDE GT PUSH2 0x5B JUMPI DUP1 PUSH4 0xAA2FEDDE EQ PUSH2 0x115 JUMPI DUP1 PUSH4 0xC19D93FB EQ PUSH2 0x133 JUMPI DUP1 PUSH4 0xD3F0C8BB EQ PUSH2 0x151 JUMPI DUP1 PUSH4 0xE536B493 EQ PUSH2 0x15B JUMPI PUSH2 0x88 JUMP JUMPDEST DUP1 PUSH4 0xFFCBC77 EQ PUSH2 0x8D JUMPI DUP1 PUSH4 0x731D9C88 EQ PUSH2 0xA9 JUMPI DUP1 PUSH4 0x8DA5CB5B EQ PUSH2 0xD9 JUMPI DUP1 PUSH4 0x9955F67C EQ PUSH2 0xF7 JUMPI JUMPDEST PUSH1 0x0 DUP1 REVERT JUMPDEST PUSH2 0xA7 PUSH1 0x4 DUP1 CALLDATASIZE SUB DUP2 ADD SWAP1 PUSH2 0xA2 SWAP2 SWAP1 PUSH2 0x5D0 JUMP JUMPDEST PUSH2 0x165 JUMP JUMPDEST STOP JUMPDEST PUSH2 0xC3 PUSH1 0x4 DUP1 CALLDATASIZE SUB DUP2 ADD SWAP1 PUSH2 0xBE SWAP2 SWAP1 PUSH2 0x695 JUMP JUMPDEST PUSH2 0x249 JUMP JUMPDEST PUSH1 0x40 MLOAD PUSH2 0xD0 SWAP2 SWAP1 PUSH2 0x703 JUMP JUMPDEST PUSH1 0x40 MLOAD DUP1 SWAP2 SUB SWAP1 RETURN JUMPDEST PUSH2 0xE1 PUSH2 0x332 JUMP JUMPDEST PUSH1 0x40 MLOAD PUSH2 0xEE SWAP2 SWAP1 PUSH2 0x73F JUMP JUMPDEST PUSH1 0x40 MLOAD DUP1 SWAP2 SUB SWAP1 RETURN JUMPDEST PUSH2 0xFF PUSH2 0x356 JUMP JUMPDEST PUSH1 0x40 MLOAD PUSH2 0x10C SWAP2 SWAP1 PUSH2 0x73F JUMP JUMPDEST PUSH1 0x40 MLOAD DUP1 SWAP2 SUB SWAP1 RETURN JUMPDEST PUSH2 0x11D PUSH2 0x37C JUMP JUMPDEST PUSH1 0x40 MLOAD PUSH2 0x12A SWAP2 SWAP1 PUSH2 0x73F JUMP JUMPDEST PUSH1 0x40 MLOAD DUP1 SWAP2 SUB SWAP1 RETURN JUMPDEST PUSH2 0x13B PUSH2 0x3A2 JUMP JUMPDEST PUSH1 0x40 MLOAD PUSH2 0x148 SWAP2 SWAP1 PUSH2 0x7D1 JUMP JUMPDEST PUSH1 0x40 MLOAD DUP1 SWAP2 SUB SWAP1 RETURN JUMPDEST PUSH2 0x159 PUSH2 0x3B5 JUMP JUMPDEST STOP JUMPDEST PUSH2 0x163 PUSH2 0x473 JUMP JUMPDEST STOP JUMPDEST PUSH1 0x2 PUSH1 0x0 SWAP1 SLOAD SWAP1 PUSH2 0x100 EXP SWAP1 DIV PUSH20 0xFFFFFFFFFFFFFFFFFFFFFFFFFFFFFFFFFFFFFFFF AND PUSH20 0xFFFFFFFFFFFFFFFFFFFFFFFFFFFFFFFFFFFFFFFF AND CALLER PUSH20 0xFFFFFFFFFFFFFFFFFFFFFFFFFFFFFFFFFFFFFFFF AND EQ PUSH2 0x1F5 JUMPI PUSH1 0x40 MLOAD PUSH32 0x8C379A000000000000000000000000000000000000000000000000000000000 DUP2 MSTORE PUSH1 0x4 ADD PUSH2 0x1EC SWAP1 PUSH2 0x849 JUMP JUMPDEST PUSH1 0x40 MLOAD DUP1 SWAP2 SUB SWAP1 REVERT JUMPDEST PUSH32 0x8A4335BD3FACEA1BFAF95771E37917D7F43FF5F64D26D19F43E8A1C931DDEB01 PUSH1 0x40 MLOAD PUSH1 0x40 MLOAD DUP1 SWAP2 SUB SWAP1 LOG1 PUSH1 0x40 MLOAD DUP1 PUSH1 0x80 ADD PUSH1 0x40 MSTORE DUP1 DUP6 DUP2 MSTORE PUSH1 0x20 ADD DUP5 DUP2 MSTORE PUSH1 0x20 ADD DUP4 DUP2 MSTORE PUSH1 0x20 ADD DUP3 DUP2 MSTORE POP POP POP POP POP POP JUMP JUMPDEST PUSH1 0x0 PUSH32 0xBBB82D89AE6CB278E0333B446560E83D91184E64026C1C4EE85D8EABA065A96C PUSH1 0x40 MLOAD PUSH1 0x40 MLOAD DUP1 SWAP2 SUB SWAP1 LOG1 DUP2 PUSH20 0xFFFFFFFFFFFFFFFFFFFFFFFFFFFFFFFFFFFFFFFF AND PUSH4 0x25ACE2A7 PUSH1 0x40 MLOAD DUP2 PUSH4 0xFFFFFFFF AND PUSH1 0xE0 SHL DUP2 MSTORE PUSH1 0x4 ADD PUSH1 0x20 PUSH1 0x40 MLOAD DUP1 DUP4 SUB DUP2 PUSH1 0x0 DUP8 GAS CALL ISZERO DUP1 ISZERO PUSH2 0x2C4 JUMPI RETURNDATASIZE PUSH1 0x0 DUP1 RETURNDATACOPY RETURNDATASIZE PUSH1 0x0 REVERT JUMPDEST POP POP POP POP PUSH1 0x40 MLOAD RETURNDATASIZE PUSH1 0x1F NOT PUSH1 0x1F DUP3 ADD AND DUP3 ADD DUP1 PUSH1 0x40 MSTORE POP DUP2 ADD SWAP1 PUSH2 0x2E8 SWAP2 SWAP1 PUSH2 0x895 JUMP JUMPDEST PUSH2 0x327 JUMPI PUSH1 0x40 MLOAD PUSH32 0x8C379A000000000000000000000000000000000000000000000000000000000 DUP2 MSTORE PUSH1 0x4 ADD PUSH2 0x31E SWAP1 PUSH2 0x90E JUMP JUMPDEST PUSH1 0x40 MLOAD DUP1 SWAP2 SUB SWAP1 REVERT JUMPDEST PUSH1 0x1 SWAP1 POP SWAP4 SWAP3 POP POP POP JUMP JUMPDEST PUSH1 0x0 DUP1 SLOAD SWAP1 PUSH2 0x100 EXP SWAP1 DIV PUSH20 0xFFFFFFFFFFFFFFFFFFFFFFFFFFFFFFFFFFFFFFFF AND DUP2 JUMP JUMPDEST PUSH1 0x1 PUSH1 0x0 SWAP1 SLOAD SWAP1 PUSH2 0x100 EXP SWAP1 DIV PUSH20 0xFFFFFFFFFFFFFFFFFFFFFFFFFFFFFFFFFFFFFFFF AND DUP2 JUMP JUMPDEST PUSH1 0x2 PUSH1 0x0 SWAP1 SLOAD SWAP1 PUSH2 0x100 EXP SWAP1 DIV PUSH20 0xFFFFFFFFFFFFFFFFFFFFFFFFFFFFFFFFFFFFFFFF AND DUP2 JUMP JUMPDEST PUSH1 0x2 PUSH1 0x14 SWAP1 SLOAD SWAP1 PUSH2 0x100 EXP SWAP1 DIV PUSH1 0xFF AND DUP2 JUMP JUMPDEST PUSH1 0x1 PUSH1 0x0 SWAP1 SLOAD SWAP1 PUSH2 0x100 EXP SWAP1 DIV PUSH20 0xFFFFFFFFFFFFFFFFFFFFFFFFFFFFFFFFFFFFFFFF AND PUSH20 0xFFFFFFFFFFFFFFFFFFFFFFFFFFFFFFFFFFFFFFFF AND CALLER PUSH20 0xFFFFFFFFFFFFFFFFFFFFFFFFFFFFFFFFFFFFFFFF AND EQ PUSH2 0x445 JUMPI PUSH1 0x40 MLOAD PUSH32 0x8C379A000000000000000000000000000000000000000000000000000000000 DUP2 MSTORE PUSH1 0x4 ADD PUSH2 0x43C SWAP1 PUSH2 0x9A0 JUMP JUMPDEST PUSH1 0x40 MLOAD DUP1 SWAP2 SUB SWAP1 REVERT JUMPDEST PUSH32 0x61E2929AC66C18729E4B0D88C57278B64A58B35BBB02D8561220164D475C5F5D PUSH1 0x40 MLOAD PUSH1 0x40 MLOAD DUP1 SWAP2 SUB SWAP1 LOG1 JUMP JUMPDEST PUSH1 0x2 PUSH1 0x0 SWAP1 SLOAD SWAP1 PUSH2 0x100 EXP SWAP1 DIV PUSH20 0xFFFFFFFFFFFFFFFFFFFFFFFFFFFFFFFFFFFFFFFF AND PUSH20 0xFFFFFFFFFFFFFFFFFFFFFFFFFFFFFFFFFFFFFFFF AND CALLER PUSH20 0xFFFFFFFFFFFFFFFFFFFFFFFFFFFFFFFFFFFFFFFF AND EQ PUSH2 0x503 JUMPI PUSH1 0x40 MLOAD PUSH32 0x8C379A000000000000000000000000000000000000000000000000000000000 DUP2 MSTORE PUSH1 0x4 ADD PUSH2 0x4FA SWAP1 PUSH2 0x849 JUMP JUMPDEST PUSH1 0x40 MLOAD DUP1 SWAP2 SUB SWAP1 REVERT JUMPDEST PUSH1 0x1 PUSH1 0x0 SWAP1 SLOAD SWAP1 PUSH2 0x100 EXP SWAP1 DIV PUSH20 0xFFFFFFFFFFFFFFFFFFFFFFFFFFFFFFFFFFFFFFFF AND PUSH20 0xFFFFFFFFFFFFFFFFFFFFFFFFFFFFFFFFFFFFFFFF AND CALLER PUSH20 0xFFFFFFFFFFFFFFFFFFFFFFFFFFFFFFFFFFFFFFFF AND EQ PUSH2 0x593 JUMPI PUSH1 0x40 MLOAD PUSH32 0x8C379A000000000000000000000000000000000000000000000000000000000 DUP2 MSTORE PUSH1 0x4 ADD PUSH2 0x58A SWAP1 PUSH2 0x9A0 JUMP JUMPDEST PUSH1 0x40 MLOAD DUP1 SWAP2 SUB SWAP1 REVERT JUMPDEST JUMP JUMPDEST PUSH1 0x0 DUP1 REVERT JUMPDEST PUSH1 0x0 DUP2 SWAP1 POP SWAP2 SWAP1 POP JUMP JUMPDEST PUSH2 0x5AD DUP2 PUSH2 0x59A JUMP JUMPDEST DUP2 EQ PUSH2 0x5B8 JUMPI PUSH1 0x0 DUP1 REVERT JUMPDEST POP JUMP JUMPDEST PUSH1 0x0 DUP2 CALLDATALOAD SWAP1 POP PUSH2 0x5CA DUP2 PUSH2 0x5A4 JUMP JUMPDEST SWAP3 SWAP2 POP POP JUMP JUMPDEST PUSH1 0x0 DUP1 PUSH1 0x0 DUP1 PUSH1 0x80 DUP6 DUP8 SUB SLT ISZERO PUSH2 0x5EA JUMPI PUSH2 0x5E9 PUSH2 0x595 JUMP JUMPDEST JUMPDEST PUSH1 0x0 PUSH2 0x5F8 DUP8 DUP3 DUP9 ADD PUSH2 0x5BB JUMP JUMPDEST SWAP5 POP POP PUSH1 0x20 PUSH2 0x609 DUP8 DUP3 DUP9 ADD PUSH2 0x5BB JUMP JUMPDEST SWAP4 POP POP PUSH1 0x40 PUSH2 0x61A DUP8 DUP3 DUP9 ADD PUSH2 0x5BB JUMP JUMPDEST SWAP3 POP POP PUSH1 0x60 PUSH2 0x62B DUP8 DUP3 DUP9 ADD PUSH2 0x5BB JUMP JUMPDEST SWAP2 POP POP SWAP3 SWAP6 SWAP2 SWAP5 POP SWAP3 POP JUMP JUMPDEST PUSH1 0x0 PUSH20 0xFFFFFFFFFFFFFFFFFFFFFFFFFFFFFFFFFFFFFFFF DUP3 AND SWAP1 POP SWAP2 SWAP1 POP JUMP JUMPDEST PUSH1 0x0 PUSH2 0x662 DUP3 PUSH2 0x637 JUMP JUMPDEST SWAP1 POP SWAP2 SWAP1 POP JUMP JUMPDEST PUSH2 0x672 DUP2 PUSH2 0x657 JUMP JUMPDEST DUP2 EQ PUSH2 0x67D JUMPI PUSH1 0x0 DUP1 REVERT JUMPDEST POP JUMP JUMPDEST PUSH1 0x0 DUP2 CALLDATALOAD SWAP1 POP PUSH2 0x68F DUP2 PUSH2 0x669 JUMP JUMPDEST SWAP3 SWAP2 POP POP JUMP JUMPDEST PUSH1 0x0 DUP1 PUSH1 0x0 PUSH1 0x60 DUP5 DUP7 SUB SLT ISZERO PUSH2 0x6AE JUMPI PUSH2 0x6AD PUSH2 0x595 JUMP JUMPDEST JUMPDEST PUSH1 0x0 PUSH2 0x6BC DUP7 DUP3 DUP8 ADD PUSH2 0x5BB JUMP JUMPDEST SWAP4 POP POP PUSH1 0x20 PUSH2 0x6CD DUP7 DUP3 DUP8 ADD PUSH2 0x5BB JUMP JUMPDEST SWAP3 POP POP PUSH1 0x40 PUSH2 0x6DE DUP7 DUP3 DUP8 ADD PUSH2 0x680 JUMP JUMPDEST SWAP2 POP POP SWAP3 POP SWAP3 POP SWAP3 JUMP JUMPDEST PUSH1 0x0 DUP2 ISZERO ISZERO SWAP1 POP SWAP2 SWAP1 POP JUMP JUMPDEST PUSH2 0x6FD DUP2 PUSH2 0x6E8 JUMP JUMPDEST DUP3 MSTORE POP POP JUMP JUMPDEST PUSH1 0x0 PUSH1 0x20 DUP3 ADD SWAP1 POP PUSH2 0x718 PUSH1 0x0 DUP4 ADD DUP5 PUSH2 0x6F4 JUMP JUMPDEST SWAP3 SWAP2 POP POP JUMP JUMPDEST PUSH1 0x0 PUSH2 0x729 DUP3 PUSH2 0x637 JUMP JUMPDEST SWAP1 POP SWAP2 SWAP1 POP JUMP JUMPDEST PUSH2 0x739 DUP2 PUSH2 0x71E JUMP JUMPDEST DUP3 MSTORE POP POP JUMP JUMPDEST PUSH1 0x0 PUSH1 0x20 DUP3 ADD SWAP1 POP PUSH2 0x754 PUSH1 0x0 DUP4 ADD DUP5 PUSH2 0x730 JUMP JUMPDEST SWAP3 SWAP2 POP POP JUMP JUMPDEST PUSH32 0x4E487B7100000000000000000000000000000000000000000000000000000000 PUSH1 0x0 MSTORE PUSH1 0x21 PUSH1 0x4 MSTORE PUSH1 0x24 PUSH1 0x0 REVERT JUMPDEST PUSH1 0x4 DUP2 LT PUSH2 0x79A JUMPI PUSH2 0x799 PUSH2 0x75A JUMP JUMPDEST JUMPDEST POP JUMP JUMPDEST PUSH1 0x0 DUP2 SWAP1 POP PUSH2 0x7AB DUP3 PUSH2 0x789 JUMP JUMPDEST SWAP2 SWAP1 POP JUMP JUMPDEST PUSH1 0x0 PUSH2 0x7BB DUP3 PUSH2 0x79D JUMP JUMPDEST SWAP1 POP SWAP2 SWAP1 POP JUMP JUMPDEST PUSH2 0x7CB DUP2 PUSH2 0x7B0 JUMP JUMPDEST DUP3 MSTORE POP POP JUMP JUMPDEST PUSH1 0x0 PUSH1 0x20 DUP3 ADD SWAP1 POP PUSH2 0x7E6 PUSH1 0x0 DUP4 ADD DUP5 PUSH2 0x7C2 JUMP JUMPDEST SWAP3 SWAP2 POP POP JUMP JUMPDEST PUSH1 0x0 DUP3 DUP3 MSTORE PUSH1 0x20 DUP3 ADD SWAP1 POP SWAP3 SWAP2 POP POP JUMP JUMPDEST PUSH32 0x4F6E6C7920484F53504954414C2063616E2063616C6C20746869732E00000000 PUSH1 0x0 DUP3 ADD MSTORE POP JUMP JUMPDEST PUSH1 0x0 PUSH2 0x833 PUSH1 0x1C DUP4 PUSH2 0x7EC JUMP JUMPDEST SWAP2 POP PUSH2 0x83E DUP3 PUSH2 0x7FD JUMP JUMPDEST PUSH1 0x20 DUP3 ADD SWAP1 POP SWAP2 SWAP1 POP JUMP JUMPDEST PUSH1 0x0 PUSH1 0x20 DUP3 ADD SWAP1 POP DUP2 DUP2 SUB PUSH1 0x0 DUP4 ADD MSTORE PUSH2 0x862 DUP2 PUSH2 0x826 JUMP JUMPDEST SWAP1 POP SWAP2 SWAP1 POP JUMP JUMPDEST PUSH2 0x872 DUP2 PUSH2 0x6E8 JUMP JUMPDEST DUP2 EQ PUSH2 0x87D JUMPI PUSH1 0x0 DUP1 REVERT JUMPDEST POP JUMP JUMPDEST PUSH1 0x0 DUP2 MLOAD SWAP1 POP PUSH2 0x88F DUP2 PUSH2 0x869 JUMP JUMPDEST SWAP3 SWAP2 POP POP JUMP JUMPDEST PUSH1 0x0 PUSH1 0x20 DUP3 DUP5 SUB SLT ISZERO PUSH2 0x8AB JUMPI PUSH2 0x8AA PUSH2 0x595 JUMP JUMPDEST JUMPDEST PUSH1 0x0 PUSH2 0x8B9 DUP5 DUP3 DUP6 ADD PUSH2 0x880 JUMP JUMPDEST SWAP2 POP POP SWAP3 SWAP2 POP POP JUMP JUMPDEST PUSH32 0x496E76616C696420496E737572616E6365000000000000000000000000000000 PUSH1 0x0 DUP3 ADD MSTORE POP JUMP JUMPDEST PUSH1 0x0 PUSH2 0x8F8 PUSH1 0x11 DUP4 PUSH2 0x7EC JUMP JUMPDEST SWAP2 POP PUSH2 0x903 DUP3 PUSH2 0x8C2 JUMP JUMPDEST PUSH1 0x20 DUP3 ADD SWAP1 POP SWAP2 SWAP1 POP JUMP JUMPDEST PUSH1 0x0 PUSH1 0x20 DUP3 ADD SWAP1 POP DUP2 DUP2 SUB PUSH1 0x0 DUP4 ADD MSTORE PUSH2 0x927 DUP2 PUSH2 0x8EB JUMP JUMPDEST SWAP1 POP SWAP2 SWAP1 POP JUMP JUMPDEST PUSH32 0x4F6E6C7920494E535552414E43452050524F56494445522063616E2063616C6C PUSH1 0x0 DUP3 ADD MSTORE PUSH32 0x20746869732E0000000000000000000000000000000000000000000000000000 PUSH1 0x20 DUP3 ADD MSTORE POP JUMP JUMPDEST PUSH1 0x0 PUSH2 0x98A PUSH1 0x26 DUP4 PUSH2 0x7EC JUMP JUMPDEST SWAP2 POP PUSH2 0x995 DUP3 PUSH2 0x92E JUMP JUMPDEST PUSH1 0x40 DUP3 ADD SWAP1 POP SWAP2 SWAP1 POP JUMP JUMPDEST PUSH1 0x0 PUSH1 0x20 DUP3 ADD SWAP1 POP DUP2 DUP2 SUB PUSH1 0x0 DUP4 ADD MSTORE PUSH2 0x9B9 DUP2 PUSH2 0x97D JUMP JUMPDEST SWAP1 POP SWAP2 SWAP1 POP JUMP INVALID LOG2 PUSH5 0x6970667358 0x22 SLT KECCAK256 0xB8 EQ MLOAD 0xF8 PUSH30 0xBA47EDCEED416C906DBD0D635A963623F314785170A9E31DC8293C64736F PUSH13 0x63430008120033000000000000 "
				},
				"gasEstimates": {
					"creation": {
						"codeDepositCost": "510000",
						"executionCost": "543",
						"totalCost": "510543"
					},
					"external": {
						"hospital()": "2514",
						"insuranceProvider()": "2581",
						"newMedicalRecord(uint256,uint256,uint256,uint256)": "infinite",
						"owner()": "2556",
						"reimbursement()": "3135",
						"sentRecord()": "4857",
						"state()": "2632",
						"verify(uint256,uint256,address)": "infinite"
					}
				},
				"methodIdentifiers": {
					"hospital()": "aa2fedde",
					"insuranceProvider()": "9955f67c",
					"newMedicalRecord(uint256,uint256,uint256,uint256)": "0ffcbc77",
					"owner()": "8da5cb5b",
					"reimbursement()": "d3f0c8bb",
					"sentRecord()": "e536b493",
					"state()": "c19d93fb",
					"verify(uint256,uint256,address)": "731d9c88"
				}
			},
			"storageLayout": {
				"storage": [
					{
						"astId": 84,
						"contract": "backend/contracts/PawPrints.sol:PawPrints",
						"label": "owner",
						"offset": 0,
						"slot": "0",
						"type": "t_address_payable"
					},
					{
						"astId": 86,
						"contract": "backend/contracts/PawPrints.sol:PawPrints",
						"label": "insuranceProvider",
						"offset": 0,
						"slot": "1",
						"type": "t_address_payable"
					},
					{
						"astId": 88,
						"contract": "backend/contracts/PawPrints.sol:PawPrints",
						"label": "hospital",
						"offset": 0,
						"slot": "2",
						"type": "t_address_payable"
					},
					{
						"astId": 113,
						"contract": "backend/contracts/PawPrints.sol:PawPrints",
						"label": "state",
						"offset": 20,
						"slot": "2",
						"type": "t_enum(State)110"
					}
				],
				"types": {
					"t_address_payable": {
						"encoding": "inplace",
						"label": "address payable",
						"numberOfBytes": "20"
					},
					"t_enum(State)110": {
						"encoding": "inplace",
						"label": "enum PawPrints.State",
						"numberOfBytes": "1"
					}
				}
			},
			"userdoc": {
				"kind": "user",
				"methods": {},
				"version": 1
			}
		}
	}
}