{
	"backend/contracts/insurance.sol": {
		"insurance": {
			"abi": [
				{
					"inputs": [],
					"stateMutability": "nonpayable",
					"type": "constructor"
				},
				{
					"inputs": [],
					"name": "checkExpired",
					"outputs": [],
					"stateMutability": "nonpayable",
					"type": "function"
				},
				{
					"inputs": [],
					"name": "provider",
					"outputs": [
						{
							"internalType": "address",
							"name": "",
							"type": "address"
						}
					],
					"stateMutability": "view",
					"type": "function"
				},
				{
					"inputs": [
						{
							"internalType": "uint256",
							"name": "_duration",
							"type": "uint256"
						}
					],
					"name": "updateStatus",
					"outputs": [
						{
							"internalType": "address",
							"name": "",
							"type": "address"
						}
					],
					"stateMutability": "nonpayable",
					"type": "function"
				}
			],
			"devdoc": {
				"kind": "dev",
				"methods": {},
				"version": 1
			},
			"evm": {
				"assembly": "    /* \"backend/contracts/insurance.sol\":70:999  contract insurance {... */\n  mstore(0x40, 0x80)\n    /* \"backend/contracts/insurance.sol\":149:202  constructor (){... */\n  callvalue\n  dup1\n  iszero\n  tag_1\n  jumpi\n  0x00\n  dup1\n  revert\ntag_1:\n  pop\n    /* \"backend/contracts/insurance.sol\":184:194  msg.sender */\n  caller\n    /* \"backend/contracts/insurance.sol\":173:181  provider */\n  0x01\n  0x00\n    /* \"backend/contracts/insurance.sol\":173:194  provider = msg.sender */\n  0x0100\n  exp\n  dup2\n  sload\n  dup2\n  0xffffffffffffffffffffffffffffffffffffffff\n  mul\n  not\n  and\n  swap1\n  dup4\n  0xffffffffffffffffffffffffffffffffffffffff\n  and\n  mul\n  or\n  swap1\n  sstore\n  pop\n    /* \"backend/contracts/insurance.sol\":70:999  contract insurance {... */\n  dataSize(sub_0)\n  dup1\n  dataOffset(sub_0)\n  0x00\n  codecopy\n  0x00\n  return\nstop\n\nsub_0: assembly {\n        /* \"backend/contracts/insurance.sol\":70:999  contract insurance {... */\n      mstore(0x40, 0x80)\n      callvalue\n      dup1\n      iszero\n      tag_1\n      jumpi\n      0x00\n      dup1\n      revert\n    tag_1:\n      pop\n      jumpi(tag_2, lt(calldatasize, 0x04))\n      shr(0xe0, calldataload(0x00))\n      dup1\n      0x085d4883\n      eq\n      tag_3\n      jumpi\n      dup1\n      0x25ace2a7\n      eq\n      tag_4\n      jumpi\n      dup1\n      0xd61e7201\n      eq\n      tag_5\n      jumpi\n    tag_2:\n      0x00\n      dup1\n      revert\n        /* \"backend/contracts/insurance.sol\":115:138  address public provider */\n    tag_3:\n      tag_6\n      tag_7\n      jump\t// in\n    tag_6:\n      mload(0x40)\n      tag_8\n      swap2\n      swap1\n      tag_9\n      jump\t// in\n    tag_8:\n      mload(0x40)\n      dup1\n      swap2\n      sub\n      swap1\n      return\n        /* \"backend/contracts/insurance.sol\":770:997  function checkExpired() external {... */\n    tag_4:\n      tag_10\n      tag_11\n      jump\t// in\n    tag_10:\n      stop\n        /* \"backend/contracts/insurance.sol\":452:658  function updateStatus (uint _duration) ... */\n    tag_5:\n      tag_12\n      0x04\n      dup1\n      calldatasize\n      sub\n      dup2\n      add\n      swap1\n      tag_13\n      swap2\n      swap1\n      tag_14\n      jump\t// in\n    tag_13:\n      tag_15\n      jump\t// in\n    tag_12:\n      mload(0x40)\n      tag_16\n      swap2\n      swap1\n      tag_9\n      jump\t// in\n    tag_16:\n      mload(0x40)\n      dup1\n      swap2\n      sub\n      swap1\n      return\n        /* \"backend/contracts/insurance.sol\":115:138  address public provider */\n    tag_7:\n      0x01\n      0x00\n      swap1\n      sload\n      swap1\n      0x0100\n      exp\n      swap1\n      div\n      0xffffffffffffffffffffffffffffffffffffffff\n      and\n      dup2\n      jump\t// out\n        /* \"backend/contracts/insurance.sol\":770:997  function checkExpired() external {... */\n    tag_11:\n        /* \"backend/contracts/insurance.sol\":874:882  duration */\n      sload(0x00)\n        /* \"backend/contracts/insurance.sol\":841:856  insuranceRecord */\n      0x02\n        /* \"backend/contracts/insurance.sol\":841:871  insuranceRecord[address(this)] */\n      0x00\n        /* \"backend/contracts/insurance.sol\":865:869  this */\n      address\n        /* \"backend/contracts/insurance.sol\":841:871  insuranceRecord[address(this)] */\n      0xffffffffffffffffffffffffffffffffffffffff\n      and\n      0xffffffffffffffffffffffffffffffffffffffff\n      and\n      dup2\n      mstore\n      0x20\n      add\n      swap1\n      dup2\n      mstore\n      0x20\n      add\n      0x00\n      keccak256\n      sload\n        /* \"backend/contracts/insurance.sol\":841:882  insuranceRecord[address(this)] + duration */\n      tag_18\n      swap2\n      swap1\n      tag_19\n      jump\t// in\n    tag_18:\n        /* \"backend/contracts/insurance.sol\":821:836  block.timestamp */\n      timestamp\n        /* \"backend/contracts/insurance.sol\":821:883  block.timestamp >= (insuranceRecord[address(this)] + duration) */\n      lt\n      iszero\n        /* \"backend/contracts/insurance.sol\":813:923  require(block.timestamp >= (insuranceRecord[address(this)] + duration), \"Check passed, insurance NOT expired\") */\n      tag_20\n      jumpi\n      mload(0x40)\n      0x08c379a000000000000000000000000000000000000000000000000000000000\n      dup2\n      mstore\n      0x04\n      add\n      tag_21\n      swap1\n      tag_22\n      jump\t// in\n    tag_21:\n      mload(0x40)\n      dup1\n      swap2\n      sub\n      swap1\n      revert\n    tag_20:\n        /* \"backend/contracts/insurance.sol\":989:990  0 */\n      0x00\n        /* \"backend/contracts/insurance.sol\":956:971  insuranceRecord */\n      0x02\n        /* \"backend/contracts/insurance.sol\":956:986  insuranceRecord[address(this)] */\n      0x00\n        /* \"backend/contracts/insurance.sol\":980:984  this */\n      address\n        /* \"backend/contracts/insurance.sol\":956:986  insuranceRecord[address(this)] */\n      0xffffffffffffffffffffffffffffffffffffffff\n      and\n      0xffffffffffffffffffffffffffffffffffffffff\n      and\n      dup2\n      mstore\n      0x20\n      add\n      swap1\n      dup2\n      mstore\n      0x20\n      add\n      0x00\n      keccak256\n        /* \"backend/contracts/insurance.sol\":956:990  insuranceRecord[address(this)] = 0 */\n      dup2\n      swap1\n      sstore\n      pop\n        /* \"backend/contracts/insurance.sol\":770:997  function checkExpired() external {... */\n      jump\t// out\n        /* \"backend/contracts/insurance.sol\":452:658  function updateStatus (uint _duration) ... */\n    tag_15:\n        /* \"backend/contracts/insurance.sol\":525:532  address */\n      0x00\n        /* \"backend/contracts/insurance.sol\":321:329  provider */\n      0x01\n      0x00\n      swap1\n      sload\n      swap1\n      0x0100\n      exp\n      swap1\n      div\n      0xffffffffffffffffffffffffffffffffffffffff\n      and\n        /* \"backend/contracts/insurance.sol\":307:329  msg.sender == provider */\n      0xffffffffffffffffffffffffffffffffffffffff\n      and\n        /* \"backend/contracts/insurance.sol\":307:317  msg.sender */\n      caller\n        /* \"backend/contracts/insurance.sol\":307:329  msg.sender == provider */\n      0xffffffffffffffffffffffffffffffffffffffff\n      and\n      eq\n        /* \"backend/contracts/insurance.sol\":286:381  require(... */\n      tag_24\n      jumpi\n      mload(0x40)\n      0x08c379a000000000000000000000000000000000000000000000000000000000\n      dup2\n      mstore\n      0x04\n      add\n      tag_25\n      swap1\n      tag_26\n      jump\t// in\n    tag_25:\n      mload(0x40)\n      dup1\n      swap2\n      sub\n      swap1\n      revert\n    tag_24:\n        /* \"backend/contracts/insurance.sol\":554:563  _duration */\n      dup2\n        /* \"backend/contracts/insurance.sol\":543:551  duration */\n      0x00\n        /* \"backend/contracts/insurance.sol\":543:563  duration = _duration */\n      dup2\n      swap1\n      sstore\n      pop\n        /* \"backend/contracts/insurance.sol\":606:621  block.timestamp */\n      timestamp\n        /* \"backend/contracts/insurance.sol\":573:588  insuranceRecord */\n      0x02\n        /* \"backend/contracts/insurance.sol\":573:603  insuranceRecord[address(this)] */\n      0x00\n        /* \"backend/contracts/insurance.sol\":597:601  this */\n      address\n        /* \"backend/contracts/insurance.sol\":573:603  insuranceRecord[address(this)] */\n      0xffffffffffffffffffffffffffffffffffffffff\n      and\n      0xffffffffffffffffffffffffffffffffffffffff\n      and\n      dup2\n      mstore\n      0x20\n      add\n      swap1\n      dup2\n      mstore\n      0x20\n      add\n      0x00\n      keccak256\n        /* \"backend/contracts/insurance.sol\":573:621  insuranceRecord[address(this)] = block.timestamp */\n      dup2\n      swap1\n      sstore\n      pop\n        /* \"backend/contracts/insurance.sol\":646:650  this */\n      address\n        /* \"backend/contracts/insurance.sol\":631:651  return address(this) */\n      swap1\n      pop\n        /* \"backend/contracts/insurance.sol\":452:658  function updateStatus (uint _duration) ... */\n      swap2\n      swap1\n      pop\n      jump\t// out\n        /* \"#utility.yul\":7:133   */\n    tag_28:\n        /* \"#utility.yul\":44:51   */\n      0x00\n        /* \"#utility.yul\":84:126   */\n      0xffffffffffffffffffffffffffffffffffffffff\n        /* \"#utility.yul\":77:82   */\n      dup3\n        /* \"#utility.yul\":73:127   */\n      and\n        /* \"#utility.yul\":62:127   */\n      swap1\n      pop\n        /* \"#utility.yul\":7:133   */\n      swap2\n      swap1\n      pop\n      jump\t// out\n        /* \"#utility.yul\":139:235   */\n    tag_29:\n        /* \"#utility.yul\":176:183   */\n      0x00\n        /* \"#utility.yul\":205:229   */\n      tag_46\n        /* \"#utility.yul\":223:228   */\n      dup3\n        /* \"#utility.yul\":205:229   */\n      tag_28\n      jump\t// in\n    tag_46:\n        /* \"#utility.yul\":194:229   */\n      swap1\n      pop\n        /* \"#utility.yul\":139:235   */\n      swap2\n      swap1\n      pop\n      jump\t// out\n        /* \"#utility.yul\":241:359   */\n    tag_30:\n        /* \"#utility.yul\":328:352   */\n      tag_48\n        /* \"#utility.yul\":346:351   */\n      dup2\n        /* \"#utility.yul\":328:352   */\n      tag_29\n      jump\t// in\n    tag_48:\n        /* \"#utility.yul\":323:326   */\n      dup3\n        /* \"#utility.yul\":316:353   */\n      mstore\n        /* \"#utility.yul\":241:359   */\n      pop\n      pop\n      jump\t// out\n        /* \"#utility.yul\":365:587   */\n    tag_9:\n        /* \"#utility.yul\":458:462   */\n      0x00\n        /* \"#utility.yul\":496:498   */\n      0x20\n        /* \"#utility.yul\":485:494   */\n      dup3\n        /* \"#utility.yul\":481:499   */\n      add\n        /* \"#utility.yul\":473:499   */\n      swap1\n      pop\n        /* \"#utility.yul\":509:580   */\n      tag_50\n        /* \"#utility.yul\":577:578   */\n      0x00\n        /* \"#utility.yul\":566:575   */\n      dup4\n        /* \"#utility.yul\":562:579   */\n      add\n        /* \"#utility.yul\":553:559   */\n      dup5\n        /* \"#utility.yul\":509:580   */\n      tag_30\n      jump\t// in\n    tag_50:\n        /* \"#utility.yul\":365:587   */\n      swap3\n      swap2\n      pop\n      pop\n      jump\t// out\n        /* \"#utility.yul\":674:791   */\n    tag_32:\n        /* \"#utility.yul\":783:784   */\n      0x00\n        /* \"#utility.yul\":780:781   */\n      dup1\n        /* \"#utility.yul\":773:785   */\n      revert\n        /* \"#utility.yul\":920:997   */\n    tag_34:\n        /* \"#utility.yul\":957:964   */\n      0x00\n        /* \"#utility.yul\":986:991   */\n      dup2\n        /* \"#utility.yul\":975:991   */\n      swap1\n      pop\n        /* \"#utility.yul\":920:997   */\n      swap2\n      swap1\n      pop\n      jump\t// out\n        /* \"#utility.yul\":1003:1125   */\n    tag_35:\n        /* \"#utility.yul\":1076:1100   */\n      tag_56\n        /* \"#utility.yul\":1094:1099   */\n      dup2\n        /* \"#utility.yul\":1076:1100   */\n      tag_34\n      jump\t// in\n    tag_56:\n        /* \"#utility.yul\":1069:1074   */\n      dup2\n        /* \"#utility.yul\":1066:1101   */\n      eq\n        /* \"#utility.yul\":1056:1119   */\n      tag_57\n      jumpi\n        /* \"#utility.yul\":1115:1116   */\n      0x00\n        /* \"#utility.yul\":1112:1113   */\n      dup1\n        /* \"#utility.yul\":1105:1117   */\n      revert\n        /* \"#utility.yul\":1056:1119   */\n    tag_57:\n        /* \"#utility.yul\":1003:1125   */\n      pop\n      jump\t// out\n        /* \"#utility.yul\":1131:1270   */\n    tag_36:\n        /* \"#utility.yul\":1177:1182   */\n      0x00\n        /* \"#utility.yul\":1215:1221   */\n      dup2\n        /* \"#utility.yul\":1202:1222   */\n      calldataload\n        /* \"#utility.yul\":1193:1222   */\n      swap1\n      pop\n        /* \"#utility.yul\":1231:1264   */\n      tag_59\n        /* \"#utility.yul\":1258:1263   */\n      dup2\n        /* \"#utility.yul\":1231:1264   */\n      tag_35\n      jump\t// in\n    tag_59:\n        /* \"#utility.yul\":1131:1270   */\n      swap3\n      swap2\n      pop\n      pop\n      jump\t// out\n        /* \"#utility.yul\":1276:1605   */\n    tag_14:\n        /* \"#utility.yul\":1335:1341   */\n      0x00\n        /* \"#utility.yul\":1384:1386   */\n      0x20\n        /* \"#utility.yul\":1372:1381   */\n      dup3\n        /* \"#utility.yul\":1363:1370   */\n      dup5\n        /* \"#utility.yul\":1359:1382   */\n      sub\n        /* \"#utility.yul\":1355:1387   */\n      slt\n        /* \"#utility.yul\":1352:1471   */\n      iszero\n      tag_61\n      jumpi\n        /* \"#utility.yul\":1390:1469   */\n      tag_62\n      tag_32\n      jump\t// in\n    tag_62:\n        /* \"#utility.yul\":1352:1471   */\n    tag_61:\n        /* \"#utility.yul\":1510:1511   */\n      0x00\n        /* \"#utility.yul\":1535:1588   */\n      tag_63\n        /* \"#utility.yul\":1580:1587   */\n      dup5\n        /* \"#utility.yul\":1571:1577   */\n      dup3\n        /* \"#utility.yul\":1560:1569   */\n      dup6\n        /* \"#utility.yul\":1556:1578   */\n      add\n        /* \"#utility.yul\":1535:1588   */\n      tag_36\n      jump\t// in\n    tag_63:\n        /* \"#utility.yul\":1525:1588   */\n      swap2\n      pop\n        /* \"#utility.yul\":1481:1598   */\n      pop\n        /* \"#utility.yul\":1276:1605   */\n      swap3\n      swap2\n      pop\n      pop\n      jump\t// out\n        /* \"#utility.yul\":1611:1791   */\n    tag_37:\n        /* \"#utility.yul\":1659:1736   */\n      0x4e487b7100000000000000000000000000000000000000000000000000000000\n        /* \"#utility.yul\":1656:1657   */\n      0x00\n        /* \"#utility.yul\":1649:1737   */\n      mstore\n        /* \"#utility.yul\":1756:1760   */\n      0x11\n        /* \"#utility.yul\":1753:1754   */\n      0x04\n        /* \"#utility.yul\":1746:1761   */\n      mstore\n        /* \"#utility.yul\":1780:1784   */\n      0x24\n        /* \"#utility.yul\":1777:1778   */\n      0x00\n        /* \"#utility.yul\":1770:1785   */\n      revert\n        /* \"#utility.yul\":1797:1988   */\n    tag_19:\n        /* \"#utility.yul\":1837:1840   */\n      0x00\n        /* \"#utility.yul\":1856:1876   */\n      tag_66\n        /* \"#utility.yul\":1874:1875   */\n      dup3\n        /* \"#utility.yul\":1856:1876   */\n      tag_34\n      jump\t// in\n    tag_66:\n        /* \"#utility.yul\":1851:1876   */\n      swap2\n      pop\n        /* \"#utility.yul\":1890:1910   */\n      tag_67\n        /* \"#utility.yul\":1908:1909   */\n      dup4\n        /* \"#utility.yul\":1890:1910   */\n      tag_34\n      jump\t// in\n    tag_67:\n        /* \"#utility.yul\":1885:1910   */\n      swap3\n      pop\n        /* \"#utility.yul\":1933:1934   */\n      dup3\n        /* \"#utility.yul\":1930:1931   */\n      dup3\n        /* \"#utility.yul\":1926:1935   */\n      add\n        /* \"#utility.yul\":1919:1935   */\n      swap1\n      pop\n        /* \"#utility.yul\":1954:1957   */\n      dup1\n        /* \"#utility.yul\":1951:1952   */\n      dup3\n        /* \"#utility.yul\":1948:1958   */\n      gt\n        /* \"#utility.yul\":1945:1981   */\n      iszero\n      tag_68\n      jumpi\n        /* \"#utility.yul\":1961:1979   */\n      tag_69\n      tag_37\n      jump\t// in\n    tag_69:\n        /* \"#utility.yul\":1945:1981   */\n    tag_68:\n        /* \"#utility.yul\":1797:1988   */\n      swap3\n      swap2\n      pop\n      pop\n      jump\t// out\n        /* \"#utility.yul\":1994:2163   */\n    tag_38:\n        /* \"#utility.yul\":2078:2089   */\n      0x00\n        /* \"#utility.yul\":2112:2118   */\n      dup3\n        /* \"#utility.yul\":2107:2110   */\n      dup3\n        /* \"#utility.yul\":2100:2119   */\n      mstore\n        /* \"#utility.yul\":2152:2156   */\n      0x20\n        /* \"#utility.yul\":2147:2150   */\n      dup3\n        /* \"#utility.yul\":2143:2157   */\n      add\n        /* \"#utility.yul\":2128:2157   */\n      swap1\n      pop\n        /* \"#utility.yul\":1994:2163   */\n      swap3\n      swap2\n      pop\n      pop\n      jump\t// out\n        /* \"#utility.yul\":2169:2391   */\n    tag_39:\n        /* \"#utility.yul\":2309:2343   */\n      0x436865636b207061737365642c20696e737572616e6365204e4f542065787069\n        /* \"#utility.yul\":2305:2306   */\n      0x00\n        /* \"#utility.yul\":2297:2303   */\n      dup3\n        /* \"#utility.yul\":2293:2307   */\n      add\n        /* \"#utility.yul\":2286:2344   */\n      mstore\n        /* \"#utility.yul\":2378:2383   */\n      0x7265640000000000000000000000000000000000000000000000000000000000\n        /* \"#utility.yul\":2373:2375   */\n      0x20\n        /* \"#utility.yul\":2365:2371   */\n      dup3\n        /* \"#utility.yul\":2361:2376   */\n      add\n        /* \"#utility.yul\":2354:2384   */\n      mstore\n        /* \"#utility.yul\":2169:2391   */\n      pop\n      jump\t// out\n        /* \"#utility.yul\":2397:2763   */\n    tag_40:\n        /* \"#utility.yul\":2539:2542   */\n      0x00\n        /* \"#utility.yul\":2560:2627   */\n      tag_73\n        /* \"#utility.yul\":2624:2626   */\n      0x23\n        /* \"#utility.yul\":2619:2622   */\n      dup4\n        /* \"#utility.yul\":2560:2627   */\n      tag_38\n      jump\t// in\n    tag_73:\n        /* \"#utility.yul\":2553:2627   */\n      swap2\n      pop\n        /* \"#utility.yul\":2636:2729   */\n      tag_74\n        /* \"#utility.yul\":2725:2728   */\n      dup3\n        /* \"#utility.yul\":2636:2729   */\n      tag_39\n      jump\t// in\n    tag_74:\n        /* \"#utility.yul\":2754:2756   */\n      0x40\n        /* \"#utility.yul\":2749:2752   */\n      dup3\n        /* \"#utility.yul\":2745:2757   */\n      add\n        /* \"#utility.yul\":2738:2757   */\n      swap1\n      pop\n        /* \"#utility.yul\":2397:2763   */\n      swap2\n      swap1\n      pop\n      jump\t// out\n        /* \"#utility.yul\":2769:3188   */\n    tag_22:\n        /* \"#utility.yul\":2935:2939   */\n      0x00\n        /* \"#utility.yul\":2973:2975   */\n      0x20\n        /* \"#utility.yul\":2962:2971   */\n      dup3\n        /* \"#utility.yul\":2958:2976   */\n      add\n        /* \"#utility.yul\":2950:2976   */\n      swap1\n      pop\n        /* \"#utility.yul\":3022:3031   */\n      dup2\n        /* \"#utility.yul\":3016:3020   */\n      dup2\n        /* \"#utility.yul\":3012:3032   */\n      sub\n        /* \"#utility.yul\":3008:3009   */\n      0x00\n        /* \"#utility.yul\":2997:3006   */\n      dup4\n        /* \"#utility.yul\":2993:3010   */\n      add\n        /* \"#utility.yul\":2986:3033   */\n      mstore\n        /* \"#utility.yul\":3050:3181   */\n      tag_76\n        /* \"#utility.yul\":3176:3180   */\n      dup2\n        /* \"#utility.yul\":3050:3181   */\n      tag_40\n      jump\t// in\n    tag_76:\n        /* \"#utility.yul\":3042:3181   */\n      swap1\n      pop\n        /* \"#utility.yul\":2769:3188   */\n      swap2\n      swap1\n      pop\n      jump\t// out\n        /* \"#utility.yul\":3194:3370   */\n    tag_41:\n        /* \"#utility.yul\":3334:3362   */\n      0x6f6e6c792053454c4c45522063616e2063616c6c20746869732e000000000000\n        /* \"#utility.yul\":3330:3331   */\n      0x00\n        /* \"#utility.yul\":3322:3328   */\n      dup3\n        /* \"#utility.yul\":3318:3332   */\n      add\n        /* \"#utility.yul\":3311:3363   */\n      mstore\n        /* \"#utility.yul\":3194:3370   */\n      pop\n      jump\t// out\n        /* \"#utility.yul\":3376:3742   */\n    tag_42:\n        /* \"#utility.yul\":3518:3521   */\n      0x00\n        /* \"#utility.yul\":3539:3606   */\n      tag_79\n        /* \"#utility.yul\":3603:3605   */\n      0x1a\n        /* \"#utility.yul\":3598:3601   */\n      dup4\n        /* \"#utility.yul\":3539:3606   */\n      tag_38\n      jump\t// in\n    tag_79:\n        /* \"#utility.yul\":3532:3606   */\n      swap2\n      pop\n        /* \"#utility.yul\":3615:3708   */\n      tag_80\n        /* \"#utility.yul\":3704:3707   */\n      dup3\n        /* \"#utility.yul\":3615:3708   */\n      tag_41\n      jump\t// in\n    tag_80:\n        /* \"#utility.yul\":3733:3735   */\n      0x20\n        /* \"#utility.yul\":3728:3731   */\n      dup3\n        /* \"#utility.yul\":3724:3736   */\n      add\n        /* \"#utility.yul\":3717:3736   */\n      swap1\n      pop\n        /* \"#utility.yul\":3376:3742   */\n      swap2\n      swap1\n      pop\n      jump\t// out\n        /* \"#utility.yul\":3748:4167   */\n    tag_26:\n        /* \"#utility.yul\":3914:3918   */\n      0x00\n        /* \"#utility.yul\":3952:3954   */\n      0x20\n        /* \"#utility.yul\":3941:3950   */\n      dup3\n        /* \"#utility.yul\":3937:3955   */\n      add\n        /* \"#utility.yul\":3929:3955   */\n      swap1\n      pop\n        /* \"#utility.yul\":4001:4010   */\n      dup2\n        /* \"#utility.yul\":3995:3999   */\n      dup2\n        /* \"#utility.yul\":3991:4011   */\n      sub\n        /* \"#utility.yul\":3987:3988   */\n      0x00\n        /* \"#utility.yul\":3976:3985   */\n      dup4\n        /* \"#utility.yul\":3972:3989   */\n      add\n        /* \"#utility.yul\":3965:4012   */\n      mstore\n        /* \"#utility.yul\":4029:4160   */\n      tag_82\n        /* \"#utility.yul\":4155:4159   */\n      dup2\n        /* \"#utility.yul\":4029:4160   */\n      tag_42\n      jump\t// in\n    tag_82:\n        /* \"#utility.yul\":4021:4160   */\n      swap1\n      pop\n        /* \"#utility.yul\":3748:4167   */\n      swap2\n      swap1\n      pop\n      jump\t// out\n\n    auxdata: 0xa2646970667358221220f166e8c5ca6e7afc5a609f3b18193a38f451c0083604cbebbea608eb29ba5d5564736f6c63430008140033\n}\n",
				"bytecode": {
					"linkReferences": {},
					"object": "608060405234801561000f575f80fd5b503360015f6101000a81548173ffffffffffffffffffffffffffffffffffffffff021916908373ffffffffffffffffffffffffffffffffffffffff1602179055506104c68061005d5f395ff3fe608060405234801561000f575f80fd5b506004361061003f575f3560e01c8063085d48831461004357806325ace2a714610061578063d61e72011461006b575b5f80fd5b61004b61009b565b60405161005891906102af565b60405180910390f35b6100696100c0565b005b610085600480360381019061008091906102ff565b610190565b60405161009291906102af565b60405180910390f35b60015f9054906101000a900473ffffffffffffffffffffffffffffffffffffffff1681565b5f5460025f3073ffffffffffffffffffffffffffffffffffffffff1673ffffffffffffffffffffffffffffffffffffffff1681526020019081526020015f205461010a9190610357565b42101561014c576040517f08c379a00000000000000000000000000000000000000000000000000000000081526004016101439061040a565b60405180910390fd5b5f60025f3073ffffffffffffffffffffffffffffffffffffffff1673ffffffffffffffffffffffffffffffffffffffff1681526020019081526020015f2081905550565b5f60015f9054906101000a900473ffffffffffffffffffffffffffffffffffffffff1673ffffffffffffffffffffffffffffffffffffffff163373ffffffffffffffffffffffffffffffffffffffff1614610220576040517f08c379a000000000000000000000000000000000000000000000000000000000815260040161021790610472565b60405180910390fd5b815f819055504260025f3073ffffffffffffffffffffffffffffffffffffffff1673ffffffffffffffffffffffffffffffffffffffff1681526020019081526020015f2081905550309050919050565b5f73ffffffffffffffffffffffffffffffffffffffff82169050919050565b5f61029982610270565b9050919050565b6102a98161028f565b82525050565b5f6020820190506102c25f8301846102a0565b92915050565b5f80fd5b5f819050919050565b6102de816102cc565b81146102e8575f80fd5b50565b5f813590506102f9816102d5565b92915050565b5f60208284031215610314576103136102c8565b5b5f610321848285016102eb565b91505092915050565b7f4e487b71000000000000000000000000000000000000000000000000000000005f52601160045260245ffd5b5f610361826102cc565b915061036c836102cc565b92508282019050808211156103845761038361032a565b5b92915050565b5f82825260208201905092915050565b7f436865636b207061737365642c20696e737572616e6365204e4f5420657870695f8201527f7265640000000000000000000000000000000000000000000000000000000000602082015250565b5f6103f460238361038a565b91506103ff8261039a565b604082019050919050565b5f6020820190508181035f830152610421816103e8565b9050919050565b7f6f6e6c792053454c4c45522063616e2063616c6c20746869732e0000000000005f82015250565b5f61045c601a8361038a565b915061046782610428565b602082019050919050565b5f6020820190508181035f83015261048981610450565b905091905056fea2646970667358221220f166e8c5ca6e7afc5a609f3b18193a38f451c0083604cbebbea608eb29ba5d5564736f6c63430008140033",
					"opcodes": "PUSH1 0x80 PUSH1 0x40 MSTORE CALLVALUE DUP1 ISZERO PUSH2 0xF JUMPI PUSH0 DUP1 REVERT JUMPDEST POP CALLER PUSH1 0x1 PUSH0 PUSH2 0x100 EXP DUP2 SLOAD DUP2 PUSH20 0xFFFFFFFFFFFFFFFFFFFFFFFFFFFFFFFFFFFFFFFF MUL NOT AND SWAP1 DUP4 PUSH20 0xFFFFFFFFFFFFFFFFFFFFFFFFFFFFFFFFFFFFFFFF AND MUL OR SWAP1 SSTORE POP PUSH2 0x4C6 DUP1 PUSH2 0x5D PUSH0 CODECOPY PUSH0 RETURN INVALID PUSH1 0x80 PUSH1 0x40 MSTORE CALLVALUE DUP1 ISZERO PUSH2 0xF JUMPI PUSH0 DUP1 REVERT JUMPDEST POP PUSH1 0x4 CALLDATASIZE LT PUSH2 0x3F JUMPI PUSH0 CALLDATALOAD PUSH1 0xE0 SHR DUP1 PUSH4 0x85D4883 EQ PUSH2 0x43 JUMPI DUP1 PUSH4 0x25ACE2A7 EQ PUSH2 0x61 JUMPI DUP1 PUSH4 0xD61E7201 EQ PUSH2 0x6B JUMPI JUMPDEST PUSH0 DUP1 REVERT JUMPDEST PUSH2 0x4B PUSH2 0x9B JUMP JUMPDEST PUSH1 0x40 MLOAD PUSH2 0x58 SWAP2 SWAP1 PUSH2 0x2AF JUMP JUMPDEST PUSH1 0x40 MLOAD DUP1 SWAP2 SUB SWAP1 RETURN JUMPDEST PUSH2 0x69 PUSH2 0xC0 JUMP JUMPDEST STOP JUMPDEST PUSH2 0x85 PUSH1 0x4 DUP1 CALLDATASIZE SUB DUP2 ADD SWAP1 PUSH2 0x80 SWAP2 SWAP1 PUSH2 0x2FF JUMP JUMPDEST PUSH2 0x190 JUMP JUMPDEST PUSH1 0x40 MLOAD PUSH2 0x92 SWAP2 SWAP1 PUSH2 0x2AF JUMP JUMPDEST PUSH1 0x40 MLOAD DUP1 SWAP2 SUB SWAP1 RETURN JUMPDEST PUSH1 0x1 PUSH0 SWAP1 SLOAD SWAP1 PUSH2 0x100 EXP SWAP1 DIV PUSH20 0xFFFFFFFFFFFFFFFFFFFFFFFFFFFFFFFFFFFFFFFF AND DUP2 JUMP JUMPDEST PUSH0 SLOAD PUSH1 0x2 PUSH0 ADDRESS PUSH20 0xFFFFFFFFFFFFFFFFFFFFFFFFFFFFFFFFFFFFFFFF AND PUSH20 0xFFFFFFFFFFFFFFFFFFFFFFFFFFFFFFFFFFFFFFFF AND DUP2 MSTORE PUSH1 0x20 ADD SWAP1 DUP2 MSTORE PUSH1 0x20 ADD PUSH0 KECCAK256 SLOAD PUSH2 0x10A SWAP2 SWAP1 PUSH2 0x357 JUMP JUMPDEST TIMESTAMP LT ISZERO PUSH2 0x14C JUMPI PUSH1 0x40 MLOAD PUSH32 0x8C379A000000000000000000000000000000000000000000000000000000000 DUP2 MSTORE PUSH1 0x4 ADD PUSH2 0x143 SWAP1 PUSH2 0x40A JUMP JUMPDEST PUSH1 0x40 MLOAD DUP1 SWAP2 SUB SWAP1 REVERT JUMPDEST PUSH0 PUSH1 0x2 PUSH0 ADDRESS PUSH20 0xFFFFFFFFFFFFFFFFFFFFFFFFFFFFFFFFFFFFFFFF AND PUSH20 0xFFFFFFFFFFFFFFFFFFFFFFFFFFFFFFFFFFFFFFFF AND DUP2 MSTORE PUSH1 0x20 ADD SWAP1 DUP2 MSTORE PUSH1 0x20 ADD PUSH0 KECCAK256 DUP2 SWAP1 SSTORE POP JUMP JUMPDEST PUSH0 PUSH1 0x1 PUSH0 SWAP1 SLOAD SWAP1 PUSH2 0x100 EXP SWAP1 DIV PUSH20 0xFFFFFFFFFFFFFFFFFFFFFFFFFFFFFFFFFFFFFFFF AND PUSH20 0xFFFFFFFFFFFFFFFFFFFFFFFFFFFFFFFFFFFFFFFF AND CALLER PUSH20 0xFFFFFFFFFFFFFFFFFFFFFFFFFFFFFFFFFFFFFFFF AND EQ PUSH2 0x220 JUMPI PUSH1 0x40 MLOAD PUSH32 0x8C379A000000000000000000000000000000000000000000000000000000000 DUP2 MSTORE PUSH1 0x4 ADD PUSH2 0x217 SWAP1 PUSH2 0x472 JUMP JUMPDEST PUSH1 0x40 MLOAD DUP1 SWAP2 SUB SWAP1 REVERT JUMPDEST DUP2 PUSH0 DUP2 SWAP1 SSTORE POP TIMESTAMP PUSH1 0x2 PUSH0 ADDRESS PUSH20 0xFFFFFFFFFFFFFFFFFFFFFFFFFFFFFFFFFFFFFFFF AND PUSH20 0xFFFFFFFFFFFFFFFFFFFFFFFFFFFFFFFFFFFFFFFF AND DUP2 MSTORE PUSH1 0x20 ADD SWAP1 DUP2 MSTORE PUSH1 0x20 ADD PUSH0 KECCAK256 DUP2 SWAP1 SSTORE POP ADDRESS SWAP1 POP SWAP2 SWAP1 POP JUMP JUMPDEST PUSH0 PUSH20 0xFFFFFFFFFFFFFFFFFFFFFFFFFFFFFFFFFFFFFFFF DUP3 AND SWAP1 POP SWAP2 SWAP1 POP JUMP JUMPDEST PUSH0 PUSH2 0x299 DUP3 PUSH2 0x270 JUMP JUMPDEST SWAP1 POP SWAP2 SWAP1 POP JUMP JUMPDEST PUSH2 0x2A9 DUP2 PUSH2 0x28F JUMP JUMPDEST DUP3 MSTORE POP POP JUMP JUMPDEST PUSH0 PUSH1 0x20 DUP3 ADD SWAP1 POP PUSH2 0x2C2 PUSH0 DUP4 ADD DUP5 PUSH2 0x2A0 JUMP JUMPDEST SWAP3 SWAP2 POP POP JUMP JUMPDEST PUSH0 DUP1 REVERT JUMPDEST PUSH0 DUP2 SWAP1 POP SWAP2 SWAP1 POP JUMP JUMPDEST PUSH2 0x2DE DUP2 PUSH2 0x2CC JUMP JUMPDEST DUP2 EQ PUSH2 0x2E8 JUMPI PUSH0 DUP1 REVERT JUMPDEST POP JUMP JUMPDEST PUSH0 DUP2 CALLDATALOAD SWAP1 POP PUSH2 0x2F9 DUP2 PUSH2 0x2D5 JUMP JUMPDEST SWAP3 SWAP2 POP POP JUMP JUMPDEST PUSH0 PUSH1 0x20 DUP3 DUP5 SUB SLT ISZERO PUSH2 0x314 JUMPI PUSH2 0x313 PUSH2 0x2C8 JUMP JUMPDEST JUMPDEST PUSH0 PUSH2 0x321 DUP5 DUP3 DUP6 ADD PUSH2 0x2EB JUMP JUMPDEST SWAP2 POP POP SWAP3 SWAP2 POP POP JUMP JUMPDEST PUSH32 0x4E487B7100000000000000000000000000000000000000000000000000000000 PUSH0 MSTORE PUSH1 0x11 PUSH1 0x4 MSTORE PUSH1 0x24 PUSH0 REVERT JUMPDEST PUSH0 PUSH2 0x361 DUP3 PUSH2 0x2CC JUMP JUMPDEST SWAP2 POP PUSH2 0x36C DUP4 PUSH2 0x2CC JUMP JUMPDEST SWAP3 POP DUP3 DUP3 ADD SWAP1 POP DUP1 DUP3 GT ISZERO PUSH2 0x384 JUMPI PUSH2 0x383 PUSH2 0x32A JUMP JUMPDEST JUMPDEST SWAP3 SWAP2 POP POP JUMP JUMPDEST PUSH0 DUP3 DUP3 MSTORE PUSH1 0x20 DUP3 ADD SWAP1 POP SWAP3 SWAP2 POP POP JUMP JUMPDEST PUSH32 0x436865636B207061737365642C20696E737572616E6365204E4F542065787069 PUSH0 DUP3 ADD MSTORE PUSH32 0x7265640000000000000000000000000000000000000000000000000000000000 PUSH1 0x20 DUP3 ADD MSTORE POP JUMP JUMPDEST PUSH0 PUSH2 0x3F4 PUSH1 0x23 DUP4 PUSH2 0x38A JUMP JUMPDEST SWAP2 POP PUSH2 0x3FF DUP3 PUSH2 0x39A JUMP JUMPDEST PUSH1 0x40 DUP3 ADD SWAP1 POP SWAP2 SWAP1 POP JUMP JUMPDEST PUSH0 PUSH1 0x20 DUP3 ADD SWAP1 POP DUP2 DUP2 SUB PUSH0 DUP4 ADD MSTORE PUSH2 0x421 DUP2 PUSH2 0x3E8 JUMP JUMPDEST SWAP1 POP SWAP2 SWAP1 POP JUMP JUMPDEST PUSH32 0x6F6E6C792053454C4C45522063616E2063616C6C20746869732E000000000000 PUSH0 DUP3 ADD MSTORE POP JUMP JUMPDEST PUSH0 PUSH2 0x45C PUSH1 0x1A DUP4 PUSH2 0x38A JUMP JUMPDEST SWAP2 POP PUSH2 0x467 DUP3 PUSH2 0x428 JUMP JUMPDEST PUSH1 0x20 DUP3 ADD SWAP1 POP SWAP2 SWAP1 POP JUMP JUMPDEST PUSH0 PUSH1 0x20 DUP3 ADD SWAP1 POP DUP2 DUP2 SUB PUSH0 DUP4 ADD MSTORE PUSH2 0x489 DUP2 PUSH2 0x450 JUMP JUMPDEST SWAP1 POP SWAP2 SWAP1 POP JUMP INVALID LOG2 PUSH5 0x6970667358 0x22 SLT KECCAK256 CALL PUSH7 0xE8C5CA6E7AFC5A PUSH1 0x9F EXTCODESIZE XOR NOT GASPRICE CODESIZE DELEGATECALL MLOAD 0xC0 ADDMOD CALLDATASIZE DIV 0xCB 0xEB 0xBE 0xA6 ADDMOD 0xEB 0x29 0xBA 0x5D SSTORE PUSH5 0x736F6C6343 STOP ADDMOD EQ STOP CALLER "
				},
				"gasEstimates": {
					"creation": {
						"codeDepositCost": "244400",
						"executionCost": "24550",
						"totalCost": "268950"
					},
					"external": {
						"checkExpired()": "infinite",
						"provider()": "2486",
						"updateStatus(uint256)": "47144"
					}
				},
				"methodIdentifiers": {
					"checkExpired()": "25ace2a7",
					"provider()": "085d4883",
					"updateStatus(uint256)": "d61e7201"
				}
			},
			"storageLayout": {
				"storage": [
					{
						"astId": 3,
						"contract": "backend/contracts/insurance.sol:insurance",
						"label": "duration",
						"offset": 0,
						"slot": "0",
						"type": "t_uint256"
					},
					{
						"astId": 5,
						"contract": "backend/contracts/insurance.sol:insurance",
						"label": "provider",
						"offset": 0,
						"slot": "1",
						"type": "t_address"
					},
					{
						"astId": 30,
						"contract": "backend/contracts/insurance.sol:insurance",
						"label": "insuranceRecord",
						"offset": 0,
						"slot": "2",
						"type": "t_mapping(t_address,t_uint256)"
					}
				],
				"types": {
					"t_address": {
						"encoding": "inplace",
						"label": "address",
						"numberOfBytes": "20"
					},
					"t_mapping(t_address,t_uint256)": {
						"encoding": "mapping",
						"key": "t_address",
						"label": "mapping(address => uint256)",
						"numberOfBytes": "32",
						"value": "t_uint256"
					},
					"t_uint256": {
						"encoding": "inplace",
						"label": "uint256",
						"numberOfBytes": "32"
					}
				}
			},
			"userdoc": {
				"kind": "user",
				"methods": {},
				"version": 1
			}
		}
	}
}